:020000040800F2
:10000000000003202D720008F70C0008F90C00080E
:10001000FB0C0008FD0C0008FF0C000800000000AD
:10002000000000000000000000000000010D0008BA
:10003000030D000800000000050D0008070D000872
:100040008172000881720008817200080F0D00089B
:1000500081720008817200087B0D0008850D000880
:100060008172000881720008710D00088172000819
:100070008172000881720008190D00088172000861
:100080008172000881720008817200088172000884
:100090008172000881720008817200088172000874
:1000A0008172000881720008817200088172000864
:1000B0008172000881720008817200088172000854
:1000C0008172000881720008817200088172000844
:1000D000290D0008390D000881720008817200089E
:1000E0008172000881720008817200088172000824
:1000F000490D0008510D0008590D000881720008D3
:100100008172000881720008817200088172000803
:1001100081720008817200088172000881720008F3
:100120008172000881720008610D00088172000868
:0C013000817200088172000881720008D2
:1001400010B5054C237833B9044B13B10448AFF311
:1001500000800123237010BD200200200000000059
:100160006083000808B5034B1BB103490348AFF394
:10017000008008BD00000000240200206083000809
:1001800001F0FF01102A2BDB10F0070F08D010F848
:10019000013B013A8B422DD010F0070F42B3F6D14C
:1001A000F0B441EA012141EA014122F007047FF065
:1001B00000070023F0E80256083C85EA010586EABC
:1001C000010685FA47F5A3FA87F586FA47F6A5FAF8
:1001D00087F68EB9EED1F0BC01F0FF0102F0070204
:1001E00032B110F8013B013A83EA010313B1F8D1AF
:1001F0000020704701387047002D06BF3546033890
:10020000073815F0010F07D1013015F4807F02BFC8
:10021000013015F4C03F0130F0BC0138704700BF19
:1002200053B94AB9002908BF00281CBF4FF0FF315D
:100230004FF0FF3000F06EB9ADF1080C6DE904CE5F
:1002400000F006F8DDF804E0DDE9022304B07047B1
:100250002DE9F047089D04468C46002B40F0838032
:100260008A42174647D9B2FA82F242B1C2F120005F
:1002700024FA00F09140974040EA010C94404FEA84
:100280001748230CBCFBF8F61FFA87FE08FB16C1C3
:1002900043EA014306FB0EF1994209D9FB1806F126
:1002A000FF3080F01981994240F21681023E3B44B2
:1002B0005B1AA4B2B3FBF8F008FB103344EA034422
:1002C00000FB0EFEA64509D93C1900F1FF3380F072
:1002D0000581A64540F2028102383C4440EA0640CE
:1002E000A4EB0E0400261DB1D4400023C5E9004351
:1002F0003146BDE8F08702B9FFDEB2FA82F2002A89
:1003000050D1CB1B4FEA174E1FFA87F80126B3FBDB
:10031000FEFC210C0EFB1C3341EA034108FB0CF3ED
:100320008B4207D979180CF1FF3002D28B4200F2D0
:10033000E9808446C91AA3B2B1FBFEF00EFB10118E
:1003400043EA014408FB00F8A04507D93C1900F135
:10035000FF3302D2A04500F2D9801846A4EB08046E
:1003600040EA0C40BFE78B4209D9002D00F0B18074
:100370000026C5E9000130463146BDE8F087B3FAF2
:1003800083F6002E4AD18B4202D3824200F2B8801B
:10039000841A61EB030101208C46002DA8D0C5E929
:1003A000004CA5E7C2F1200320FA03F6974001FABA
:1003B00002F04FEA174ED9403043030CB1FBFEF672
:1003C0001FFA87F80EFB161143EA014306FB08F1FA
:1003D000994204FA02F409D9FB1806F1FF3C80F0B7
:1003E0008D80994240F28A80023E3B445B1A81B282
:1003F000B3FBFEF00EFB103341EA034100FB08F3B0
:100400008B4207D9791800F1FF3C73D28B4271D926
:1004100002383944CB1A40EA064678E7C6F1200C88
:1004200003FA06F422FA0CF31C4320FA0CF701FA43
:1004300006F34FEA144E21FA0CF11F433B0CB1FBBB
:10044000FEF91FFA84F80EFB191143EA014109FB7A
:1004500008FA8A4502FA06F200FA06F308D961188A
:1004600009F1FF3048D28A4546D9A9F10209214451
:10047000A1EB0A01BFB2B1FBFEF00EFB101147EA7F
:10048000014700FB08F8B84507D9E71900F1FF312B
:100490002ED2B8452CD90238274440EA0940A7EBB0
:1004A0000807A0FB02894F45C64649461AD317D014
:1004B0005DB1B3EB0E0267EB010707FA0CFCF240EB
:1004C0004CEA0202F740C5E9002700263146BDE8A4
:1004D000F0872E4628460BE70646E9E61846FDE675
:1004E0004345E5D2B8EB020E69EB04010138DFE7C2
:1004F0000846D2E760468DE78146B9E7664675E76C
:1005000030464AE7ACF1020C394413E702383C4468
:1005100024E700BF704700BF82B04FF0B0431A6DB0
:1005200042F480121A651B6D03F480130193019B42
:100530000A4B3F229A609A615A6842F47C125A60D0
:100540005A6942F47C125A615A6842F03F025A607A
:100550005A6942F03F025A6102B07047000C0058DD
:10056000054BCA225A6253225A629A6822F0070245
:100570009A60FF225A62704700280040704708B511
:100580004FF0B043D3F8943013F0806F18D04FF091
:10059000B043D3F8943013F0805F11D103F03CFFE7
:1005A00003F03AFF4FF0B043D3F8902042F480328A
:1005B000C3F89020D3F8902022F48032C3F8902022
:1005C00008BD08B5FFF7DBFFFFF7A6FF08BD000079
:1005D00008B5002005F0B2F968B181794FF0B0425A
:1005E000054BC2F89C30D2F89C3023F47C5343EA8C
:1005F0000123C2F89C3008BDFECAFECA08B54FF000
:10060000B042936843F40043936006F0B9FC064A95
:10061000D2F8803023F0070343F00403C2F880309F
:1006200003F00AFF08BD00BF0004005808B5002011
:1006300002F0B8FA012002F0B5FA022002F0B2FA94
:10064000012002F0DBFA08BD08B50121002002F00C
:10065000F5FA0121084602F0F1FA0121022002F028
:10066000EDFA08BD10B588B004F060FF0F4A002114
:10067000402006F0BFFD0E4C00940E4B01936946DE
:100680000D4806F075FB04F58673029304F50673B6
:10069000039304F54974049440F23C53059302A873
:1006A00005F00AF804F03EFF08B010BD956D000893
:1006B000E00103207D0500081508000810B5446816
:1006C000154805F0DFF801464FF4D673134A144875
:1006D00006F012FE617B134806F00EFE637B6BB9D9
:1006E0000D4805F0CFF8014640F2B1130B4A0C4813
:1006F00006F002FE0C4806F085FE10BD064805F027
:10070000C1F8014640F2B513044A054806F0F4FD6D
:10071000064806F077FEF0E7F4830008E08600085C
:100720000C840008208400084C840008848400089D
:10073000F0B585B00023009301930293ADF80C301F
:1007400043685B7B8BB10446012B43D0294805F0FD
:1007500099F8014640F2F713274A284806F0CCFDE5
:10076000274806F04FFE05B0F0BD224F384605F091
:1007700089F80146204E214D4FF4E5733246284654
:1007800006F0BAFD1F4806F03DFE00F03BFD0D23CC
:100790008DF800307F238DF802301B4B1C68240C31
:1007A000384605F06FF801464FF4F173324628469B
:1007B00006F0A2FD2146154806F09EFDADF80C405E
:1007C000684604F0EBFF01F03BFD0021012006F03C
:1007D000E1FBC8E7074805F055F801464FF4F87308
:1007E000054A064806F088FD094806F00BFE00237E
:1007F0002370B8E7F4830008F48600080C8400082E
:1008000034850008B8840008002004E0E88400086B
:10081000088500082DE9F04184B00446D0F8048032
:10082000684604F0C9FF564F384605F02BF80146DC
:10083000544E554D4FF4B8733246284606F05CFDD1
:100840009DF802309DF801209DF800104F4806F0F9
:1008500053FD384605F016F8014640F27113324652
:10086000284606F049FD9DF80410494806F044FD6D
:10087000384605F007F801464FF4B973324628466A
:1008800006F03AFD9DF80C309DF80B209DF80A10FB
:10089000404806F031FDB8F80B30A3F51243072BA2
:1008A00008D8DFE803F0040A0E0730404E5E204609
:1008B000FFF73EFF04B0BDE8F0812046FFF7FEFEE3
:1008C000F8E72F4E304604F0DDFF01462D4D2E4C4B
:1008D00040F27F132A46204606F00EFD2E4806F011
:1008E00091FD304604F0CEFF01464FF4C0732A4616
:1008F000204606F001FDD8F81120D8F80D10274841
:1009000006F0FAFCD6E71E4804F0BCFF01464FF49F
:10091000C3731C4A1C4806F0EFFCD8F80D102048A1
:1009200006F0EAFCC6E7164804F0ACFF014640F2C8
:100930008B13144A144806F0DFFC1A4806F062FDD7
:10094000B8E70F4804F09EFF014640F28F130D4AAE
:100950000D4806F0D1FCD8F80D10134806F0CCFC79
:10096000A8E7074804F08EFF01464FF4CA73054A12
:10097000054806F0C1FC0D4806F044FD9AE700BFAB
:10098000F4830008CC8600080C8400086085000809
:1009900084850008A0850008B8850008E485000863
:1009A000288600085C86000878860008B086000863
:1009B00008B5044B4FF400421A61FFF702FEFFF73F
:1009C00007FE08BD00400058024BD3F89020C3F842
:1009D000902070470008005808B5FFF7F5FFFFF7B3
:1009E000BFFD08BD08B5FFF7F7FFFFF707FE084991
:1009F000002000F027FE00F0F1FB0121084606F080
:100A0000C9FAFFF713FEFFF71FFEFFF72BFE08BD25
:100A10004C15002038B5044603F0F8FD0546B4F146
:100A2000FF3F0BD103F0F2FD401BA0420AD2064A61
:100A3000136923F00403136130BFF3E703F0F2FD01
:100A40000444EFE738BD00BF00ED00E008B54FF00B
:100A5000FF3006F013FB08BD704708B54FF0FF30BC
:100A600006F00CFB08BD08B50021402006F0A8FAEE
:100A700008BD08B5022006F0D5FA08BD08B5022069
:100A800006F08CFB08BD08B502280AD0102802D059
:100A9000012803D008BD01F0A5FEFBE701F0A6FE8A
:100AA000F8E701F0A9FEF5E784B04FF0B043DA6C47
:100AB00042F00402DA64DA6C02F004020392039A50
:100AC000DA6C42F00102DA64DA6C02F0010202929E
:100AD000029ADA6C42F00202DA64DB6C03F0020381
:100AE0000193019B04B0704708B50348034B0360B2
:100AF00002F02EF908BD00BF90130020000C005832
:100B000000B585B04FF0B0439A6C42F004029A648D
:100B10009A6C02F004020392039A9A6C42F001026A
:100B20009A649A6C02F001020292029A9A6C42F064
:100B300002029A649B6C03F002030193019B002262
:100B40000F210E2003F092FC0E2003F0C3FC0022C4
:100B50000F213A2003F08AFC3A2003F0BBFC05B0D9
:100B60005DF804FB38B50B4C0B4B2360002565602A
:100B70000F23A36047F6FF73E3602561A561E5617C
:100B80006561204604F073FB2A462946204604F09E
:100B9000DBFB38BD4C1500200028004008B5044898
:100BA000044B03600023436004F00CFB08BD00BF4E
:100BB000D01500200010005830B59BB0482200210D
:100BC00008A806F091FB0024019402940394049475
:100BD00005940694079403F01FFC4FF0B042D2F83E
:100BE000903023F01803C2F8903002F58062136849
:100BF00023F4C06343F400731360136803F4C06309
:100C00000093009B472308934FF4803309930125F9
:100C10000A954FF480730B93129540230C93139411
:100C200008A802F0B7F96F230193022302930394FB
:100C30000494059406940794294601A802F040FD07
:100C40001BB030BD00B595B04022002101A806F0D0
:100C50004BFB4FF4405300934FF480431193022316
:100C6000129310231393684602F055FF15B05DF8F8
:100C700004FB08B503F0A8FCFFF79AFEFFF79CFF02
:100C8000FFF7E0FFFFF730FFFFF70EFFFFF738FF3A
:100C9000FFF768FFFFF782FFFFF7A4FEFFF7D6FE1E
:100CA000FCE7000038B5114C114B23604FF4E133E1
:100CB00063600025A560E56025610C236361A56183
:100CC0004FF40043E36125626562A562204604F0AB
:100CD000B4F92946204604F02BFA2946204604F0B0
:100CE0004CFA204604F005FA38BD00BFBC140020C1
:100CF0000038014070477047FEE7FEE7FEE7FEE779
:100D000070477047704708B503F074FC08BD08B51C
:100D100000F02AFE08BD000008B5024803F0EDFA15
:100D200008BD00BF7015002008B5024803F0A8FDFB
:100D300008BD00BFBC14002008B5024803F0A0FDA8
:100D400008BD00BFCC13002008B500F0CBFF08BDE4
:100D500008B500F067FF08BD08B502F019F808BD36
:100D600008B5024803F0C9FA08BD00BF5C140020B2
:100D700008B5102003F028F908BD08B5012003F0DC
:100D800023F908BD08B5022003F01EF908BD00B51F
:100D900083B04FF0B0431A6D42F400221A651B6D08
:100DA00003F400230193019B002211462E2003F03F
:100DB0005DFB2E2003F08EFB03B05DF804FB00000A
:100DC0000268124B9A4200D0704700B583B04FF0D2
:100DD000B0431A6D42F480121A651B6D03F4801340
:100DE0000193019B002211462C2003F03FFB2C2095
:100DF00003F070FB002211462D2003F037FB2D205D
:100E000003F068FB03B05DF804FB00BF000C005862
:100E100030B5A3B0044600211D911E911F91209171
:100E20002191502205A806F05FFA23685C4A93429C
:100E300004D05C4A934263D023B030BD02230593B3
:100E400000230C9305A802F066FE00284FD14FF056
:100E5000B043DA6D42F00102DA65DA6D02F00102A8
:100E60000292029ADA6C42F00102DA64DB6C03F05F
:100E700001030193019B0C231D9302231E93002564
:100E80001F9503232093082321931DA94FF0904021
:100E900002F0D0FF4448454B036011234360102308
:100EA0008360C5608023036145618561C56105621A
:100EB00003F0F8F8F0B94FF08853199300231A9310
:100EC0008DF86C308DF86D3001231C9319A93648CC
:100ED00003F076FA88B9344BA3679C62002211466E
:100EE000252003F0C3FA252003F0F4FAA4E7FFF766
:100EF00001FFACE7FFF7FEFEDDE7FFF7FBFEEAE7E9
:100F00000123059300230B9305A802F004FE00289B
:100F10003FD14FF0B0431A6E42F480421A661A6E07
:100F200002F480420492049ADA6C42F00202DA641B
:100F3000DB6C03F002030393039BC0231D93022386
:100F40001E9301231F9303232093072321931DA99D
:100F5000174802F06FFF1748174B03600F234360D9
:100F6000102383600023C360802202614361836198
:100F7000C361036203F096F870B90E4BA3679C62DD
:100F800000221146242003F071FA242003F0A2FA73
:100F900052E7FFF7AFFEBCE7FFF7ACFEEDE700BF9F
:100FA00000800040003801407015002044000240DD
:100FB000000400485C1400204404024010B596B0C0
:100FC00004465022002102A806F08EF922680F4B39
:100FD0009A4201D016B010BD4FF4007302934FF047
:100FE0008053109302A802F096FD58B94FF0B04319
:100FF0001A6D42F480221A651B6D03F4802301935D
:10100000019BE7E7FFF776FEF0E700BF001000580E
:1010100010B596B004465022002102A806F064F9EB
:101020002268174B9A4201D016B010BD4FF40063EE
:1010300002934FF48073129302A802F06CFDE0B9A2
:101040004FF0B043D3F8902042F40042C3F8902010
:101050009A6D42F480629A659B6D03F480630193FC
:10106000019B00221146032003F000FA032003F045
:1010700031FA204604F0EAF9D6E7FFF73BFEDFE756
:101080000028004070B58CB000230B931C461D4611
:101090001E4606E04E4A02EBC3018A88154301331F
:1010A000DBB2252B1ED84A4A02EBC3029279002AF2
:1010B000F5D0474A52F8332046488242EAD000F53C
:1010C0008060824208D0B2F1904FE8D1404A02EBF2
:1010D000C3018A881643E2E73D4A02EBC3018A88CE
:1010E0001443DCE7002309930123089303230A93A5
:1010F00026B93DBB002C48D10CB070BD07964FF00F
:10110000B043DA6C42F00102DA64DA6C02F00102F8
:101110000292029AD3F84C2142F00102C3F84C210A
:10112000D3F84C3103F001030193019B07A94FF061
:10113000904002F07FFE002231464FF0904002F0D6
:101140003DFFD6E707954FF0B043DA6C42F002025C
:10115000DA64DA6C02F002020492049AD3F84C21A9
:1011600042F00202C3F84C21D3F84C3103F00203E1
:101170000393039B174E07A9304602F05BFE002243
:101180002946304602F01AFFB4E707944FF0B04307
:10119000DA6C42F00402DA64DA6C02F004020692BD
:1011A000069AD3F84C2142F00402C3F84C21D3F83C
:1011B0004C3103F004030593059B074D07A928460E
:1011C00002F038FE00222146284602F0F7FE93E79F
:1011D00010870008000400480008004808B503F024
:1011E00027FA03F02DFA064AD2F8903043F4803300
:1011F000C2F8903004F058FBFFF744FF08BD00BF71
:101200000008005830B589B001AC084D0FCD0FC4AF
:1012100095E8070003C424F8022B120C227004F096
:1012200079FA01A804F0ABFA09B030BD7883000860
:1012300008B5FFF737FD08BD08B513460A46014655
:10124000002000F009FC08BD064A936A9BB2906A30
:1012500080B2834204D0034B9A6A034690B2F8E707
:10126000704700BF0028004010B401EB41020E4B54
:1012700003EBC2035B7DDBB2062B05D003EB43021D
:10128000094C04EBC2021075074A00EB400402EB64
:10129000C4046375217501EB410102EBC10148757E
:1012A0005DF8044B704700BFB4000020184B93F862
:1012B0009030DBB28B421ED010B4154B01EB4102D3
:1012C00003EBC202127DD4B202EB420203EBC20274
:1012D000507500EB400203EBC202517500EB400277
:1012E00003EBC202147501EB410103EBC103187556
:1012F0005DF8044B7047064B00EB400203EBC20263
:10130000517501EB410103EBC1010875704700BF46
:10131000B400002030B4244B93F89030DBB2834209
:101320002AD0214C00EB400204EBC202157D537D14
:10133000DBB2527DD2B205EB450504EBC504627504
:10134000062B0BD0184A00EB400402EBC404247DAA
:10135000E4B203EB430302EBC3031C75124B00EB37
:10136000400003EBC0000122027393F89030DBB21F
:10137000062B10D030BC70470B4B93F89020D2B2A4
:1013800083F8912000EB400203EBC202527DD2B2FF
:1013900083F89020E2E70029ECD1034B4FF0FF32B5
:1013A000C3F89420E6E700BFB400002008B5124B54
:1013B000D3F89430B3F1FF3F02D1002080B208BDD2
:1013C000FFF742FF0C4BD3F8943083420BD30A4B08
:1013D000D3F89430181A094B1B7800FB03F0084B24
:1013E0001B78D840EAE7074B1B881B1A024AD2F841
:1013F00094001844EFE700BFB40000203C02002036
:10140000420200204002002070B50446334B93F89E
:101410009030DBB2062B14D1304B93F89020D2B22F
:1014200083F8912083F8900000EB400403EBC404A0
:10143000062262754FF0FF32C3F89420002528463B
:1014400070BDFFF7B3FF0546244B04EB440203EBEA
:10145000C20291680144916004EB440203EBC202B2
:10146000906893F8902002EB420203EBC2039B6862
:10147000834225D8194A92F89030D9B203EB43033E
:1014800002EBC3035B7DDBB2062B15D003EB4303FA
:10149000124A02EBC3039B6883420DD80F4A01EB4B
:1014A000410102EBC1014B7DD9B203EB430302EBD7
:1014B000C3035B7DDBB2E7E72046FFF7D5FEBEE75F
:1014C000064E96F890102046FFF7F0FE96F8903002
:1014D000DBB286F8913086F89040B0E7B400002087
:1014E00010B560B30446012832D9013CA4B21B4BAD
:1014F0001B681B68DA6812F0040FF8D0DA68D2B201
:1015000062F49062DA60164B4FF40022DA60032036
:1015100003F024F8134A53691B0C1B041C43546149
:10152000FFF792FE104BC3F894000C4B1B681A682F
:10153000936843F480639360AFF3008010BDFFF7BE
:1015400083FE094BC3F89400032002F0F9FFF5E78E
:10155000064B1B78012BC8D1C9E700BF440200200D
:101560000008005800280040B4000020420200207B
:1015700070B5304B9B6813F4806F06D02E4B1B6800
:101580001B68DB6813F0040FF8D12B4B1B681A683B
:10159000936823F480639360284A92F89030DCB219
:1015A00003EB430302EBC3039E68FFF7FFFE054610
:1015B000B04205D9214B012283F89820002024E075
:1015C0001F4B1B8810FA83F3B34207D21C4B1888B9
:1015D00080B21A4B002283F8982016E0B6B2301A77
:1015E00080B2164B012283F898200EE004EB4404ED
:1015F000124A02EBC404A268521BA26003EB43032D
:101600000E4A02EBC3035C7DE4B2062C0FD02346E6
:1016100004EB4402094901EBC20292689542E5D904
:1016200004EB440401EBC4040022A260E6E7FFF7E8
:1016300057FF70BD0028004044020020B400002085
:101640003E02002010B54C4B19600B68CA225A624A
:101650000B6853225A62494A936843F0200393600F
:10166000936803F00703C3F10403D9B2444B197024
:10167000136903F4FE034FF4FE0292FAA2F2002A69
:101680003DD0B2FA82F2D340DBB20133DAB23D4B45
:101690001A703A4B1B69C3F30E0301333A4C238093
:1016A000013B03FB02F3A3F5A073CB404FF6FE72A0
:1016B000934226D9354B4FF6FF721A80344B1A6885
:1016C00042F400221A60D3F8802042F40022C3F8CA
:1016D0008020002845D12F4B012283F898204FF01D
:1016E000FF32C3F8942005280FD800EB4002294BA5
:1016F00003EBC20300221A730130C0B2F3E72022C9
:10170000C1E79BB2214A1380D8E7224B062283F817
:101710009020194C226811688B6823F480638B60D9
:101720001268D368DBB263F49063D360184B4FF454
:101730000022DA60032002F011FF23681A68936820
:1017400043F4804393600C4B1B681B68FF225A6272
:1017500000220321084602F089FE032002F0BAFEAF
:1017600010BD054B1B681B68DB6813F4806FEAD063
:10177000032002F0E5FEE6E74402002000280040D6
:10178000420200203C020020400200203E020020D5
:1017900000080058B4000020F0B5EFF3108772B6CF
:1017A000002401E00134E4B2052C07D804EB440521
:1017B000104E06EBC5052D7B002DF3D1062C15D060
:1017C000DFF830C0650004EB44060CEBC6064FF0B2
:1017D000010E86F80CE087F31088306172732A19C5
:1017E000D2004CF802300C700020F0BD87F3108856
:1017F0000120FAE7B400002038B50446EFF3108565
:1018000072B6032002F074FE294B1B681A68CA21C5
:1018100051621B6853225A6204EB4402254B03EBCE
:10182000C2031B7BDBB2022B0AD0214B1B681B6857
:10183000FF225A62032002F04DFE85F3108838BD66
:1018400000212046FFF766FD1A4B93F89030DBB27B
:10185000062B08D0174A92F89120D2B29A42E4D0CF
:10186000FFF786FEE1E7144B9B6813F4806F06D008
:101870000F4B1B681B68DB6813F0040FF8D10C4B8F
:1018800019680A68936823F4806393600B68DA68C8
:1018900012F0040FFAD0DA68D2B262F49062DA6021
:1018A000064B4FF40022DA60032002F057FEBCE73B
:1018B00044020020B4000020002800400008005826
:1018C000F8B504460D4600EB4002234B03EBC20380
:1018D0001B7BDBB2022B38D0EFF3108672B60320ED
:1018E00002F006FE1D4B1B681A68CA2151621B6874
:1018F00053225A62184F04EB440307EBC30302223E
:101900001A739D605D602046FFF77EFD97F890306A
:10191000DBB297F89120D2B29A4219D10E4B04EB68
:10192000440203EBC2029268101A04EB440403EB76
:10193000C404A060094B1B681B68FF225A62032085
:1019400002F0C8FD86F31088F8BDFFF755FFC3E726
:10195000FFF70EFEEEE700BFB400002044020020B7
:1019600008B5904708BD0000F8B5EFF3108472B6D3
:10197000364B19680B68CA225A620B6853225A62A6
:101980000A68936823F480639360314A92F8903038
:10199000DDB203EB4303D8000244137BDBB2022B1E
:1019A00015D00B68DA6812F0040FFAD0DA68D2B2F8
:1019B00062F49062DA60274B4FF40022DA6084F31D
:1019C0001088224B1B681B68FF225A62F8BD204B0F
:1019D00005EB4501CA0099189F580E6993F8983095
:1019E00073B34B7BDBB2012B12D084F310882846F3
:1019F000FFF702FF154B1B681A68CA2151621B686A
:101A000053225A623A4629463046FFF7A9FFD8E7E3
:101A100001212846FFF77EFC84F3108805EB45037F
:101A2000DA000B4B134459682846FFF749FF074B70
:101A30001B681A68CA2151621B6853225A62E1E787
:101A4000FFF796FD84F31088BBE700BF4402002037
:101A5000B40000200008005810B518B1022810D0BA
:101A6000002010BD0B4803600B480C4B036002F0D4
:101A700033FE0228F5D00328F3D00128F1D000204E
:101A8000EFE7074803600748074B036002F024FEB6
:101A9000EFE700BFF0150020BC1400200038014023
:101AA000E4150020CC1300200080004008B5036836
:101AB000084A934208D002F53842934203D1064BBC
:101AC0001B6803B1984708BD044B1B68002BFAD074
:101AD0009847F8E700800040F0150020E41500204A
:101AE00010B5064C636843F400236360044B1B6825
:101AF00098474FF40023A36010BD00BF000C0058AE
:101B00004802002082B04FF0B043D3F8502142F495
:101B10008012C3F85021D3F8503103F4801301939D
:101B2000019B0A4BD3F8D42042F40072C3F8D420AE
:101B30001A6A42F400721A6240BF20BF044AD36896
:101B400043F40043D36002B0704700BF0008005860
:101B50000004005800B583B04FF0B0431A6D42F452
:101B600080121A651B6D03F480130193019B094BCE
:101B70001A6842F001021A601A6842F480321A6050
:101B80002C2002F0A7FC2D2002F0A4FC03B05DF88D
:101B900004FB00BF000C0058024A536823F0010305
:101BA00053607047000C0058024B4FF480329A602B
:101BB000704700BF000C005808B5044A536843F44E
:101BC0000013536003F020FD08BD00BF000C005857
:101BD00008B503F003FD024B01229A6008BD00BF67
:101BE000000C0058024A536823F002035360704708
:101BF000000C0058044B4FF400329A605A6822F4EB
:101C000000325A60704700BF000C005808B5044A03
:101C1000536843F40033536003F02AFD08BD00BF4E
:101C2000000C005808B5144BDB6813F0020F04D108
:101C3000114B5B6813F4003F14D00F4BDB6813F0BB
:101C4000080F04D10C4B5B6813F4002F0DD00A4B26
:101C5000DB6813F0200F04D1074B5B6813F4001FFF
:101C600006D008BDFFF7D2FFFBE7FFF739FFF8E723
:101C7000FFF7A2FFF5E700BF000C005808B503F01E
:101C800005FD024B02229A6008BD00BF000C0058FF
:101C900008B5094BDB6813F0080F05D18047064BE8
:101CA0004FF400229A6008BD044B1860024A536842
:101CB00023F400235360F6E7000C0058480200208C
:101CC000024A536823F0080353607047000C005821
:101CD00008B503F031FD024B08229A6008BD00BF31
:101CE000000C005808B5144BDB6913F0020F0AD141
:101CF000114BDB6913F0010F0DD10F4BDB6913F0B2
:101D0000080F10D108BD0C4B5B6813F0020FEFD128
:101D1000FFF7B4FFF6E7084B5B6813F0010FECD157
:101D2000FFF756FFEEE7044B5B6813F0080FE9D1AD
:101D3000FFF7CEFFE6E700BF000C005808B5012012
:101D400000F06CFF08BD08B50021012005F038F94E
:101D500008BD0000234B1B78012B00D0704700B555
:101D600083B000231F4A13701F490A78013202F022
:101D7000010248BF5242D2B20A701C4901EB8202F2
:101D8000D2ED006AB7EE047AC6EE877AFDEEE77A06
:101D900017EE902A91B24FF4FA7200920A46144854
:101DA000C08A04F0DCFB78B9124803F06BFD0146F1
:101DB00040F2CD43104A114805F09EFA104805F054
:101DC0009BFA03B05DF804FB0A4803F05BFD014693
:101DD00040F2D143084A094805F08EFA094805F057
:101DE0008BFAEEE7F8150020F91500201800002006
:101DF0005001002040880008C88E00080C840008AC
:101E00005C8800088C88000808B5054B93F8803082
:101E1000012B00D808BD024BD88AFFF79BFFF9E7DA
:101E20005001002070B5012000F0F8FE1C4B93F823
:101E30008030052B00D170BD03F0CFFF184B00227E
:101E400083F88020E8B9174E304603F01BFD0146A9
:101E5000154D164C4FF493632A46204605F04CFA74
:101E6000134805F049FA304603F00CFD01464FF4E3
:101E700093632A46204605F03FFA0E4805F03CFAE7
:101E8000D9E7084803F0FEFC014640F29C43064AAD
:101E9000064805F031FA084805F02EFACBE700BFF6
:101EA0005001002040880008BC8E00080C84000807
:101EB000B4880008BC880008D888000800B583B042
:101EC000054B0093054B01936946054804F042FE1B
:101ED00003B05DF804FB00BF28000320FF1E0008CC
:101EE000E51E000810B504464068083005F01EF8ED
:101EF00010B10123237010BD00232370FBE708B548
:101F000010B1012804D008BD3F2005F071F8FAE7B0
:101F10003F2005F07BF8F6E708B50E4B1A68B2F1E2
:101F2000FF3F10D004331B680B480270C2F3072236
:101F300042708370C3F30722C270C3F30742027179
:101F40001B0E437108BD002003F0F8FC0028F9D1F6
:101F50000248F7E78075FF1F4C020020788E0008CA
:101F600030B589B00025ADF8185004F07BFAFFF7C2
:101F7000D3FF044602460621284604F0F3F96279AD
:101F80003F4B1A7222795A72E2789A72A278DA7208
:101F900062781A7322785A733A4A1021182004F092
:101FA000E1F9394A1021082004F0DCF91821012058
:101FB00004F008FA04F0CFF80DF11A03019307AB0F
:101FC00000930DF11E0304222946012003F0E6FFD1
:101FD0002E4B009304232A46BDF81C10BDF81E00AA
:101FE00004F08BF968BB06AB009302230022BDF816
:101FF0001A10BDF81E0004F080F980BB02221146C1
:10200000002004F081FA224C01252570284603F0B7
:102010005FFF657008222271102161710023E37057
:102020001C48A060A5700493039002930191009254
:102030002A462946284603F071FFA378EBB909B078
:1020400030BD154803F01EFC01464FF47173134A6E
:10205000134805F051F9134805F0D4F9C3E70E48C9
:1020600003F010FC014640F2CE330C4A0C4805F058
:1020700043F90D4805F0C6F9C0E703F0FBFFDEE7C2
:1020800008000020688E0008588E0008FC880008B0
:102090005001002007B2010040880008988E000817
:1020A0000C8400080489000834890008F0B589B060
:1020B0000446012846D04FF47A674FF4C866524D63
:1020C00095F88100FFF798FB504803F0DBFB0146D1
:1020D00040F20F434E4A4F4805F00EF995F8801034
:1020E0004D4805F009F9022C32D0474B83F8804067
:1020F00000200690059003F1190204921B7E0393C1
:10210000464B02930A230193009003463A46314618
:1021100003F084FE42490E2003F07FFF05460028AD
:1021200051D1012C3BD0394803F0ACFB014640F2C1
:102130003C43374A374805F0DFF83A4805F062F982
:1021400009B0F0BD304BB3F88460B3F88670B6E7E1
:1021500095F88030013BDBB2012BC6D803F03DFE81
:10216000054668B9294803F08DFB014640F2194342
:10217000274A284805F0C0F82B4805F043F9B4E792
:10218000224803F07FFB014640F21D43204A2148CC
:1021900005F0B2F82946254805F0AEF8A5E71B483A
:1021A00003F070FB014640F23643194A194805F026
:1021B000A3F81F4805F026F91E49134B93F8810038
:1021C000FFF77EFBBCE7012C0ED0104803F05AFB52
:1021D000014640F247430E4A0E4805F08DF8294665
:1021E000154805F089F8ABE7084803F04BFB0146BA
:1021F00040F24343064A074805F07EF829460F4857
:1022000005F07AF89CE700BF5001002040880008E4
:10221000B08E00080C84000864890008E48E000871
:1022200008000020F489000880890008A4890008BB
:10223000CC89000846E00100508A0008208A000886
:1022400070B58EB001AC2B4D0FCD0FC40FCD0FC4A8
:102250000FCD0FC42B682370FFF730FE0121022041
:1022600004F098FE244A0021042004F0C3FF01A8D2
:1022700003F076FA002839D1FFF772FE04F042FE2F
:102280001E4D002485F880404FF6FF73EB821C4AF8
:102290002146012004F0AEFF1A4A2146022004F034
:1022A000A9FF062004F0B7F8174B1C700126174B46
:1022B0001E7000F059FC164B224605F181012046A4
:1022C000FFF76AFA134B224605F182012046FFF719
:1022D00063FA6C762C768023A5F88430A023A5F8C9
:1022E00086303046FFF7E2FE0EB070BDFEF702FD0D
:1022F000C2E700BF94830008796B000850010020FA
:10230000251E0008091E0008F9150020F8150020F8
:10231000471D00083D1D0008F0B583B00446437812
:102320003E2B2BD0FF2B00F0E680052B02D00120A6
:1023300003B0F0BD8288C34BDB8A9A420BD00120E8
:10234000FFF7B4FEC04801230370BE4BDB8A438015
:1023500000F002FCEBE7BB4B0022DA8283F880201E
:10236000BA4803F08FFA014640F23323B84AB9481D
:1023700004F0C2FFB84805F045F8E0E7C378032B46
:102380002BD00C2B37D0012BD1D1AE4D95F881003D
:10239000FFF732FAAD4803F075FA014640F28223A6
:1023A000AB4AAC4804F0A8FFB4F80510AB4804F001
:1023B000A3FF95F88030042B00F09980A14B0522F3
:1023C00083F88020B4F805309E4AD3829E480022CC
:1023D0000270438000F0C0FBA9E79C4803F052FA6A
:1023E000014640F24F239A4A9A4804F085FF9C48E0
:1023F00005F008F89BE7954803F044FA014640F2DF
:102400005623934A934804F077FF964804F0FAFF66
:102410002379002B3DD18D4803F034FA014640F278
:102420005A238B4A8B4804F067FF8F4804F0EAFF79
:102430000DF106020DF10701824BD88A04F032F843
:10244000002846D1814803F01DFA01464FF4197364
:102450007F4A804804F050FF844804F0D3FF9DF881
:102460000730022B03D19DF80630022B1FD077488E
:1024700003F008FA01464FF41B73754A754804F0DF
:102480003BFF9DF806209DF80710794804F034FFC3
:102490004DE76E4803F0F6F9014640F25E236C4AC0
:1024A0006C4804F029FF734804F0ACFFC0E76748AC
:1024B00003F0E8F901464FF41A73654A654804F0E1
:1024C0001BFF9DF806209DF80710694804F014FFD3
:1024D0002DE75E4803F0D6F9014640F271235C4ACD
:1024E0005C4804F009FF644804F08CFF1FE70622F3
:1024F00085F8802066E7B0F8033040F20A42934244
:102500002DD8B3F5806F1DD3A3F580630A2B3FF65A
:102510000EAF01A252F823F06F2500083D270008F6
:102520008B250008C7250008E3250008FF250008C3
:102530002F230008952700089D260008D5260008AF
:10254000B9260008042B7FF4F2AE012000F056FB00
:102550000A213C4B93F88200FFF7B2F9E7E6B3F5A6
:10256000006F7FF4E4AE454B01221A70DFE6374876
:1025700003F088F9014640F2B223354A354804F0A9
:10258000BBFE3F4804F03EFFD1E6304E304603F03C
:1025900079F901462E4D2F4C40F2B5232A462046AC
:1025A00004F0AAFE374804F02DFF304603F06AF924
:1025B000014640F2B9232A46204604F09DFE3248E7
:1025C00004F020FFB3E6214803F05CF901464FF424
:1025D0002F731F4A1F4804F08FFE2C4804F012FF8F
:1025E000A5E61A4803F04EF9014640F2BF23184A07
:1025F000184804F081FE264804F004FF97E6134EC5
:10260000304603F03FF90146114D124C40F2C2230F
:102610002A46204604F070FE1E4804F0F3FE094BE3
:10262000D88A03F048FD304603F02CF901464FF4F8
:1026300031732A46204604F05FFE174804F0E2FE9C
:1026400075E600BF50010020F41500204088000806
:10265000808E00080C840008848A0008888B00089B
:10266000AC8A0008D88A0008F48A0008408B000869
:10267000548B0008188B0008708B0008F815002098
:10268000CC8B0008FC8B0008248C0008448C0008CC
:10269000708C0008A48C0008C88C0008444803F023
:1026A000F1F801464FF43273424A434804F024FEE5
:1026B000424804F0A7FE3AE63D4803F0E3F801463D
:1026C00040F2CB233B4A3C4804F016FE3C4804F061
:1026D00099FE2CE6364F384603F0D4F80146354EC5
:1026E000354D40F2CE233246284604F005FED4F89C
:1026F0000710344804F000FE384603F0C3F80146E2
:102700004FF434733246284604F0F6FDD4F807102F
:102710002D4804F0F1FD01212C4BD88A03F0F2FC86
:10272000384603F0AFF8014640F2D323324628463C
:1027300004F0E2FD264804F065FEF8E51C4803F0CD
:10274000A1F801464FF436731A4A1B4804F0D4FD31
:10275000E179204804F0D0FDE3796BB9144803F027
:1027600091F8014640F2DB23124A134804F0C4FDFD
:10277000194804F047FEDAE50D4803F083F80146F6
:1027800040F2DF230B4A0C4804F0B6FD134804F076
:1027900039FECCE5064803F075F801464FF43C736A
:1027A000044A054804F0A8FD0D4804F02BFEBEE5E0
:1027B00040880008808E00080C840008E48C000823
:1027C000108D0008408D0008588D00085001002031
:1027D0006C8D0008A88D0008088E00081C8E00086B
:1027E000308E000808B500F0D7F908BD08B5002103
:1027F000022004F0E5FB08BD704708B50021042065
:1028000004F0DEFB08BD08B5012004F00BFC08BD98
:1028100008B5012004F0C2FC08BD000008B5002086
:1028200000F0FCF9034B0121597000229A70D97015
:102830001A7108BDD8010020F0B58BB001AC214D54
:102840000FCD0FC40FCD0FC42B68237000240DE0F3
:102850001D4803F017F8014640F285131B4A1C4837
:1028600004F04AFD1B4804F047FD0134092C26DC26
:10287000194B1B78002BEBD0134F384603F002F8AE
:102880000146124E124D40F27F133246284604F0A4
:1028900033FD124804F0B6FD384602F0F3FF01465E
:1028A0004FF4C0733246284604F026FD0C4804F06D
:1028B00023FD01A94FF6436004F0BEF8D5E70BB045
:1028C000F0BD00BF888F0008F08E000878910008E6
:1028D0000C840008408F0008D8010020108F0008E9
:1028E0003C8F000870B51F4B1B7943BB1D4B012269
:1028F0001A711C4B1B7833B31B4E304602F0C2FFDB
:1029000001461A4D1A4C4FF4B2732A46204604F081
:10291000F3FC184804F0F0FC304602F0B3FF014627
:1029200040F265132A46204604F0E6FC124804F003
:10293000E3FC12494FF6426004F07EF870BD094B8B
:1029400000221A71D5E7084802F09CFF01464FF4B7
:10295000B473064A064804F0CFFC094804F0CCFCE6
:10296000ECE700BFD8010020F08E0008609100085D
:102970000C840008AC8F00083C8F0008DB010020AD
:10298000EC8F00082DE9F0410378012B34D0044688
:10299000032B60D00BB1BDE8F0815E4F4FF0010812
:1029A00087F80E805C4E304602F06CFF01465B4DAE
:1029B0005B4C99232A46204604F09EFC594804F0BB
:1029C0009BFC87F80080304602F05CFF01469B23A9
:1029D0002A46204604F090FC534804F013FD30468C
:1029E00002F050FF01469C232A46204604F084FC56
:1029F0004E4804F081FCCEE7464F4FF0000887F8C0
:102A00000E80454E304602F03DFF0146434D444C9A
:102A1000A3232A46204604F06FFC454804F06CFCD2
:102A200087F80080304602F02DFF0146A5232A4694
:102A3000204604F061FC3F4804F0E4FC304602F01C
:102A400021FF0146A6232A46204604F055FC3748BC
:102A500004F052FC9FE7304802F014FF0146AC231B
:102A60002E4A2F4804F048FC6168334804F044FCC7
:102A7000646804223149204604F0CCFCE0B1032212
:102A80002F49204604F0C6FCA0B303222D4920465E
:102A900004F0C0FC00287FF47EAF00F0AFF81E48C1
:102AA00002F0F0FE0146C5231C4A1D4804F024FC38
:102AB000254804F021FC6EE7174E304602F0E2FE96
:102AC0000146164D164CB5232A46204604F014FC48
:102AD0001E4804F011FC304602F0D4FE0146B62335
:102AE0002A46204604F008FC194804F005FCFFF7CC
:102AF000A3FE50E700F092F8074802F0C3FE01463B
:102B0000C023064A064804F0F7FB124804F0F4FB21
:102B100041E700BFD8010020F08E00084491000872
:102B20000C84000838900008549000083C8F00087E
:102B300088900008A4900008D8900008F090000841
:102B40001C9100083091000834910008F8900008AA
:102B5000089100082091000808B50378012B00D0E7
:102B600008BDFFF75BFEFBE738B5084A00210820E7
:102B700004F040FB064A0021802004F03BFB054C9A
:102B800000252570FFF74AFEA57338BDE52800082B
:102B900039280008D801002008B50021082004F0D9
:102BA0000FFA08BDF0B587B00446002505954FF033
:102BB000B043DA6C42F00202DA64DB6C03F0020329
:102BC0000093009B0B4B33F8107001970123029385
:102BD000039502230493084E01A956F8200001F042
:102BE00029F92A46394656F8240001F0E7F907B0DA
:102BF000F0BD00BF949100082C00002008B5012210
:102C0000044B33F81010044B53F8200001F0D6F9B0
:102C100008BD00BF949100082C00002008B50022D8
:102C2000044B33F81010044B53F8200001F0C6F9A0
:102C300008BD00BF949100082C00002070B588B03A
:102C40000C460023039304930593069307930546CC
:102C500078B94FF0B043DA6C42F00402DA64DB6C0E
:102C600003F004030093009BFCB1012C31D008B0A9
:102C700070BD01280DD00228F6D14FF0B043DA6CB8
:102C800042F00802DA64DB6C03F008030293029B53
:102C9000EAE74FF0B043DA6C42F00802DA64DB6C2A
:102CA00003F008030193019BDEE7174B33F815305F
:102CB000039300230493012605960223069303A998
:102CC000124B53F8250001F0B5F83046FDF7A2FE8F
:102CD000CBE70D4B33F815300393012305934FF4E5
:102CE0000413049303A9094B53F8250001F0A2F83B
:102CF000074B5C5700220F21204601F0B7FB20460E
:102D000001F0E8FBB3E700BF8C9100082000002031
:102D100088910008704770470023052B0AD800EB04
:102D20008302054951609A1D00EB820203495160FC
:102D30000133F2E7704700BF152D0008172D00087A
:102D4000002303604FF03F1343603F2383607047CD
:102D5000C0B138B5044690F8383083B10A4D2846E2
:102D6000FFF7EEFF2B6843F001132B602046FFF7BF
:102D7000D3FF00206063012384F8383038BDFEF7AC
:102D80001FF8EBE701207047000C00587047000067
:102D900008B5054BD8681A6822EA00021A60586024
:102DA000FFF7F4FF08BD00BF00150058F0B58DB067
:102DB00005460F462A4C94E80F000CAE06E90F00BA
:102DC00005AB04F1100207CA83E8070001AE1C340A
:102DD00094E80F0086E80F00B7F5007F1BD00023B2
:102DE000022B22D80CAA02EB830252F81C2CAA4216
:102DF00015D20133F4E70133032B0ED80CAA02EBF2
:102E0000830252F8102CAA42F5D30CAA02EB8303DA
:102E100053F82C5C0AE00023EEE7002506E00CAA3C
:102E200002EB830353F82C5C00E000250D4A136885
:102E300023F007032B43136001F0E8FB0446094B22
:102E40001B6803F00703AB4206D001F0DFFB001B59
:102E50000228F4D9032000E000200DB0F0BD00BF2F
:102E6000C88300080040005810B5B02816D90E4B92
:102E7000DC6A4FF0B043D3F8083103F00F030B4A7C
:102E800052F82300B4FBF0F401F0CEFA01460848F2
:102E9000A0FB0430800CFFF789FF10BDC0F30310C6
:102EA000014B53F82040E4E724920008C491000845
:102EB00083DE1B434FF0B0439B6813F00C030DD12E
:102EC0004FF0B0431B6803F0F003B02B04D81B098C
:102ED000254A52F823007047B023F8E7042B3ED070
:102EE000082B10D04FF0B043DB6803F00303022B34
:102EF0001FD0032B0FD14FF0B0431B6813F4801F7A
:102F00002BD11A4B16E04FF0B0431B6813F4801F0F
:102F100027D0174870474FF0B0431B6803F0F00309
:102F2000B02B04D81B09104A52F8233002E0B0231A
:102F3000F8E70F4B4FF0B042D068C0F3062000FB1B
:102F400003F0D368C3F302130133B0FBF3F0D3688B
:102F50005B0F0133B0FBF3F07047054BEAE7044821
:102F600070470248704700BF249200080048E801FB
:102F70000024F40008B5FFF79DFF4FF0B0439B68B5
:102F8000C3F30313024A52F82330B0FBF3F008BD39
:102F9000C4910008002800F07E8338B50446036819
:102FA00013F0200F7FD04FF0B0429368D26802F048
:102FB000030213F00C031DD00C2B19D0E369002B76
:102FC00000F09E804FF0B042136843F0010313609D
:102FD00001F01CFB05464FF0B0431B6813F0020FD5
:102FE00052D101F013FB401B0228F4D903205DE30A
:102FF000012AE3D14FF0B0431B6813F0020F03D056
:10300000E369002B00F04983606A4FF0B0431B680E
:1030100003F0F003B02B20D8984220D9FFF724FF0B
:10302000002840F03C83636A4FF0B042116821F001
:10303000F0010B431360216A536823F47F4343EA92
:1030400001235360FFF796FFC44B1860C44B186808
:1030500001F092FA38B3012028E3B023DCE74FF007
:10306000B042136823F0F00318431060216A5368DC
:1030700023F47F4343EA01235360606AFFF7F4FEC1
:103080000028DFD0012011E3636A4FF0B0421168DD
:1030900021F0F0010B431360216A536823F47F434E
:1030A00043EA01235360236813F0010F4AD04FF025
:1030B000B042936803F00C03D26802F00302082BBD
:1030C00036D00C2B32D06368B3F5803F63D04FF01D
:1030D000B042136823F4803313606368002B61D01F
:1030E00001F094FA05464FF0B0431B6813F4003F1B
:1030F00028D101F08BFA401B6428F4D90320D5E2D3
:103100004FF0B042136823F00103136001F07EFA20
:1031100005464FF0B0431B6813F0020FC3D001F017
:1031200075FA401B0228F4D90320BFE2032ACAD152
:103130004FF0B0431B6813F4003F03D06368002BCB
:1031400000F0AF82236813F0020F50D04FF0B0426E
:10315000936803F00C03D26802F00302042B33D00F
:103160000C2B2FD0E368002B77D04FF0B0421368C0
:1031700043F48073136001F049FA05464FF0B04301
:103180001B6813F4806F5ED101F040FA401B0228E7
:10319000F4D903208AE24FF0B042136843F480333D
:1031A00013609AE701F032FA05464FF0B0431B680E
:1031B00013F4003FC6D001F029FA401B6428F4D96B
:1031C000032073E2022ACDD14FF0B0431B6813F401
:1031D000806F03D0E368002B00F0658221694FF017
:1031E000B042536823F0FE4343EA0163536023680F
:1031F00013F0180F00F0E8806269002A00F0B28036
:1032000013F0100F7AD04FF0B043D3F8943013F08E
:10321000020F38D14FF0B042D2F8943043F001039E
:10322000C2F8943001F0F2F905464FF0B043D3F8FC
:10323000943013F0020F26D101F0E8F9401B022868
:10324000F3D9032032E221694FF0B042536823F0F2
:10325000FE4343EA01635360C9E74FF0B04213688D
:1032600023F48073136001F0D1F905464FF0B043A9
:103270001B6813F4806FBAD001F0C8F9401B022814
:10328000F4D9032012E24FF0B042D2F8943043F068
:103290000403C2F8943001F0B9F905464FF0B04389
:1032A000D3F8943013F0080F06D101F0AFF9401BAA
:1032B0000328F3D90320F9E1A1694FF0B042D2F815
:1032C000943023F4706343EA0123C2F89430D2F8B7
:1032D000943023F00103C2F8943001F097F90546C9
:1032E0004FF0B043D3F8943013F0020F6CD001F0DC
:1032F0008DF9401B0228F3D90320D7E14FF0B042EB
:10330000D2F8943043F00103C2F8943001F07EF912
:1033100005464FF0B043D3F8943013F0020F06D1B6
:1033200001F074F9401B0228F3D90320BEE14FF0ED
:10333000B042D2F8943023F00403C2F894304FF036
:10334000B043D3F8943013F0080F3DD001F05EF98C
:10335000401B0328F3D90320A8E100BF4000002050
:103360003C0000204FF0B042D2F8943023F0040328
:10337000C2F8943001F04AF905464FF0B043D3F853
:10338000943013F0080F18D14FF0B042D2F89430B7
:1033900023F00103C2F8943001F038F905464FF0EC
:1033A000B043D3F8943013F0020F0DD001F02EF992
:1033B000401B0228F3D9032078E101F027F9401BD4
:1033C0000328DAD9032071E1236813F0040F68D0D1
:1033D000B94B1B6813F4807F27D0A368012B35D02D
:1033E000052B3CD04FF0B043D3F8902022F00102DF
:1033F000C3F89020D3F8902022F00402C3F8902064
:10340000A368DBB301F002F905464FF0B043D3F8EF
:10341000903013F0020F44D101F0F8F8401B41F254
:1034200088339842F1D9032040E100F0F5FF01F024
:10343000EDF80546A04B1B6813F4807FCDD101F059
:10344000E5F8401B0228F5D903202FE14FF0B042E8
:10345000D2F8903043F00103C2F89030D0E74FF03B
:10346000B043D3F8902042F00402C3F89020D3F880
:10347000902042F00102C3F89020C1E701F0C6F8A5
:1034800005464FF0B043D3F8903013F0020F08D048
:1034900001F0BCF8401B41F288339842F1D9032077
:1034A00004E1236813F0400F33D0A36AC3B14FF097
:1034B000B042D2F8983043F00103C2F8983001F0DE
:1034C000A5F805464FF0B043D3F8983013F0020F3B
:1034D0001FD101F09BF8401B0228F3D90320E5E03F
:1034E0004FF0B042D2F8983023F00103C2F8983080
:1034F00001F08CF805464FF0B043D3F8983013F044
:10350000020F06D001F082F8401B0228F3D90320F5
:10351000CCE0E36A002B00F0C8804FF0B042916825
:1035200001F00C01D268022B23D00C2900F0C180DD
:103530004FF0B0431A6822F080721A60DA6822F005
:103540000302DA60DA6822F0885222F48032DA600C
:1035500001F05CF804464FF0B0431B6813F0007FA5
:1035600000F0978001F052F8001B0228F3D90320E5
:103570009CE002F00303206B83420AD00C2900F088
:1035800096804FF0B0431B6813F0806F22D001206B
:103590008CE002F07003606B8342EFD1C2F306232C
:1035A000A06B8342EAD102F47813E06B8342E5D149
:1035B00002F06063206C8342E0D102F06042636CF1
:1035C0009A42DBD14FF0B0431B6813F0007F44D028
:1035D00000206BE04FF0B042136823F0807313605B
:1035E00001F014F805464FF0B0431B6813F0007F5C
:1035F00006D001F00BF8401B0228F4D9032055E057
:103600004FF0B042D3682D491940236B606B0343E0
:10361000A06B43EA0023E06B0343206C0343606C20
:1036200003430B43D360136843F080731360D36884
:1036300043F08053D36000F0E9FF04464FF0B043FD
:103640001B6813F0007F06D100F0E0FF001B02288A
:10365000F4D903202AE0002028E04FF0B0431A6894
:1036600042F080721A60DA6842F08052DA6000F04C
:10367000CDFF04464FF0B0431B6813F0007F06D126
:1036800000F0C4FF031B022BF4D903200EE000203E
:103690000CE000200AE001207047012006E0012034
:1036A00004E0012002E0012000E0002038BD0120FC
:1036B000FCE70120FAE700BF000400588C80C1112C
:1036C000002800F0278170B50C460546934B1B6817
:1036D00003F007038B422DD32B6813F0020F3FD169
:1036E0002B6813F0200F53D12B6813F0400F6AD1D1
:1036F0002B6813F0040F40F083802B6813F0080F41
:1037000040F097802B6813F0010F00F0DE806B68AB
:10371000022B00F0A880032B00F0AD80002B40F0BE
:10372000B2804FF0B042126812F0020F40F0B18048
:103730000120EEE0794A136823F007030B4313607E
:1037400000F064FF0646754B1B6803F00703A342B5
:10375000C2D000F05BFF801B0228F4D90320D8E020
:10376000AB684FF0B0418A6822F0F00213438B60DF
:1037700000F04CFF06464FF0B0439B6813F4803FC7
:10378000AED100F043FF801B0228F4D90320C0E033
:103790006B694FF0B041D1F8082122F0F0021343D9
:1037A000C1F8083100F032FF06464FF0B043D3F8BD
:1037B000083113F4003F97D100F028FF801B022846
:1037C000F3D90320A5E0A9694FF0B042D2F808313F
:1037D00023F00F0343EA1113C2F8083100F016FF7B
:1037E00006464FF0B043D3F8083113F4803F7FF41E
:1037F0007FAF00F00BFF801B0228F2D9032088E086
:10380000EB684FF0B0418A6822F4E06213438B60AA
:1038100000F0FCFE06464FF0B0439B6813F4003FF7
:103820007FF46BAF00F0F2FE801B0228F3D9032077
:103830006FE029694FF0B042936823F4605343EA84
:10384000C103936000F0E2FE06464FF0B0439B6870
:1038500013F4802F7FF456AF00F0D8FE801B0228AF
:10386000F3D9032055E04FF0B042126812F4003F44
:103870000FD101204DE04FF0B042126812F0007FEE
:1038800007D1012045E04FF0B042126812F4806F7A
:1038900042D04FF0B0418A6822F0030213438B609C
:1038A00000F0B4FE06464FF0B0439B6803F00C03F3
:1038B0006A68B3EB820F08D000F0A8FE801B41F2CB
:1038C00088339842EFD9032023E0144B1B6803F0A0
:1038D0000703A34215D9114A136823F007032343B2
:1038E000136000F093FE05460C4B1B6803F00703C2
:1038F000A34206D000F08AFE401B0228F4D9032020
:1039000007E0FFF737FB064B186000F085FE00F07C
:1039100033FE70BD012070470120FAE700400058D7
:103920004000002008B5FFF725FB4FF0B0439B682F
:10393000C3F30223034A52F8233003F01F03D84095
:1039400008BD00BF0492000808B5FFF713FB4FF055
:10395000B0439B68C3F3C223034A52F8233003F0F9
:103960001F03D84008BD00BF0492000870B505468B
:103970004FF0B042136823F08063136000F046FEFE
:1039800004464FF0B0431B6813F0006F06D000F000
:103990003DFE001B0228F4D9032400E000240CB1F2
:1039A000204670BD4FF0B0431A6922F4FE422968E8
:1039B00042EA01221A611A6922F4781269680A43FC
:1039C0001A611A6842F080621A6000F01FFE064613
:1039D0004FF0B0431B6813F0006F05D100F016FEE6
:1039E000801B0228F4D90324002CD9D14FF0B04217
:1039F000136929690B431361D2E770B505464FF08F
:103A0000B042136823F08063136000F0FFFD0446AA
:103A10004FF0B0431B6813F0006F06D000F0F6FDC6
:103A2000001B0228F4D9032400E000240CB1204636
:103A300070BD4FF0B0431A6922F4FE42296842EA91
:103A400001221A611A6922F06062A9680A431A61A8
:103A50001A6842F080621A6000F0D8FD06464FF006
:103A6000B0431B6813F0006F05D100F0CFFD801B41
:103A70000228F4D90324002CD9D14FF0B0421369A5
:103A800029690B431361D2E770B505464FF0B04288
:103A9000136823F08063136000F0B8FD04464FF014
:103AA000B0431B6813F0006F06D000F0AFFD001BA1
:103AB0000228F4D9032400E000240CB1204670BD94
:103AC0004FF0B0431A6922F4FE42296842EA01220B
:103AD0001A611A6922F06042E9680A431A611A6899
:103AE00042F080621A6000F091FD06464FF0B0434C
:103AF0001B6813F0006F05D100F088FD801B0228C1
:103B0000F4D90324002CD9D14FF0B04213692969AC
:103B10000B431361D2E770B50446036813F0400FFE
:103B20002FD0036BB3F5800F21D00AD833B90430FE
:103B3000FFF71CFF064658B1054624E001252E4636
:103B400021E0B3F5000F1AD0B3F5400F0CD10026D9
:103B5000236B4FF0B041D1F8882022F44002134388
:103B6000C1F8883000250EE001252E460BE04FF00D
:103B7000B042D36843F48033D3600026E8E70026E0
:103B8000E6E700252E46236813F4006F0AD04FF0B5
:103B9000B043D3F8905005F44075236CAB4240F02D
:103BA000D5803546236813F0010F09D0A3694FF083
:103BB000B041D1F8882022F003021343C1F88830C5
:103BC000236813F0020F09D0E3694FF0B041D1F838
:103BD000882022F440621343C1F88830236813F030
:103BE000100F0CD0A06A4FF0B041D1F88830020C11
:103BF000120423EA020343EA0043C1F88830236831
:103C000013F0200F0CD0E06A4FF0B041D1F88830AB
:103C1000020C120423EA020343EA0043C1F888308D
:103C2000236813F0040F0FD0236A4FF0B040D0F890
:103C30008820190901F47F2122EA01021B0103F403
:103C40007F231343C0F88830236813F0080F0FD088
:103C5000636A4FF0B040D0F88820190901F47F2141
:103C600022EA01021B0103F47F231343C0F88830CA
:103C7000236813F4807F13D0636B4FF0B041D1F809
:103C8000882022F040621343C1F88830636BB3F19F
:103C9000006F00F09C80636BB3F1806F00F09C803C
:103CA000236813F4007F17D0A36BB3F1804F05D0C6
:103CB000B3F1004F02D0002B40F096804FF0B0419E
:103CC000D1F8882022F040421343C1F88830A36B1A
:103CD000B3F1C05F00F09A80236813F4806F13D0B3
:103CE000E36B4FF0B041D1F8882022F040521343EB
:103CF000C1F88830E36BB3F1005F00F08E80E36BB6
:103D0000B3F1805F00F08E80236813F4805F09D0E8
:103D1000636C4FF0B041D1F8942022F44042134339
:103D2000C1F89430236813F4005F0DD0E26C4FF0BB
:103D3000B043596A21F030010A435A62A26C596AB1
:103D400021F003010A435A62284670BD00F064FB6B
:103D50005DB9236C4FF0B041D1F8902022F440724D
:103D60001343C1F8903035461CE74FF0B043D3F809
:103D70009020D3F8901041F48031C3F89010D3F81C
:103D8000901021F48031C3F8901022F44072216C1D
:103D90000A43C3F89020D3F8903013F0010F12D0EB
:103DA00000F034FC05464FF0B043D3F8903013F0E8
:103DB000020F0AD100F02AFC401B41F288339842DE
:103DC000F1D90325EEE63546ECE63546EAE6CB6862
:103DD00043F08073CB605EE7201DFFF70EFE0028E6
:103DE0003FF45EAF05465BE723F080534FF0B042EF
:103DF000D2F8881021F04041C2F88810D2F888101B
:103E000021F040610B43C2F8883060E74FF0B042C8
:103E1000D36843F08073D3605EE7CB6843F48033AC
:103E2000CB606CE7201DFFF72FFE00283FF46CAF3E
:103E3000054669E7F0B400235FE086685F0003256C
:103E4000BD4026EA0506CD68BD403543856046681D
:103E500026EA04064D68C5F300149C4034434460D0
:103E600059E0DD08083550F8257003F00704A60076
:103E70000F24B44027EA04070C69B4403C4340F8DF
:103E800025405CE0042400E00024B4403C430235BB
:103E9000474E46F82540474C2568D44325EA02069C
:103EA0004F6817F4801F01D042EA0506414D2E608D
:103EB0006D6804EA05064F6817F4001F01D042EA56
:103EC00005063C4D6E60D5F8805004EA05064F6843
:103ED00017F4803F01D042EA0506364DC5F88060F0
:103EE000D5F884502C404E6816F4003F01D042EAC9
:103EF0000504304AC2F8844001330A6832FA03F4F8
:103F000054D001249C402240F6D04D6805F00305B2
:103F1000013D012D91D94C6804F00304032C09D014
:103F2000C5685E000324B44025EA04058C68B440EB
:103F30002C43C4604C6804F00304022C91D0056843
:103F40005E000324B44025EA04054C6804F0030431
:103F5000B4402C4304604C6814F4403FCCD09D081E
:103F6000AE1C134C54F8267003F00304A6000F2473
:103F7000B44027EA0407B0F1904F85D00E4CA04220
:103F80000ED004F58064A0420CD004F58064A042F9
:103F90000AD004F58064A0423FF474AF072474E7AC
:103FA000012472E7022470E703246EE7F0BC704737
:103FB0000000014000080058000400480AB1816177
:103FC000704781627047000008B5054BDB6803420B
:103FD00000D108BD024BD860FCF755FDF9E700BFE2
:103FE0000008005870B4C46C056D6560446D14B170
:103FF000846DC56D6560446C04F01C05066C01247D
:10400000AC407460046863608368102B05D003685B
:1040100099600368DA6070BC704703689A6003684F
:10402000D960F8E70368104A934215D8426C22F031
:10403000030202F1804202F502328264DBB2083BE5
:104040000A4AA2FB03230A4AC264C3F304130122EF
:1040500002FA03F303657047426C22F00301054A3C
:104060000A448264EAE700BF07040240CDCCCCCC0E
:10407000800802401C080240436803F03F03074ADF
:104080001A4492004265064A8265013B03F003032D
:10409000012202FA03F3C365704700BF3F8200109C
:1040A0004009024000285DD010B5044601682E4B3F
:1040B00099423FD82D4B0B442D4AA2FB03231B09E9
:1040C0009B0043642B4B0364022384F825300A6869
:1040D00022F4FF4222F07002A368E06803432069E3
:1040E000034360690343A0690343E0690343206A13
:1040F000034313430B602046FFF794FFA368B3F517
:10410000804F22D06368A26C03F03F031360E36C1E
:10411000226D5A606368013B032B19D90023636544
:10412000A365E3650020E063012384F8253084F86B
:10413000240010BD104B0B440D4AA2FB03231B09A6
:104140009B0043640D4B0364BEE700236360D9E723
:104150002046FFF791FF636D00221A60A36DE26DA8
:104160005A60DFE70120704707040240F8FFFDBFF7
:10417000CDCCCCCC00000240F8FBFDBF00040240D7
:1041800038B5044690F82400012841D0012084F875
:10419000240094F82500C0B2012804D0002384F83C
:1041A0002430022038BD022084F825000020E0637E
:1041B0002568286820F0010028602046FFF712FFDC
:1041C000236BD3B12268136843F00E031360A36C12
:1041D0001A6812F4803F03D01A6842F480721A60A1
:1041E000636D1BB11A6842F480721A60226813680A
:1041F00043F0010313600020D4E72268136823F022
:10420000040313602268136843F00A031360DEE7B7
:104210000220C7E70346002834D090F82520D2B208
:10422000022A06D00422C263002280F82420012042
:10423000704701680A6822F00E020A60816C0A6801
:1042400022F480720A6001680A6822F001020A60A2
:10425000426C02F01C01006C01228A404260DA6C60
:10426000196D51605A6D32B1116821F4807111607D
:104270009A6DD96D5160012283F82520002083F8C2
:10428000240070470120704708B590F82530DBB254
:10429000022B03D00423C363012008BD0268136806
:1042A00023F00E0313600268136823F00103136008
:1042B000826C136823F480731360436C03F01C0258
:1042C000016C012393404B60C36C026D5A60436DD7
:1042D00033B11A6822F480721A60836DC26D5A601D
:1042E000012380F82530002380F82430836B13B13C
:1042F00098470020D1E70020CFE738B5036C196854
:1043000004682568436C03F01C0304229A400A42A7
:1043100015D015F0040F12D0236813F0200F03D12D
:10432000236823F004032360436C03F01C02016C38
:10433000042393404B60036B03B1984738BD0222BE
:104340009A400A421CD015F0020F19D0236813F0CE
:10435000200F06D1236823F00A032360012380F88D
:104360002530436C03F01C02016C022393404B6028
:10437000002380F82430C36A002BDFD09847DDE7A4
:10438000082202FA03F30B42D8D015F0080FD5D05B
:10439000236823F00E032360436C03F01C03016CBD
:1043A000012202FA03F34B60C26380F82520002348
:1043B00080F82430436B002BC0D09847BEE7000044
:1043C00090F82530DBB2012B20D190F82430012B5E
:1043D0001ED030B4012380F82430856C2B680D4A40
:1043E0001A400B68CC68013C43EAC4434C68234341
:1043F0000C7A43EA0443497A43EA412313432B608E
:10440000002380F82430184630BC704701207047E4
:1044100002207047FFFD00E0024A136843F48073F6
:104420001360704700040058024B186800F4C06025
:10443000704700BF00040058024A536843F4806389
:104440005360704700040058074AD36823F4E063C0
:104450001B041B0C000200F4E060034343F0BF6345
:1044600043F40033D360704700ED00E030B4174BE5
:10447000DB68C3F30223C3F10704042C28BF042420
:104480001D1D062D18D9033B4FF0FF3505FA04F426
:1044900021EA0401994005FA03F322EA03031943D0
:1044A00000280BDB0901C9B200F1604000F5614052
:1044B00080F8001330BC70470023E5E700F00F00E0
:1044C0000901C9B2024B1954F4E700BF00ED00E046
:1044D00014ED00E0002807DB00F01F024009012373
:1044E0009340024A42F82030704700BF00E100E0EC
:1044F00000280CDB00F01F0240090123934020300C
:10450000034A42F82030BFF34F8FBFF36F8F7047DD
:1045100000E100E00138B0F1807F0AD2064B58601C
:10452000064AF02182F823100020986007221A60C2
:1045300070470120704700BF10E000E000ED00E090
:10454000002808DB00F01F0240090123934040309F
:10455000014A42F82030704700E100E0002808DB03
:1045600000F01F024009012393406030014A42F8E5
:104570002030704700E100E0114B1B780BB901209F
:10458000704710B50446FEF7F5FC0D4B1A784FF452
:104590007A73B3FBF2F3B0FBF3F0FFF7BBFF68B93C
:1045A0000F2C01D901200AE0002221464FF0FF30F4
:1045B000FFF75CFF034B1C60002000E0012010BDF2
:1045C000380000203C00002010B5094A136843F46D
:1045D000807313600320FFF737FF0020FFF7CCFF45
:1045E00010B10124204610BD0446FCF7D0FBF9E7CA
:1045F00000400058034B1B78034A11680B441360BA
:10460000704700BF38000020FC150020014B1868DF
:10461000704700BFFC150020014B1868704700BFB1
:104620003C000020014B1878704700BF3800002084
:10463000024A536843F0010353607047002004E0CE
:10464000024A536843F0020353607047002004E0BD
:10465000026852E8003F23F0C00342E8003100291D
:10466000F6D1026802F1080353E8003F23F4000387
:10467000083242E800310029F3D12023C0F8843009
:104680007047026852E8003F23F4907342E800311B
:104690000029F6D1026802F1080353E8003F23F035
:1046A000805323F00103083242E800310029F1D1A0
:1046B000C36E012B06D02023C0F888300023C366C8
:1046C00003677047026852E8003F23F0100342E896
:1046D00000310029F6D1EEE7D0F88430202B4CD100
:1046E00010B5044600294AD0002A4AD090F88030FC
:1046F000012B48D0012380F880300165A0F85420B8
:10470000A0F856200023C0F88C302123C0F8843054
:10471000836FF3B11D49D962836F1D491963836F9C
:104720001C495963836F002199630168134601F1A5
:104730002802016D806FFFF723FD50B11023C4F8EC
:104740008C30002384F880302023C4F8843001208A
:1047500012E0236840221A62002384F88030226825
:1047600002F1080353E8003F43F08003083242E8B7
:1047700000310029F3D1002010BD02207047012034
:10478000FAE70120F8E70220F6E700BF99470008A2
:10479000074800081348000808B50346806A1B68EC
:1047A0001B6813F0200F18D10023A0F856300268C0
:1047B00002F1080353E8003F23F08003083242E887
:1047C00000310029F3D1026852E8003F43F0400372
:1047D00042E800310029F6D108BDFDF767F9FBE793
:1047E00008B5026852E8003F23F0400342E8003178
:1047F0000029F6D12023C0F8843000234367FDF759
:1048000055F908BD704708B5806AFFF7FBFF08BD82
:10481000704738B5846AD4F88420D4F88850236867
:104820009B6813F0800F01D0212A10D023689B6869
:1048300013F0400F01D0222D10D0D4F88C3043F06B
:104840001003C4F88C302046FFF7E2FF38BD002388
:10485000A4F856302046FFF7FBFEE7E70023A4F854
:104860005E302046FFF70DFFE7E708B5806A0023BA
:10487000A0F85E30A0F85630FFF7CAFF08BD7047B9
:1048800070B504460168CB6908688D6840F60F0270
:104890001A4008D113F0200F05D010F0200F34D1AA
:1048A00015F0805F31D12AB1BD4A2A4033D1BD4EC7
:1048B000304230D1E26E012A00F0C38013F4801F31
:1048C00003D015F4800F40F0558113F0800F07D00E
:1048D00010F0800F40F0558115F4000F40F0518129
:1048E00013F0400F03D010F0400F40F0518113F44B
:1048F000000F03D010F0804F40F04E8113F0807F06
:1049000002D00028C0F2528170BD236F002BFBD073
:1049100020469847F8E713F0010F09D010F4807F84
:1049200006D001260E62D4F88C103143C4F88C10E6
:1049300013F0020F0BD015F0010F08D021680226EA
:104940000E62D4F88C1041F00401C4F88C1013F0FE
:10495000040F0BD015F0010F08D0216804260E6259
:10496000D4F88C1041F00201C4F88C1013F0080F39
:104970000BD010F0200F00D13AB12268082111624B
:10498000D4F88C200A43C4F88C2013F4006F0CD0A8
:1049900010F0806F09D022684FF400611162D4F8E2
:1049A0008C2042F02002C4F88C20D4F88C20002AFD
:1049B000AAD013F0200F09D010F0200F02D115F06B
:1049C000805F03D0236F0BB120469847D4F88C202A
:1049D00023689B6813F0400F02D112F0280F29D0F2
:1049E0002046FFF74EFE23689B6813F0400F1DD052
:1049F000226802F1080353E8003F23F04003083225
:104A000042E800310029F3D1E36F5BB1664A9A6353
:104A1000E06FFFF739FC00283FF476AFE06F836B5F
:104A2000984771E72046FFF7F3FE6DE72046FFF752
:104A3000EFFE69E72046FFF7EBFE0023C4F88C3059
:104A400062E713F0100F3FF439AF10F0100F3FF48E
:104A500035AF10230B6223689B6813F0400F4FD0D3
:104A6000E26F13685B689BB2002B3FF44DAFB4F864
:104A70005C1099427FF648AFA4F85E3013681B685B
:104A800013F0200F31D1226852E8003F23F48073E5
:104A900042E800310029F6D1226802F1080353E808
:104AA000003F23F00103083242E800310029F3D12E
:104AB000226802F1080353E8003F23F04003083264
:104AC00042E800310029F3D12023C4F888300023C4
:104AD000E366226852E8003F23F0100342E8003109
:104AE0000029F6D1E06FFFF795FBB4F85C10B4F83D
:104AF0005E309BB2C91A89B22046FFF7C0FE03E7B9
:104B0000B4F85C10B4F85E309BB2C91A89B2B4F83C
:104B10005E309BB2002B3FF4F7AE00293FF4F4AEB9
:104B2000226852E8003F23F4907342E800300028E6
:104B3000F6D1226802F1080353E8003F23F08053C6
:104B400023F00103083242E800300028F1D120238D
:104B5000C4F888300023E3662367226852E8003FE8
:104B600023F0100342E800300028F6D12046FFF77A
:104B700086FEC9E64FF480130B62204600F0B6FAB9
:104B8000C2E6636F002B3FF4BFAE20469847BBE6FA
:104B90002046FFF725FEB7E6204600F0A9FAB3E667
:104BA00001000010200100046B480008204600F0BE
:104BB0009EFAA9E62DE9F04104460168836802697E
:104BC000134342691343C269134308688F4A024082
:104BD00013430B602268536823F44053E1680B438E
:104BE0005360A16922688A4B9A4201D0236A194313
:104BF000936823F06E4323F430630B439360226881
:104C0000D36A23F00F03616A0B43D3622268814B9E
:104C10009A4219D07E4B9A422AD010237C498A426C
:104C200045D0E069B0F5004F00F08280013B072BD2
:104C300000F2E680DFE813F0AC00AA00E400CE004A
:104C4000E400E400E400D1004FF0B043D3F8883032
:104C500003F00303032B09D8DFE803F002041F0667
:104C60000123DBE70423D9E70823D7E71023D5E79F
:104C70004FF0B043D3F8883003F44063B3F5006FCE
:104C80000DD005D86BB1B3F5806F0CD10423C5E707
:104C9000B3F5406F09D10823C0E70223BEE7022322
:104CA000BCE70023BAE71023B8E71023B6E7082BC8
:104CB00000F29680DFE803F008943A9437949494D5
:104CC00005004FF4004004E0FEF72CFE002800F041
:104CD0008980626A504B33F81220B0FBF2F36568AA
:104CE00005EB450199427FD8B3EB053F7ED84FF0E5
:104CF000000892B200234146FBF792FA0F0247EAFE
:104D00001067060268082A464346301847F100013A
:104D1000FBF786FAA0F54072404B9A4268D82368A8
:104D2000D86040464CE0FEF7C5F8CFE73C48D0E7F6
:104D3000013B072B5ED8DFE803F006045D265D5DCE
:104D40005D0A374803E0FEF7FFFD002854D0626A91
:104D5000314B33F81230B0FBF3F06268530803EBC9
:104D60004000B0FBF2F080B2A0F110024FF6EF73FA
:104D70009A4243D820F00F03C0F34200184323683F
:104D8000D86000201CE0FEF795F8DEE7244802E03A
:104D9000FEF7DAFDB0B3626A1F4B33F81230B0FB96
:104DA000F3F0636800EB5300B0FBF3F080B2A0F1C6
:104DB00010024FF6EF739A4226D82368D86000207D
:104DC0000123A4F86A30A4F86830002323676367DE
:104DD000BDE8F081FEF76EF8DCE74FF40040DAE75B
:104DE0000120EDE70020EBE70120E9E70120E7E7FC
:104DF0000120E5E70120E3E70020E1E70120DFE70C
:104E00000120DDE70020DBE70120D9E7F369FFCFD0
:104E100000800040003801409C910008FFFC0F001A
:104E20000024F400836A13F0010F06D0026853686F
:104E300023F40033C16A0B435360836A13F0020FFB
:104E400006D00268536823F48033016B0B43536030
:104E5000836A13F0040F06D00268536823F480239A
:104E6000416B0B435360836A13F0080F06D002684E
:104E7000536823F40043816B0B435360836A13F040
:104E8000100F06D00268936823F48053C16B0B4364
:104E90009360836A13F0200F06D00268936823F4AE
:104EA0000053016C0B439360836A13F0400F0AD0E8
:104EB0000268536823F48013416C0B435360436CC6
:104EC000B3F5801F0BD0836A13F0800F06D0026801
:104ED000536823F40023C16C0B435360704702688E
:104EE000536823F4C003816C0B435360EBE72DE957
:104EF000F84305460F4616469946DDF820802C6893
:104F0000E46937EA04030CBF01240024B44257D1FA
:104F1000B8F1FF3FF3D0FFF779FBA0EB0900404564
:104F20002FD8B8F1000F2CD02B681A6812F0040F9C
:104F3000E5D0DA6912F4006FE1D04FF400621A6232
:104F40002A6852E8003F23F4D07342E80031002978
:104F5000F6D12A6802F1080353E8003F23F0010369
:104F6000083242E800310029F3D12023C5F884300B
:104F7000C5F88830C5F88C30002385F880300320D0
:104F80001FE02A6852E8003F23F4D07342E8003162
:104F90000029F6D12A6802F1080353E8003F23F004
:104FA0000103083242E800310029F3D12023C5F87B
:104FB0008430C5F88830002385F88030032000E075
:104FC0000020BDE8F88330B583B004460023C0F864
:104FD0008C30FFF71BFB054623681B6813F0080F96
:104FE0000FD123681B6813F0040F18D12023C4F8D5
:104FF0008430C4F888300020E06684F8800003B074
:1050000030BD6FF07E430093034600224FF4001141
:105010002046FFF76CFF0028E3D00320EFE76FF096
:105020007E4300932B4600224FF480012046FFF779
:105030005EFF0028DAD00320E1E778B310B504461C
:10504000D0F884300BB32423C4F88430226813686A
:1050500023F0010313602046FFF7ACFD012813D0B5
:10506000A36ABBB92268536823F490435360226853
:10507000936823F02A0393602268136843F00103C6
:1050800013602046FFF79FFF10BD80F88030FBF7CC
:10509000BFFED8E72046FFF7C5FEE3E701207047D3
:1050A000436E2BB90123A0F86A30A0F8683070472E
:1050B00030B403689A68C2F342629968490F094D97
:1050C0006B5CDB00084C615C93FBF1F3A0F86A3089
:1050D000AB5CDB00A25C93FBF2F3A0F8683030BC61
:1050E000704700BFBC910008B4910008704770473A
:1050F000704790F88030012B18D0012380F8803061
:105100002423C0F8843003681A68196821F001016B
:10511000196022F000520023436601680A602022D1
:10512000C0F8842080F8803018467047022070470D
:1051300038B590F88030012B1DD00446012380F84B
:1051400080302423C0F8843003681D681A6822F078
:1051500001021A600268936823F06043194391606A
:10516000FFF79EFF23681D602023C4F884300020D1
:1051700084F8800038BD0220FCE738B590F8803014
:10518000012B1DD00446012380F880302423C0F871
:10519000843003681D681A6822F001021A600268F0
:1051A000936823F0606319439160FFF779FF2368E8
:1051B0001D602023C4F88430002084F8800038BDAE
:1051C0000220FCE7D0B110B50446437A93B1022324
:1051D00063722268136823F0200361680B43136035
:1051E0002268136843F004031360012363720020F4
:1051F000E06010BD0372FBF7E1FEE8E701207047B5
:1052000038B504460268D36823F0A003D360FFF7E3
:10521000FDF905462368DB6813F0200F07D1FFF77F
:10522000F5F9401BB0F57A7FF4D9032000E00020A7
:1052300038BD38B50368DA6812F0400F01D000209D
:1052400038BD04464FF0FF32DA60FFF7DFF905465C
:105250002368DB6813F0400F07D1FFF7D7F9431B32
:10526000B3F57A7FF4D90320EAE70020E8E738B500
:10527000002867D0044690F82130002B45D0022347
:1052800084F821302368CA225A62236853225A6262
:105290002046FFF7CEFF054600283BD122689368E1
:1052A00023F4E00323F04003936021688A68636875
:1052B00020690343A069034313438B602368E268BA
:1052C0001A6122681369A16843EA014313612268E5
:1052D000D36823F08003D3602268D36C23F00303E8
:1052E000D3642168CB6CE269606902431343CB64E9
:1052F00023689B6813F0200F14D02368FF225A62A2
:10530000012384F82130284638BD80F82030FBF78F
:105310007FFEB4E72368FF225A62042384F8213019
:105320000125F0E72046FFF76BFF0028E5D0236852
:10533000FF225A62042384F82130002384F82030AD
:105340000125E0E70125DEE7F8B590F82030012BD4
:1053500077D004460E461546012380F820300223FC
:1053600080F821300368CA225A62036853225A62C5
:1053700003689B6813F4806F17D0FFF747F907465F
:105380002368DB6813F0040F0FD0FFF73FF9C01B51
:10539000B0F57A7FF4D92368FF225A62032084F89B
:1053A0002100002384F820304AE02268936823F427
:1053B000806393602268D368DBB263F49063D36048
:1053C000FFF724F907462368DA6812F0040F0FD1BB
:1053D000FFF71CF9C01BB0F57A7FF4D92368FF22D0
:1053E0005A62032084F82100002384F8203027E04B
:1053F0005E612268936823F00703936022689368D4
:105400001D439560104BD3F8802042F40022C3F86E
:1054100080201A6842F400221A602268936843F4DC
:10542000804393602268936843F4806393602368A9
:10543000FF225A62012384F82130002084F82000E2
:10544000F8BD0220FCE700BF0008005890F82030AB
:10545000012B1AD0012280F82020022380F821306D
:105460000368CA21596203685321596201688B6835
:1054700043F020038B600368FF21596280F82120EC
:10548000002380F820301846704702207047000043
:10549000164B00219960D3F8882042F47002C3F8BB
:1054A00088204FF0B0431A6842F001021A604FF4AE
:1054B000E0229A601868A2F1A262A2F205120240EC
:1054C0001A60D3F8942022F00502C3F89420D3F890
:1054D000982022F00102C3F89820054ADA601A6188
:1054E0001A6822F480221A609961704700ED00E08A
:1054F0000010042200B583B0084800F036FA50B915
:1055000001A9064800F061FA054B1B690199186969
:1055100000F043FAF0E703B05DF804FB5C02002002
:105520000000032008B5FCF7EDFA08BD08B5104AE5
:10553000104B136003F12001516003F130019160C1
:1055400003F13C01116203F14401516203F14C018A
:10555000D16003F15401116103F17001516103F154
:10556000740191618033D361FCF7F4FA08BD00BF88
:10557000000003203401032038B504460B4D2846B3
:1055800000F0F0F90A4B5B68A2681A60E268DA6022
:10559000084A5A609D60FCF7FFFA2268064B1A60C1
:1055A0006268064B1A60002038BD00BFC0010320AE
:1055B00000000320480A0320580200205402002063
:1055C00008B5054B5A681268012111725B68FCF737
:1055D000EBFA002008BD00BF0000032000B583B037
:1055E000074800F0C2F940B901A9054800F0EDF9FB
:1055F000044B1B6801989847F2E703B05DF804FB81
:10560000C00103205802002008B5024B1B689847D0
:1056100008BD00BF5402002038B50446094D284695
:1056200000F0A0F9084BDB68A2681A605D60FCF727
:10563000D9FA2268054B1A606268054B1A6000208F
:1056400038BD00BFC8010320000003206402002011
:105650006802002008B5054BDA6812681021117243
:10566000DB68FCF7C7FA002008BD00BF000003207C
:1056700008B5044BDA68DA68034B1B681068984772
:1056800008BD00BF000003206402002000B583B005
:10569000074800F06AF940B901A9054800F095F9FA
:1056A000044B1B6801989847F2E703B05DF804FBD0
:1056B000C80103206802002038B504460B4D284677
:1056C00000F050F90A4800F04DF90A4B1B69A26836
:1056D0009A60E268DA601D6122681A6062685A6046
:1056E00022695A6162699A6138BD00BFD001032006
:1056F0005C0200200000032008B50146034800F0CA
:105700004CF90348FCF7C4FA08BD00BF5C02002056
:10571000F554000810B5054C204600F023F9044B61
:105720005B691C60FCF7CCFA10BD00BFD8010320F8
:10573000000003207047000000B583B0074800F068
:1057400014F938B901A9054800F03FF90198FFF7AD
:10575000F1FFF3E703B05DF804FB00BFD8010320BD
:1057600000B585B06B4600F10C0225214FF666406E
:1057700001F050FB9DF80E0005B05DF804FB00B58C
:1057800085B06B4600F10C020F214FF6684001F026
:1057900041FB9DF80E0005B05DF804FB00B585B037
:1057A00002466B460E214FF6754001F033FB9DF823
:1057B0000E0005B05DF804FB70B41D4BDB6BC3F34A
:1057C0000D039B0003F1005303F540331A68116881
:1057D000184B994226D013695469956951689268AB
:1057E0001E0E06701E0C46701E0A8670C3F303164A
:1057F000C67003F00F030371230E4371230C8371F2
:10580000230AC371047245720B0E83720B0CC372B0
:10581000090A0173130E4373130C8373C2730020C0
:1058200070BC704753699469D569D1681269D7E72C
:1058300000400058B95646A930B583B0EFF3108543
:1058400072B60D4C0DF10601204600F0FEF90DF187
:105850000601204600F067FA40B185F31088074A38
:10586000BDF80610FBF7E8FC03B030BD044B012285
:105870001A7085F31088F7E76C0200203958000889
:105880004400002010B504465C2101F0D5FD08B1AC
:10589000013010BD2F21204601F0CEFD08B10130AE
:1058A000F7E72046F5E7000000B583B0FBF7C0FC42
:1058B0000223009300234FF480520349034800F071
:1058C00090F803B05DF804FB8C0200206C0200200D
:1058D000F8B5EFF31085B0F1FF3F20D01446013842
:1058E00001281ED80AB910461AE072B696B20123F2
:1058F00032460D4800F08EF810B10C4B1B781BB9E6
:1059000085F3108820460BE0084B00221A7085F3BF
:105910001088074A3146FBF78FFC204600E0002044
:10592000F8BD4FF0FF30FBE76C0200204400002080
:105930003958000808B5FFF7CBFF08BD01460748F6
:10594000C3798B4204D0064A904201D00838F7E769
:105950008B4200D170470020FCE700BFF873FF1FA7
:105960000070FF1F006040607047EFF3108372B655
:105970000268824203D0002083F310887047012020
:10598000FAE7EFF3108372B602680A6048600160BC
:105990000A68516083F310887047EFF3108372B682
:1059A000086042684A6041604A68116083F3108869
:1059B0007047EFF3108372B64268016811600268A5
:1059C0004168516083F31088704710B5EFF310847D
:1059D00072B603680B600068FFF7EBFF84F3108872
:1059E00010BD10B49DF8044001600021C160016148
:1059F0004161816142600381047714F0020F02D09B
:105A00002BB9084600E000205DF8044B70474FF0CA
:105A1000FF30F9E72DE9F04F85B0044602919A4630
:105A20000689C6B94FF0020B6169B9B116BB25688A
:105A3000236915F80380581C6768B84201D3DB1B43
:105A4000581C2B5C08EB03281FFA88F808F10208A1
:105A50001FFA88F804E04FF0000BE5E74FF000086C
:105A600006B916462269E3689A4205D36368424440
:105A70009A1A02E0B046F3E7002206EB0B000AFB9D
:105A800000F5954205D3B2FBF0F300FB1323DBB224
:105A900000E000239B4505D2227F12F0010F16D0B3
:105AA0009AB200E000229B4505D2237F13F0020F3B
:105AB00001D01FFA8BF2002E00F0C380294411445C
:105AC0006368994205D8002301931F461DE0002218
:105AD000E9E70020B2E020682A46029907FB091195
