:020000040800F2
:1000000000000320459700086D2300086F230008B7
:100010007123000873230008752300080000000006
:10002000000000000000000000000000772300082E
:1000300079230008000000007B2300087D230008CE
:100040009997000899970008999700088523000858
:1000500099970008999700089997000899970008C0
:1000600099970008999700089997000899970008B0
:1000700099970008999700088D2300089997000820
:100080009997000899970008999700089997000890
:100090009997000899970008999700089997000880
:1000A0009997000899970008999700089997000870
:1000B0009D230008999700089997000899970008D0
:1000C0009997000899970008999700089997000850
:1000D000AD230008F12300089997000899970008BC
:1000E000999700080124000899970008999700083B
:1000F00011240008192400082124000899970008F9
:10010000999700089997000899970008999700080F
:1001100099970008999700089997000899970008FF
:1001200099970008999700082924000899970008D2
:0C0130009997000899970008999700081B
:1001400010B5054C237833B9044B13B10448AFF311
:1001500000800123237010BD48040020000000002F
:100160004CDD000808B5034B1BB103490348AFF34E
:10017000008008BD000000004C0400204CDD000899
:1001800010F8012B11F8013B012A28BF9A42F7D041
:10019000D01A7047034613F8012B002AFBD1181A16
:1001A000013870470000000000000000000000005F
:1001B00001F0FF01102A2BDB10F0070F08D010F818
:1001C000013B013A8B422DD010F0070F42B3F6D11C
:1001D000F0B441EA012141EA014122F007047FF035
:1001E00000070023F0E80256083C85EA010586EA8C
:1001F000010685FA47F5A3FA87F586FA47F6A5FAC8
:1002000087F68EB9EED1F0BC01F0FF0102F00702D3
:1002100032B110F8013B013A83EA010313B1F8D17E
:100220000020704701387047002D06BF354603385F
:10023000073815F0010F07D1013015F4807F02BF98
:10024000013015F4C03F0130F0BC0138704700BFE9
:1002500081F0004102E000BF83F0004330B54FEA77
:1002600041044FEA430594EA050F08BF90EA020FE4
:100270001FBF54EA000C55EA020C7FEA645C7FEA77
:10028000655C00F0E2804FEA5454D4EB5555B8BF9A
:100290006D420CDD2C4480EA020281EA030382EA0B
:1002A000000083EA010180EA020281EA0303362D9D
:1002B00088BF30BD11F0004F4FEA01314FF4801C70
:1002C0004CEA113102D0404261EB410113F0004F82
:1002D0004FEA03334CEA133302D0524263EB430339
:1002E00094EA050F00F0A780A4F10104D5F1200ED7
:1002F0000DDB02FA0EFC22FA05F2801841F1000132
:1003000003FA0EF2801843FA05F359410EE0A5F105
:1003100020050EF1200E012A03FA0EFC28BF4CF036
:10032000020C43FA05F3C01851EBE37101F00045EC
:1003300007D54FF0000EDCF1000C7EEB00006EEBF9
:100340000101B1F5801F1BD3B1F5001F0CD3490883
:100350005FEA30004FEA3C0C04F101044FEA4452DA
:1003600012F5800F80F09A80BCF1004F08BF5FEA61
:10037000500C50F1000041EB045141EA050130BD41
:100380005FEA4C0C404141EB0101013C28BFB1F553
:10039000801FE9D291F0000F04BF01460020B1FA9E
:1003A00081F308BF2033A3F10B03B3F120020CDA71
:1003B0000C3208DD02F1140CC2F10C0201FA0CF04F
:1003C00021FA02F10CE002F11402D8BFC2F1200CB4
:1003D00001FA02F120FA0CFCDCBF41EA0C0190406A
:1003E000E41AA2BF01EB0451294330BD6FEA0404B3
:1003F0001F3C1CDA0C340EDC04F11404C4F120029E
:1004000020FA04F001FA02F340EA030021FA04F3AF
:1004100045EA030130BDC4F10C04C4F1200220FA06
:1004200002F001FA04F340EA0300294630BD21FA44
:1004300004F0294630BD94F0000F83F4801306BF0A
:1004400081F480110134013D4EE77FEA645C18BFFE
:100450007FEA655C29D094EA050F08BF90EA020F95
:1004600005D054EA000C04BF1946104630BD91EA8D
:10047000030F1EBF0021002030BD5FEA545C05D190
:100480004000494128BF41F0004130BD14F58004CF
:100490003CBF01F5801130BD01F0004545F0FE4143
:1004A00041F470014FF0000030BD7FEA645C1ABF78
:1004B000194610467FEA655C1CBF0B46024650EAAF
:1004C000013406BF52EA033591EA030F41F40021DB
:1004D00030BD00BF90F0000F04BF0021704730B561
:1004E0004FF4806404F132044FF000054FF0000136
:1004F00050E700BF90F0000F04BF0021704730B5F7
:100500004FF4806404F1320410F0004548BF4042CB
:100510004FF000013EE700BF42004FEAE2014FEA20
:1005200031014FEA02701FBF12F07F4393F07F4FFB
:1005300081F06051704732F07F4208BF704793F0FE
:100540007F4F04BF41F40021704730B54FF4607411
:1005500001F0004521F000411CE700BF50EA010214
:1005600008BF704730B54FF000050AE050EA0102BD
:1005700008BF704730B511F0004502D5404261EB2D
:1005800041014FF4806404F132045FEA915C3FF46E
:10059000D8AE4FF003025FEADC0C18BF03325FEA0B
:1005A000DC0C18BF033202EBDC02C2F1200300FABC
:1005B00003FC20FA02F001FA03FE40EA0E0021FAE1
:1005C00002F11444BDE600BF70B54FF0FF0C4CF4CF
:1005D000E06C1CEA11541DBF1CEA135594EA0C0F81
:1005E00095EA0C0F00F0DEF82C4481EA030621EABC
:1005F0004C5123EA4C5350EA013518BF52EA0335F7
:1006000041F4801143F4801338D0A0FB02CE4FF0A8
:100610000005E1FB02E506F00042E0FB03E54FF0D8
:100620000006E1FB03569CF0000F18BF4EF0010ED0
:10063000A4F1FF04B6F5007F64F5407404D25FEACC
:100640004E0E6D4146EB060642EAC62141EA55517F
:100650004FEAC52040EA5E504FEACE2EB4F1FD0CC1
:1006600088BFBCF5E06F1ED8BEF1004F08BF5FEA3F
:10067000500E50F1000041EB045170BD06F00046F1
:1006800046EA010140EA020081EA0301B4EB5C049E
:10069000C2BFD4EB0C0541EA045170BD41F4801196
:1006A0004FF0000E013C00F3AB8014F1360FDEBFBB
:1006B000002001F0004170BDC4F10004203C35DA97
:1006C0000C341BDC04F11404C4F1200500FA05F31A
:1006D00020FA04F001FA05F240EA020001F00042BB
:1006E00021F0004110EBD37021FA04F642EB060131
:1006F0005EEA430E08BF20EAD37070BDC4F10C045B
:10070000C4F1200500FA04F320FA05F001FA04F21E
:1007100040EA020001F0004110EBD37041F100010A
:100720005EEA430E08BF20EAD37070BDC4F1200515
:1007300000FA05F24EEA020E20FA04F301FA05F27D
:1007400043EA020321FA04F001F0004121FA04F225
:1007500020EA020000EBD3705EEA430E08BF20EAF5
:10076000D37070BD94F0000F0FD101F0004640002F
:1007700041EB010111F4801F08BF013CF7D041EAB1
:10078000060195F0000F18BF704703F000465200B5
:1007900043EB030313F4801F08BF013DF7D043EA86
:1007A0000603704794EA0C0F0CEA135518BF95EA3C
:1007B0000C0F0CD050EA410618BF52EA4306D1D1C3
:1007C00081EA030101F000414FF0000070BD50EAE2
:1007D000410606BF1046194652EA430619D094EA6C
:1007E0000C0F02D150EA013613D195EA0C0F05D156
:1007F00052EA03361CBF104619460AD181EA0301AA
:1008000001F0004141F0FE4141F470014FF0000061
:1008100070BD41F0FE4141F4780170BD70B54FF0FC
:10082000FF0C4CF4E06C1CEA11541DBF1CEA13557C
:1008300094EA0C0F95EA0C0F00F0A7F8A4EB05045E
:1008400081EA030E52EA03354FEA013100F0888055
:100850004FEA03334FF0805545EA131343EA12631E
:100860004FEA022245EA111545EA10654FEA0026D3
:100870000EF000419D4208BF964244F1FD0404F58C
:10088000407402D25B084FEA3202B61A65EB0305E8
:100890005B084FEA32024FF480104FF4002CB6EBA5
:1008A000020E75EB030E22BFB61A754640EA0C0025
:1008B0005B084FEA3202B6EB020E75EB030E22BF65
:1008C000B61A754640EA5C005B084FEA3202B6EBA6
:1008D000020E75EB030E22BFB61A754640EA9C0065
:1008E0005B084FEA3202B6EB020E75EB030E22BF35
:1008F000B61A754640EADC0055EA060E18D04FEAF3
:10090000051545EA16754FEA06164FEAC30343EA92
:1009100052734FEAC2025FEA1C1CC0D111F4801F5F
:100920000BD141EA00014FF000004FF0004CB6E758
:1009300011F4801F04BF01430020B4F1FD0C88BFF7
:10094000BCF5E06F3FF6AFAEB5EB030C04BFB6EB02
:10095000020C5FEA500C50F1000041EB045170BDF5
:100960000EF0004E4EEA113114EB5C04C2BFD4EB22
:100970000C0541EA045170BD41F480114FF0000EA6
:10098000013C90E645EA060E8DE60CEA135594EA22
:100990000C0F08BF95EA0C0F3FF43BAF94EA0C0F25
:1009A0000AD150EA01347FF434AF95EA0C0F7FF49A
:1009B00025AF104619462CE795EA0C0F06D152EAEE
:1009C00003353FF4FDAE1046194622E750EA4106D2
:1009D00018BF52EA43067FF4C5AE50EA41047FF4E3
:1009E0000DAF52EA43057FF4EBAE12E74FF0FF3C48
:1009F00006E000BF4FF0010C02E000BF4FF0010C19
:100A00004DF804CD4FEA410C7FEA6C5C4FEA430C91
:100A100018BF7FEA6C5C1BD001B050EA410C0CBFE0
:100A200052EA430C91EA030F02BF90EA020F002042
:100A3000704710F1000F91EA030F58BF994208BFA9
:100A400090422CBFD8176FEAE37040F00100704766
:100A50004FEA410C7FEA6C5C02D150EA013C07D1BD
:100A60004FEA430C7FEA6C5CD6D152EA033CD3D008
:100A70005DF8040B704700BF8446104662468C4602
:100A80001946634600E000BF01B5FFF7B7FF002835
:100A900048BF10F1000F01BD4DF808EDFFF7F4FF5E
:100AA0000CBF012000205DF808FB00BF4DF808EDE9
:100AB000FFF7EAFF34BF012000205DF808FB00BF0C
:100AC0004DF808EDFFF7E0FF94BF012000205DF82E
:100AD00008FB00BF4DF808EDFFF7CEFF94BF0120E3
:100AE00000205DF808FB00BF4DF808EDFFF7C4FFDC
:100AF00034BF012000205DF808FB00BF4FEA410C25
:100B00007FEA6C5C02D150EA013C0AD14FEA430C07
:100B10007FEA6C5C02D152EA033C02D14FF0000044
:100B200070474FF0010070474FEA410212F5001282
:100B300015D211D56FF47873B3EB625212D94FEA24
:100B4000C12343F0004343EA505311F0004F23FA0E
:100B500002F018BF404270474FF00000704750EA63
:100B6000013005D111F0004008BF6FF00040704720
:100B70004FF00000704700BF7BB972B90029BEBFBB
:100B800000204FF0004106E008BF00281CBF6FF0B6
:100B900000414FF0FF3000F0B9B9ADF1080C6DE93C
:100BA00004CE002909DB002B1ADB00F04DF8DDF83C
:100BB00004E0DDE9022304B07047404261EB4101EB
:100BC000002B1BDB00F040F8DDF804E0DDE9022338
:100BD00004B0404261EB4101524263EB4303704772
:100BE000524263EB430300F02FF8DDF804E0DDE947
:100BF000022304B0404261EB41017047524263EB73
:100C0000430300F021F8DDF804E0DDE9022304B03D
:100C1000524263EB4303704753B94AB9002908BFF6
:100C200000281CBF4FF0FF314FF0FF3000F06EB9CD
:100C3000ADF1080C6DE904CE00F006F8DDF804E033
:100C4000DDE9022304B070472DE9F047089D044612
:100C50008C46002B40F083808A42174647D9B2FA6F
:100C600082F242B1C2F1200024FA00F09140974094
:100C700040EA010C94404FEA1748230CBCFBF8F6FD
:100C80001FFA87FE08FB16C143EA014306FB0EF17B
:100C9000994209D9FB1806F1FF3080F01981994279
:100CA00040F21681023E3B445B1AA4B2B3FBF8F05B
:100CB00008FB103344EA034400FB0EFEA64509D9A5
:100CC0003C1900F1FF3380F00581A64540F2028116
:100CD00002383C4440EA0640A4EB0E0400261DB155
:100CE000D4400023C5E900433146BDE8F08702B98E
:100CF000FFDEB2FA82F2002A50D1CB1B4FEA174E28
:100D00001FFA87F80126B3FBFEFC210C0EFB1C33F7
:100D100041EA034108FB0CF38B4207D979180CF127
:100D2000FF3002D28B4200F2E9808446C91AA3B296
:100D3000B1FBFEF00EFB101143EA014408FB00F882
:100D4000A04507D93C1900F1FF3302D2A04500F2BB
:100D5000D9801846A4EB080440EA0C40BFE78B4258
:100D600009D9002D00F0B1800026C5E90001304608
:100D70003146BDE8F087B3FA83F6002E4AD18B42A4
:100D800002D3824200F2B880841A61EB0301012091
:100D90008C46002DA8D0C5E9004CA5E7C2F1200380
:100DA00020FA03F6974001FA02F04FEA174ED940B5
:100DB0003043030CB1FBFEF61FFA87F80EFB161149
:100DC00043EA014306FB08F1994204FA02F409D907
:100DD000FB1806F1FF3C80F08D80994240F28A803A
:100DE000023E3B445B1A81B2B3FBFEF00EFB1033B4
:100DF00041EA034100FB08F38B4207D9791800F15F
:100E0000FF3C73D28B4271D902383944CB1A40EA85
:100E1000064678E7C6F1200C03FA06F422FA0CF332
:100E20001C4320FA0CF701FA06F34FEA144E21FA9C
:100E30000CF11F433B0CB1FBFEF91FFA84F80EFBCB
:100E4000191143EA014109FB08FA8A4502FA06F240
:100E500000FA06F308D9611809F1FF3048D28A4533
:100E600046D9A9F102092144A1EB0A01BFB2B1FBA5
:100E7000FEF00EFB101147EA014700FB08F8B845E9
:100E800007D9E71900F1FF312ED2B8452CD9023825
:100E9000274440EA0940A7EB0807A0FB02894F4519
:100EA000C64649461AD317D05DB1B3EB0E0267EBC5
:100EB000010707FA0CFCF2404CEA0202F740C5E9D0
:100EC000002700263146BDE8F0872E4628460BE76E
:100ED0000646E9E61846FDE64345E5D2B8EB020EC4
:100EE00069EB04010138DFE70846D2E760468DE789
:100EF0008146B9E7664675E730464AE7ACF1020C31
:100F0000394413E702383C4424E700BF704700BF70
:100F100084B04FF0B043DA6C42F00402DA64DA6C69
:100F200002F004020392039ADA6C42F00102DA64DE
:100F3000DA6C02F001020292029ADA6C42F00202CA
:100F4000DA64DB6C03F002030193019B04B0704789
:100F500000B585B04FF0B0439A6C42F004029A6439
:100F60009A6C02F004020392039A9A6C42F0010216
:100F70009A649A6C02F001020292029A9A6C42F010
:100F800002029A649B6C03F002030193019B00220E
:100F90000F210E2003F092FF0E2003F0C3FF00226A
:100FA0000F213A2003F08AFF3A2003F0BBFF05B07F
:100FB0005DF804FB01684B6B074A12689A4205D83A
:100FC0009A1A06490A60044A13607047C96A8A1A65
:100FD0001A4402490A60F6E764040020680400200D
:100FE00010B5164A536ADBB293620D2B0AD00A2B56
:100FF00008D00F2B15D012490A68501C08601149FF
:101000008B540DE00F4C204607F0E4F907F092F9FD
:1010100000230B4A136023606360A360E3602361D5
:1010200010BD074B1B68002BFADD074809F06EFE68
:10103000034A1368013B1360F2E700BF0038014028
:101040008C1900207819002028DE000882B0074B98
:101050001022C3F88420BFF34F8FBFF36F8F044B70
:10106000DB690193019B02B0704700BF00E100E023
:101070000038014072B6FEE708B50448044B03602F
:1010800004F026F800B908BDFFF7F4FF641600204D
:10109000000C005810B590B000240B940C940D94E3
:1010A0000E940F940A9428222146684608F094FE74
:1010B0003148324B036044600F23836047F6FF736F
:1010C000C36004618461C461446104F062FE00286D
:1010D00048D100238DF82C308DF82D308DF82E302E
:1010E0000C930E930F9301220BA9234804F0C9FE21
:1010F000002839D101228DF828208DF829208DF87B
:101100002A2000238DF82B300AA91B4804F042FF47
:1011100060BB00238DF800308DF8013030228DF84F
:101120000220019303930493154A059206930793B3
:1011300001228DF820204FF48073099369460E48F0
:1011400004F09EFFA0B900224FF6FF710A4805F097
:10115000B9F878B9084B1A68936823F480639360F0
:1011600010B010BDFFF786FFFFF784FFFFF782FF87
:10117000FFF780FFFFF77EFF941800200028004053
:101180000080808008B50548054B0360002343605C
:1011900004F076FD00B908BDFFF76CFF18190020B8
:1011A0000010005800B587B000230093019302930C
:1011B0000393049305931948194A02604FF43012BF
:1011C00042608360C3600361042242610376437618
:1011D0000122C26180F820308362C36280F830301F
:1011E000436380F8383007F035FC90B90D4B00931D
:1011F00006230193002302937F2203920422049288
:1012000005936946054807F071FD20B907B05DF800
:1012100004FBFFF72FFFFFF72DFF00BF94170020FF
:10122000000004500100008010B588B00023059331
:1012300006930793019302930393049319484FF085
:1012400080420260436083604FF0FF32C2600361FE
:10125000836105F043FAE8B900230593079305A9D4
:10126000104805F0C7FBB8B9002201920123029390
:101270000392049201A90B4805F084FA70B9094C55
:10128000204605F0EFF80021204605F0EFFA38B9C6
:1012900008B010BDFFF7EEFEFFF7ECFEFFF7EAFE29
:1012A000FFF7E8FE2C19002030B59BB04822002142
:1012B00008A808F091FD002401940294039404947A
:1012C0000594069407944FF0B045EB6823F0700343
:1012D000EB60EB6823F0030343F00203EB6003F0E1
:1012E000CBFDD5F8903023F01803C5F89030194A9B
:1012F000136823F4C06343F400731360136803F4AA
:10130000C0630093009B472308934FF480330993F5
:1013100001230A934FF480720B92129340230C9393
:10132000139408A802F078FA80B96F23019302237E
:1013300002930023039304930593069307930121DB
:1013400001A802F0FFFD18B91BB030BDFFF792FEF7
:10135000FFF790FE0004005800B595B04022002130
:1013600001A808F039FD4FF4405300934FF4804337
:1013700011930023129310231393684603F00DF882
:1013800010B915B05DF804FBFFF774FE08B503F063
:1013900043FE00F0A5FAFFF787FFFFF7DDFFFFF739
:1013A0006BFEFFF7B5FDFFF7D3FDFFF773FEFFF709
:1013B000E9FEFFF7F7FEFFF737FF00F0ABFA002377
:1013C000114A1360114A1360114A1360536093600D
:1013D000D36013610F4807F08DF806F0ABFF0E4A9B
:1013E00052E8003F43F0200342E800310029F6D1E3
:1013F0000A4A52E8003F43F0010342E80031002965
:10140000F6D100F097FAFCE7A01600208C19002016
:101410007819002088180020003801400838014061
:1014200008B51648164B03604FF4E13343600023C0
:101430008360C36003610C22426183614FF4004208
:10144000C26103624362836204F055FB70B90021FC
:101450000A4804F0CBFB58B90021084804F0EBFB24
:1014600040B9064804F0A3FB30B908BDFFF702FEFF
:10147000FFF700FEFFF7FEFDFFF7FCFDF817002069
:101480000038014082B04FF0B0431A6D42F4801230
:101490001A651B6D03F480130193019B0A4B3F22D5
:1014A0009A609A615A6842F47C125A605A6942F40E
:1014B0007C125A615A6842F03F025A605A6942F0FF
:1014C0003F025A6102B07047000C0058054BCA2217
:1014D0005A6253225A629A6822F007029A60FF22E7
:1014E0005A62704700280040704708B54FF0B0437B
:1014F000D3F8943013F0806F18D04FF0B043D3F886
:10150000943013F0805F11D103F0B6FC03F0B4FC0B
:101510004FF0B043D3F8902042F48032C3F89020CB
:10152000D3F8902022F48032C3F8902008BD08B58B
:10153000FFF7DBFFFFF7A6FF08BD000008B500209E
:1015400005F0E6FC68B181794FF0B042054BC2F876
:101550009C30D2F89C3023F47C5343EA0123C2F838
:101560009C3008BDFECAFECA08B54FF0B042936871
:1015700043F40043936006F033FD054AD2F880300F
:1015800023F0070343F00403C2F8803008BD00BF16
:101590000004005810B588B005F0B2FA0F4A0021D7
:1015A000042006F057FE0E4C00940E4B0193694642
:1015B0000D4806F00DFC04F58673029304F50673DE
:1015C000039304F54974049440F23C53059302A834
:1015D00005F05CFB05F090FA08B010BDF57D000841
:1015E000E0010320E91400084517000810B544681D
:1015F000154805F031FC014640F2A113134A144886
:1016000009F084FB617B134809F080FB637B6BB9B5
:101610000D4805F021FC01464FF4D3730B4A0C48EA
:1016200009F074FB0C4809F0F7FB10BD064805F003
:1016300013FC01464FF4D573044A054809F066FBD4
:10164000064809F0E9FBF0E72CDE000818E1000885
:1016500044DE000858DE000884DE0008BCDE000816
:10166000F0B585B00023009301930293ADF80C30E0
:1016700043685B7B8BB10446012B43D0294805F0BE
:10168000EBFB01464FF4F673274A284809F03EFB6E
:10169000274809F0C1FB05B0F0BD224F384605F0E0
:1016A000DBFB0146204E214D40F2BF133246284657
:1016B00009F02CFB1F4809F0AFFB00F019FA0D23CD
:1016C0008DF800307F238DF802301B4B1C68240CF2
:1016D000384605F0C1FB014640F2D7133246284692
:1016E00009F014FB2146154809F010FBADF80C4039
:1016F000684605F03DFB01F0F1FA0021012006F0FB
:1017000079FCC8E7074805F0A7FB014640F2E5135E
:10171000054A064809F0FAFA094809F07DFB00235A
:101720002370B8E72CDE00082CE1000844DE000836
:101730006CDF0008F0DE0008002004E020DF000875
:1017400040DF00082DE9F04184B00446D0F8048061
:10175000684605F01BFB564F384605F07DFB0146F9
:10176000544E554D40F265133246284609F0CEFAE4
:101770009DF802309DF801209DF800104F4809F0B7
:10178000C5FA384605F068FB01464FF4B37332469C
:10179000284609F0BBFA9DF80410494809F0B6FA4A
:1017A000384605F059FB014640F267133246284699
:1017B00009F0ACFA9DF80C309DF80B209DF80A104A
:1017C000404809F0A3FAB8F80B30A3F51243072BF1
:1017D00008D8DFE803F0040A0E0730404E5E2046CA
:1017E000FFF73EFF04B0BDE8F0812046FFF7FEFEA4
:1017F000F8E72F4E304605F02FFB01462D4D2E4CBD
:101800004FF4BA732A46204609F080FA2E4809F0B0
:1018100003FB304605F020FB014640F275132A46D3
:10182000204609F073FAD8F81120D8F80D1027488F
:1018300009F06CFAD6E71E4805F00EFB014640F2AF
:101840007B131C4A1C4809F061FAD8F80D10204897
:1018500009F05CFAC6E7164805F0FEFA01464FF4B7
:10186000C073144A144809F051FA1A4809F0D4FA1E
:10187000B8E70F4805F0F0FA01464FF4C2730D4A7D
:101880000D4809F043FAD8F80D10134809F03EFA54
:10189000A8E7074805F0E0FA014640F28913054A37
:1018A000054809F033FA0D4809F0B6FA9AE700BF87
:1018B0002CDE000804E1000844DE000898DF000880
:1018C000BCDF0008D8DF0008F0DF00081CE00008DB
:1018D00060E0000894E00008B0E00008E8E00008DC
:1018E00008B5044B4FF400421A61FFF720FEFFF7E2
:1018F00025FE08BD00400058024BD3F89020C3F8E5
:10190000902070470008005808B5FFF7F5FFFFF773
:10191000DDFD08BD08B5FFF7F7FFFFF725FE044919
:10192000002000F005FB00F0CFF8FFF733FE08BD04
:101930009418002008B54FF0FF3006F0CFFB08BD2B
:10194000704708B54FF0FF3006F0C8FB08BD08B57A
:101950000021042006F064FB08BD08B5022006F053
:1019600091FB08BD08B5022006F048FC08BD000048
:1019700070B58CB000230B931C461D461E4606E036
:101980004E4A02EBC3018A8815430133DBB2252B93
:101990001ED84A4A02EBC3029279002AF5D0474A80
:1019A00052F8332046488242EAD000F580608242F5
:1019B00008D0B2F1904FE8D1404A02EBC3018A88C7
:1019C0001643E2E73D4A02EBC3018A881443DCE791
:1019D000002309930123089303230A9326B93DBBEF
:1019E000002C48D10CB070BD07964FF0B043DA6CB4
:1019F00042F00102DA64DA6C02F001020292029A09
:101A0000D3F84C2142F00102C3F84C21D3F84C31F9
:101A100003F001030193019B07A94FF0904002F0EE
:101A200073FF002231464FF0904003F031F8D6E7C3
:101A300007954FF0B043DA6C42F00202DA64DA6CD8
:101A400002F002020492049AD3F84C2142F00202FE
:101A5000C3F84C21D3F84C3103F002030393039BEA
:101A6000174E07A9304602F04FFF002229463046A4
:101A700003F00EF8B4E707944FF0B043DA6C42F08D
:101A80000402DA64DA6C02F004020692069AD3F8D1
:101A90004C2142F00402C3F84C21D3F84C3103F03E
:101AA00004030593059B074D07A9284602F02CFF68
:101AB00000222146284602F0EBFF93E748E10008A8
:101AC000000400480008004808B503F0D3FA03F00A
:101AD000D9FA064AD2F8903043F48033C2F89030F5
:101AE00005F0CCF9FFF744FF08BD00BF000800581F
:101AF00030B589B001AC084D0FCD0FC495E8070093
:101B000003C424F8022B120C227005F0EDF801A892
:101B100005F01FF909B030BDA0DD000808B5FFF7DA
:101B20007FFC08BD08B513460A460146002000F0B8
:101B3000D9FB08BD064A936A9BB2906A80B2834281
:101B400004D0034B9A6A034690B2F8E7704700BF8F
:101B50000028004010B401EB41020E4B03EBC2031E
:101B60005B7DDBB2062B05D003EB4302094C04EB93
:101B7000C2021075074A00EB400402EBC40463750F
:101B8000217501EB410102EBC10148755DF8044B81
:101B9000704700BFF0020020184B93F89030DBB282
:101BA0008B421ED010B4154B01EB410203EBC20275
:101BB000127DD4B202EB420203EBC202507500EB7D
:101BC000400203EBC202517500EB400203EBC2027C
:101BD000147501EB410103EBC10318755DF8044B6B
:101BE0007047064B00EB400203EBC202517501EB5C
:101BF000410103EBC1010875704700BFF0020020EE
:101C000030B4244B93F89030DBB283422AD0214C7D
:101C100000EB400204EBC202157D537DDBB2527D26
:101C2000D2B205EB450504EBC5046275062B0BD05B
:101C3000184A00EB400402EBC404247DE4B203EB39
:101C4000430302EBC3031C75124B00EB400003EB94
:101C5000C0000122027393F89030DBB2062B10D043
:101C600030BC70470B4B93F89020D2B283F8912090
:101C700000EB400203EBC202527DD2B283F8902007
:101C8000E2E70029ECD1034B4FF0FF32C3F8942078
:101C9000E6E700BFF002002008B5124BD3F89430FD
:101CA000B3F1FF3F02D1002080B208BDFFF742FF31
:101CB0000C4BD3F8943083420BD30A4BD3F89430B7
:101CC000181A094B1B7800FB03F0084B1B78D8400F
:101CD000EAE7074B1B881B1A024AD2F89400184403
:101CE000EFE700BFF00200206C0400207204002027
:101CF0007004002070B50446334B93F89030DBB28B
:101D0000062B14D1304B93F89020D2B283F8912057
:101D100083F8900000EB400403EBC40406226275D4
:101D20004FF0FF32C3F894200025284670BDFFF71E
:101D3000B3FF0546244B04EB440203EBC202916857
:101D40000144916004EB440203EBC202906893F8F3
:101D5000902002EB420203EBC2039B68834225D82A
:101D6000194A92F89030D9B203EB430302EBC30354
:101D70005B7DDBB2062B15D003EB4303124A02EB6B
:101D8000C3039B6883420DD80F4A01EB410102EB6C
:101D9000C1014B7DD9B203EB430302EBC3035B7D6F
:101DA000DBB2E7E72046FFF7D5FEBEE7064E96F822
:101DB00090102046FFF7F0FE96F89030DBB286F8E0
:101DC000913086F89040B0E7F002002010B560B383
:101DD0000446012832D9013CA4B21B4B1B681B6886
:101DE000DA6812F0040FF8D0DA68D2B262F49062C6
:101DF000DA60164B4FF40022DA60032003F0D6F8C5
:101E0000134A53691B0C1B041C435461FFF792FED9
:101E1000104BC3F894000C4B1B681A68936843F48A
:101E200080639360AFF3008010BDFFF783FE094B22
:101E3000C3F89400032003F0ABF8F5E7064B1B78DA
:101E4000012BC8D1C9E700BF740400200008005866
:101E500000280040F00200207204002070B5304BD2
:101E60009B6813F4806F06D02E4B1B681B68DB68E1
:101E700013F0040FF8D12B4B1B681A68936823F4F6
:101E800080639360284A92F89030DCB203EB4303FE
:101E900002EBC3039E68FFF7FFFE0546B04205D97B
:101EA000214B012283F89820002024E01F4B1B883F
:101EB00010FA83F3B34207D21C4B188880B21A4B36
:101EC000002283F8982016E0B6B2301A80B2164B82
:101ED000012283F898200EE004EB4404124A02EB3E
:101EE000C404A268521BA26003EB43030E4A02EB38
:101EF000C3035C7DE4B2062C0FD0234604EB4402FE
:101F0000094901EBC20292689542E5D904EB440409
:101F100001EBC4040022A260E6E7FFF757FF70BDA3
:101F20000028004074040020F00200206E0400200D
:101F300010B54C4B19600B68CA225A620B685322C9
:101F40005A62494A936843F020039360936803F010
:101F50000703C3F10403D9B2444B1970136903F4A6
:101F6000FE034FF4FE0292FAA2F2002A3DD0B2FA2A
:101F700082F2D340DBB20133DAB23D4B1A703A4BF6
:101F80001B69C3F30E0301333A4C2380013B03FB6F
:101F900002F3A3F5A073CB404FF6FE72934226D90D
:101FA000354B4FF6FF721A80344B1A6842F4002208
:101FB0001A60D3F8802042F40022C3F88020002861
:101FC00045D12F4B012283F898204FF0FF32C3F800
:101FD000942005280FD800EB4002294B03EBC203E5
:101FE00000221A730130C0B2F3E72022C1E79BB28E
:101FF000214A1380D8E7224B062283F89020194CFF
:10200000226811688B6823F480638B601268D36840
:10201000DBB263F49063D360184B4FF40022DA60B4
:10202000032002F0C3FF23681A68936843F48043D7
:1020300093600C4B1B681B68FF225A62002203212D
:10204000084602F03BFF032002F06CFF10BD054B79
:102050001B681B68DB6813F4806FEAD0032002F072
:1020600097FFE6E774040020002800407204002077
:102070006C040020700400206E040020000800584A
:10208000F002002038B50446EFF3108572B6032045
:1020900002F056FF294B1B681A68CA2151621B685F
:1020A00053225A6204EB4402254B03EBC2031B7B11
:1020B000DBB2022B0AD0214B1B681B68FF225A623D
:1020C000032002F02FFF85F3108838BD0021204641
:1020D000FFF796FD1A4B93F89030DBB2062B08D031
:1020E000174A92F89120D2B29A42E4D0FFF7B6FE96
:1020F000E1E7144B9B6813F4806F06D00F4B1B680D
:102100001B68DB6813F0040FF8D10C4B19680A68E0
:10211000936823F4806393600B68DA6812F0040F0D
:10212000FAD0DA68D2B262F49062DA60064B4FF409
:102130000022DA60032002F039FFBCE774040020BB
:10214000F00200200028004000080058F8B50446BE
:102150000D4600EB4002234B03EBC2031B7BDBB2BB
:10216000022B38D0EFF3108672B6032002F0E8FE9F
:102170001D4B1B681A68CA2151621B6853225A62A0
:10218000184F04EB440307EBC30302221A739D604C
:102190005D602046FFF7AEFD97F89030DBB297F810
:1021A0009120D2B29A4219D10E4B04EB440203EBB8
:1021B000C2029268101A04EB440403EBC404A0604A
:1021C000094B1B681B68FF225A62032002F0AAFE1B
:1021D00086F31088F8BDFFF755FFC3E7FFF73EFE13
:1021E000EEE700BFF00200207404002008B590471D
:1021F00008BD0000F8B5EFF3108472B6364B1968CD
:102200000B68CA225A620B6853225A620A689368A2
:1022100023F480639360314A92F89030DDB203EB8F
:102220004303D8000244137BDBB2022B15D00B68AA
:10223000DA6812F0040FFAD0DA68D2B262F490626F
:10224000DA60274B4FF40022DA6084F31088224BC7
:102250001B681B68FF225A62F8BD204B05EB450145
:10226000CA0099189F580E6993F8983073B34B7B46
:10227000DBB2012B12D084F310882846FFF702FF4F
:10228000154B1B681A68CA2151621B6853225A6297
:102290003A4629463046FFF7A9FFD8E701212846EC
:1022A000FFF7AEFC84F3108805EB4503DA000B4B17
:1022B000134459682846FFF749FF074B1B681A6803
:1022C000CA2151621B6853225A62E1E7FFF7C6FD3B
:1022D00084F31088BBE700BF74040020F0020020E4
:1022E0000008005810B518B1022810D0002010BD09
:1022F0000B4803600B480C4B036002F04BFF0228B5
:10230000F5D00328F3D00128F1D00020EFE70748EB
:1023100003600748074B036002F03CFFEFE700BF94
:102320009C190020F8170020003801409019002067
:10233000A41600200080004008B50368084A9342B4
:1023400008D002F53842934203D1064B1B6803B113
:10235000984708BD044B1B68002BFAD09847F8E754
:10236000008000409C19002090190020FEE7FEE745
:10237000FEE7FEE7FEE770477047704708B502F0DA
:1023800061FE08BD08B5FFF735FF08BD08B5024876
:1023900002F00FFD08BD00BFB818002008B50248C4
:1023A00004F096F808BD00BF2C19002008B50E4BAC
:1023B000DB6913F0200F06D00B4B1B6813F0200FC6
:1023C00001D0FEF70DFE084B9B6813F0010F06D0FD
:1023D000054BDB6913F0040F01D0FEF737FE03480D
:1023E00002F0ACFF08BD00BF00380140F817002024
:1023F00008B5024802F0A2FF08BD00BFA4160020E5
:1024000008B5024803F05CFC08BD00BF941800202A
:1024100008B500F0EBFA08BD08B500F087FA08BD72
:1024200008B501F0F7F808BD08B5024802F0C1FC94
:1024300008BD00BF3417002000B583B04FF0B04393
:102440001A6D42F400221A651B6D03F400230193F8
:10245000019B002211462E2002F030FD2E2002F0BA
:1024600061FD03B05DF804FB10B596B00446502240
:10247000002102A807F0B0FC2268154B9A4201D057
:1024800016B010BD4FF480630293082303934FF4FA
:10249000003304934FF0007305934FF000530693FD
:1024A0004FF080530793119302A801F076FF58B9BB
:1024B0004FF0B043DA6C42F40052DA64DB6C03F4A0
:1024C00000530193019BDBE7FEF7D4FDF0E700BF6B
:1024D000000004500268124B9A4200D0704700B5C9
:1024E00083B04FF0B0431A6D42F480121A651B6D31
:1024F00003F480130193019B002211462C2002F06B
:10250000DDFC2C2002F00EFD002211462D2002F0F1
:10251000D5FC2D2002F006FD03B05DF804FB00BFE2
:10252000000C005830B59FB00446002119911A9153
:102530001B911C911D91502205A807F04DFC2368AA
:10254000514A934204D0514A934250D01FB030BDFB
:102550000223059300230C9305A801F01EFF002819
:102560003FD14FF0B043DA6D42F00102DA65DA6D27
:1025700002F001020292029ADA6C42F00102DA647D
:10258000DB6C03F001030193019B0C2319930223DD
:102590001A9300251B9503231C9308231D9319A947
:1025A0004FF0904002F0B0F939483A4B03601123E4
:1025B000436010238360C5608023036145618561AA
:1025C000C561056202F0CAFA70B9314BA3679C621B
:1025D00000221146252002F071FC252002F0A2FC09
:1025E000B4E7FEF747FDBCE7FEF744FDEDE7012346
:1025F000059300230B9305A801F0CFFE00283DD1E1
:102600004FF0B0431A6E42F480421A661A6E02F41A
:1026100080420492049ADA6C42F00202DA64DB6CC3
:1026200003F002030393039BC023199302231A931D
:1026300000251B951C9507231D9319A9164802F028
:1026400063F91648164B03600F2343601023836021
:10265000C5608023036145618561C561056202F043
:102660007DFA70B90D4BA3679C62002211462420AD
:1026700002F024FC242002F055FC67E7FEF7FAFC88
:10268000BEE7FEF7F7FCEDE70080004000380140B0
:10269000B81800204400024000040048341700200D
:1026A0004404024010B596B004465022002102A80E
:1026B00007F092FB22680F4B9A4201D016B010BD72
:1026C0004FF4007302934FF08053109302A801F06F
:1026D00064FE58B94FF0B0431A6D42F480221A6577
:1026E0001B6D03F480230193019BE7E7FEF7C2FC17
:1026F000F0E700BF0010005810B596B00446502215
:10270000002102A807F068FB22681A4B9A4201D008
:1027100016B010BD4FF4006302934FF48073129310
:1027200002A801F03AFE08BB4FF0B043D3F8902066
:1027300042F40042C3F890209A6D42F480629A6598
:102740009B6D03F480630193019B002211460320DB
:1027500002F0B4FB032002F0E5FB00221146292021
:1027600002F0ACFB292002F0DDFBD1E7FEF782FC92
:10277000DAE700BF0028004010B588B000230393BB
:1027800004930593069307930368B3F1804F01D038
:1027900008B010BD4FF0B0439A6D42F001029A6547
:1027A0009A6D02F001020292029ADA6C42F0010282
:1027B000DA64DB6C03F001030193019B01230393B3
:1027C00002220492002405940694079303A94FF073
:1027D000904002F099F8224621461C2002F06EFB40
:1027E0001C2002F09FFBD3E710B5064C636843F44E
:1027F00000236360044B1B6898474FF40023A360D9
:1028000010BD00BF000C00587804002082B04FF0CB
:10281000B043D3F8502142F48012C3F85021D3F8CA
:10282000503103F480130193019B0A4BD3F8D42059
:1028300042F40072C3F8D4201A6A42F400721A6299
:1028400040BF20BF044AD36843F40043D36002B0C2
:10285000704700BF000800580004005800B583B05E
:102860004FF0B0431A6D42F480121A651B6D03F4E9
:1028700080130193019B094B1A6842F001021A6010
:102880001A6842F480321A602C2002F04BFB2D2093
:1028900002F048FB03B05DF804FB00BF000C0058D9
:1028A000024A536823F0010353607047000C00583C
:1028B000024B4FF480329A60704700BF000C005802
:1028C00008B5044A536843F40013536004F086F9D2
:1028D00008BD00BF000C005808B504F069F9024BB0
:1028E00001229A6008BD00BF000C0058024A5368DC
:1028F00023F0020353607047000C0058044B4FF460
:1029000000329A605A6822F400325A60704700BF61
:10291000000C005808B5044A536843F40033536070
:1029200004F090F908BD00BF000C005808B5144B26
:10293000DB6813F0020F04D1114B5B6813F4003F06
:1029400014D00F4BDB6813F0080F04D10C4B5B68FD
:1029500013F4002F0DD00A4BDB6813F0200F04D1C5
:10296000074B5B6813F4001F06D008BDFFF7D2FFCA
:10297000FBE7FFF739FFF8E7FFF7A2FFF5E700BF36
:10298000000C005808B504F06BF9024B02229A6063
:1029900008BD00BF000C005808B5094BDB6813F0F8
:1029A000080F05D18047064B4FF400229A6008BDFE
:1029B000044B1860024A536823F400235360F6E77F
:1029C000000C005878040020024A536823F00803E2
:1029D00053607047000C005808B504F097F9024B9B
:1029E00008229A6008BD00BF000C005808B5144BBF
:1029F000DB6913F0020F0AD1114BDB6913F0010FF1
:102A00000DD10F4BDB6913F0080F10D108BD0C4B33
:102A10005B6813F0020FEFD1FFF7B4FFF6E7084B46
:102A20005B6813F0010FECD1FFF756FFEEE7044BA4
:102A30005B6813F0080FE9D1FFF7CEFFE6E700BFB0
:102A4000000C00581C4B93F88030052B00D17047C8
:102A500070B504F0ACFC184B002283F88020E8B974
:102A6000164E304604F0F8F90146154D154C4FF45A
:102A700056732A46204608F049F9134808F046F9EB
:102A8000304604F0E9F901464FF456732A462046D1
:102A900008F03CF90D4808F039F970BD074804F01A
:102AA000DBF901464FF45773054A064808F02EF942
:102AB000074808F02BF9F0E78C03002078E20008C3
:102AC000F4E4000844DE000894E200089CE20008F8
:102AD000B8E2000800B583B0054B0093054B0193A5
:102AE0006946054805F066F803B05DF804FB00BFD1
:102AF00028000320172B0008FD2A000810B5044603
:102B00004068083005F042FA10B10123237010BD6F
:102B100000232370FBE708B510B1012804D008BDDD
:102B2000032005F095FAFAE7032005F09FFAF6E78F
:102B300008B50E4B1A68B2F1FF3F10D004331B6882
:102B40000B480270C2F3072242708370C3F307225E
:102B5000C270C3F3074202711B0E437108BD00200F
:102B600004F0D6F90028F9D10248F7E78075FF1F75
:102B70007C040020C8E4000870B588B00024ADF8DB
:102B8000184004F083FFFFF7D3FF024606212046DA
:102B900004F0FCFE2A4A1021182004F0F7FE294A0E
:102BA0001021082004F0F2FE1821012004F01EFF7D
:102BB00004F0BDFD0DF11A03019307AB00930DF175
:102BC0001E030A222146012004F0FBFC1E4B009349
:102BD0000A232246BDF81C10BDF81E0004F079FE41
:102BE00006AB009302232246BDF81A10BDF81E0062
:102BF00004F06FFE02221146204604F067FF134DD9
:102C000001262E70304604F04DFC6E7008232B71A7
:102C100010226A71EC700E49A960AC7004940391A3
:102C2000029401920093234632463146204604F036
:102C30005FFCAB780BB908B070BD04F02EFDFAE76D
:102C4000B8E40008A8E40008DCE200088C030020D7
:102C500007B2010010B588B0194B83F8800000203E
:102C60000690059004900390029001900090034616
:102C7000A022802104F0BCFB12490A2004F0E0FCF1
:102C800070B9114804F0E8F801464FF441730F4A57
:102C90000F4808F03BF80F4808F0BEF808B010BD28
:102CA0000446094804F0D8F801464FF44273074A35
:102CB000074808F02BF82146074808F027F8EDE709
:102CC0008C0300200800002078E20008E8E40008F7
:102CD00044DE0008E8E2000810E3000830B58FB0D9
:102CE00001AC1B4D0FCD0FC40FCD0FC40FCD0FC4C2
:102CF0002B682370FFF7EEFE0121022005F07AF920
:102D0000144A0021022005F0A5FA01A804F012F8E7
:102D1000D8B9FFF731FF05F025F90F4C002584F8ED
:102D200080504FF6FF73E3820C4A2946012005F0DC
:102D300091FA062004F083FE00F086FB6576257686
:102D40000120FFF787FF0FB030BDFEF793F9E0E7F2
:102D5000BCDD0008D97B00088C030020452A000850
:102D600010B5044643783E2B29D0FF2B62D0052BAB
:102D700001D0012010BD8288614BDB8A9A420BD0C2
:102D80000120FFF767FF5F48012303705C4BDB8A7C
:102D9000438000F01FFBECE7594B0022DA8283F8F6
:102DA0008020594804F058F8014640F28B13574AE6
:102DB000574807F0ABFF574808F02EF8E0E7C37814
:102DC000012B0FD0032BD4D14F4804F045F8014616
:102DD00040F2A7134D4A4E4807F098FF4E4808F0BE
:102DE0001BF8C6E7484804F037F801464FF4DB7398
:102DF000464A474807F08AFFB4F80510474807F0ED
:102E000085FF3F4B93F88030042B0ED03C4B0522BE
:102E100083F88020B4F80530394AD382394800223B
:102E20000270438000F0D6FAA3E7354B062283F800
:102E30008020EFE7B0F80330A3F20143092B98D8C4
:102E400001A252F823F000BFE12E0008A92E0008CD
:102E5000732D0008732D0008732D0008732D0008D2
:102E6000712E0008732D0008B52E00088D2E000865
:102E7000254803F0F1FF014640F2F113234A2448AC
:102E800007F044FF264807F0C7FF72E71E4803F02B
:102E9000E3FF01464FF400731C4A1D4807F036FF5C
:102EA000204807F0B9FF64E71F49154BD88A04F0A2
:102EB0005FFB5EE7D0F80740134803F0CDFF014603
:102EC00040F20A23114A124807F020FF2146174812
:102ED00007F01CFF01210A4BD88A04F0FFFB48E7EA
:102EE000094803F0B9FF01464FF40473074A084844
:102EF00007F00CFFE1790E4807F008FF39E700BF43
:102F00008C030020A019002078E20008D0E400081B
:102F100044DE000840E3000868E3000894E300088A
:102F2000D8E3000800E4000807B2010030E400081C
:102F300048E4000808B50021022005F071F808BD3A
:102F400008B5012005F09EF808BD08B5012005F080
:102F500055F908BD2DE9F04184B04378FF2B04D02A
:102F60000025284604B0BDE8F0810446B0F80330DF
:102F700040F61342934200F0BB8040F61442934265
:102F800000F0958040F60142934201D00025E8E729
:102F90005D4F384603F060FF01465C4E5C4D952363
:102FA0003246284607F0B2FEB4F80710594807F039
:102FB000ADFE384603F050FF0146962332462846C0
:102FC00007F0A4FEDFF85C81B8F80410524807F05F
:102FD0009DFE384603F040FF0146972332462846BF
:102FE00007F094FEB8F802104C4807F08FFE384600
:102FF00003F032FF014698233246284607F086FE4A
:10300000474807F083FEB4F80720B8F804300233CD
:103010009A4206D0434B5B8801339A422ED000255A
:103020009FE7657B1DB1012D15D0012599E7364835
:1030300003F012FF0146AB23344A354807F066FE21
:10304000394807F063FE03238DF80030684600F02E
:103050005FFA012585E72C4803F0FEFE0146B82300
:103060002A4A2B4807F052FE304807F04FFE022351
:103070008DF80030684600F04BFA72E7224803F002
:10308000EBFE0146CD23214A214807F03FFE2848A8
:1030900007F03CFE01258DF80050B4F80B308DF898
:1030A00008300D340194684600F032FA59E7B0F860
:1030B00007201C4B5B8801339A4201D0002550E762
:1030C000114803F0C9FE0146E223104A104807F0F8
:1030D0001DFE184807F01AFE00238DF800306846E0
:1030E00000F016FAB4F8050004F028FC012538E7D2
:1030F000B0F807200B4B5B8801339A4201D00025C2
:103100002FE701252DE700BF00E500085CE6000879
:1031100044DE00081CE5000834E5000850E500081E
:103120006CE500081004002094E50008ACE50008F8
:10313000C0E50008D0E500082DE9F04F8BB07048DD
:1031400004F01AFF8F238DF81830E5238DF819301D
:10315000B3238DF81A30D5238DF81B302E238DF82C
:103160001C307F238DF81D304A238DF81E309823A4
:103170008DF81F302A238DF8203048238DF8213018
:103180007A238DF82230CC238DF8233001258DF859
:10319000245000248DF825408DF826408DF82740D6
:1031A000584B009306232A4606A9022004F0E1FAB0
:1031B0004FF0190B8DF818B0ED268DF819604FF00F
:1031C000820A8DF81AA04FF0AE098DF81B908DF889
:1031D0001C604FF021038DF81D304FF04C028DF82C
:1031E0001E206FF062018DF81F104FF041008DF826
:1031F00020004FF045078DF821704FF0220C8DF81C
:1032000022C06FF0710E8DF823E002278DF8247034
:103210008DF825408DF826408DF82740394B33F83E
:10322000020B0593082304934FF01008CDF80C808F
:103230000522029201940622009206AA394604F061
:10324000E8FA8DF818B08DF819608DF81AA08DF88D
:103250001B908DF81C604FF021038DF81D304FF04E
:103260004C028DF81E206FF062018DF81F104FF098
:1032700041008DF820004FF045038DF821304FF0CC
:10328000220C8DF822C06FF0710E8DF823E003231D
:103290008DF824308DF825408DF826408DF8274094
:1032A000184B33F8040B05930495CDF80C80029568
:1032B0000194CDF80080402306AA394604F0A9FA0B
:1032C000114E304603F0C8FD0146104D104C40F23F
:1032D00063132A46204607F019FD0E4807F016FD35
:1032E000304603F0B9FD01464FF4B2732A4620463A
:1032F00007F00CFD084807F009FD0BB0BDE8F08FA2
:10330000552F00081004002000E5000878E60008AA
:1033100044DE0008E0E50008F8E5000830B583B0B9
:1033200004460D46204803F097FD01464FF4BA735A
:103330001E4A1F4807F0EAFC1E4807F0E7FC2CB1C4
:10334000012C1AD09224204603B030BD1A480095B3
:10335000082300224188008804F0BBFA0446124882
:1033600003F07AFD014640F28113104A104807F03D
:10337000CDFC124807F0CAFCE5E70F480095402352
:1033800000228188008804F0A4FA0446064803F06D
:1033900063FD01464FF4C673044A054807F0B6FCC6
:1033A000074807F0B3FCCEE700E5000890E6000808
:1033B00044DE000818E600081004002030E600088B
:1033C00044E6000808B502490120FFF7A7FF08BD41
:1033D000A01A002010B50446154803F03DFD014633
:1033E000A723144A144807F091FC144807F08EFCF8
:1033F000237813B1012B0DD010BD0D4803F02CFD27
:103400000146B1230B4A0C4807F080FC0C4807F03A
:103410007DFCF1E7064803F01FFD0146B723054A8E
:10342000054807F073FC074807F070FCE4E700BFAD
:10343000ACE60008FCE7000844DE0008C8E6000827
:10344000E0E60008F4E6000870470000F0B5AFB011
:1034500005460468012643E02022002107A806F063
:10346000BBFC636804930023059304A806F088FB63
:1034700003694169C26807680397476802978068D3
:10348000019001F26C71009101331C4907A807F00B
:10349000DBFC2189B4F90A30E26803920293184BED
:1034A000A3FB01239B094FF47A7202FB131292B221
:1034B0000192009307AB324612490FA807F0C4FCF3
:1034C0000FA9114807F022FC0FA8FCF763FE024683
:1034D0000FA90E4806F072FCFFF774FF0136103C8E
:1034E000AB68A34203D26378012BF8D1B4E7002084
:1034F00006F05CFC00202FB0F0BD00BF08E700081C
:10350000D34D621028E700086CE70008A01A0020DD
:1035100070B5334B00221A605A600378032B0FD822
:10352000DFE803F0020F43502E4803F095FC0146FC
:1035300074232D4A2D4807F0E9FB2D4807F0E6FBE0
:1035400070BD0446274803F087FC01467A23264ACB
:10355000264807F0DBFB6168264807F0D7FB04220A
:103560002549606807F0DDFC0028E9D12348FFF712
:103570006DFF1C4E304603F06FFC01461A4D1B4C8C
:103580007F232A46204607F0C1FB1D4807F0BEFBFB
:10359000304603F061FC014680232A46204607F0AE
:1035A000B5FB184807F0B2FBCAE70E4803F054FC1D
:1035B00001468E230C4A0D4807F0A8FB124807F07D
:1035C000A5FBBDE7074803F047FC01469423064AE4
:1035D000064807F09BFB0D4807F098FBB0E700BFDB
:1035E000981B0020ACE60008E0E7000844DE000875
:1035F0003CE700085CE7000874E700088818002032
:103600007CE700088CE70008A0E70008C0E7000896
:103610007047000008B5054BD8681A6822EA000216
:103620001A605860FFF7F4FF08BD00BF001500588E
:10363000F0B58DB005460F462A4C94E80F000CAE4D
:1036400006E90F0005AB04F1100207CA83E8070082
:1036500001AE1C3494E80F0086E80F00B7F5007F38
:103660001BD00023022B22D80CAA02EB830252F8B3
:103670001C2CAA4215D20133F4E70133032B0ED8D8
:103680000CAA02EB830252F8102CAA42F5D30CAA22
:1036900002EB830353F82C5C0AE00023EEE70025DD
:1036A00006E00CAA02EB830353F82C5C00E0002533
:1036B0000D4A136823F007032B43136001F0CEFC7F
:1036C0000446094B1B6803F00703AB4206D001F028
:1036D000C5FC001B0228F4D9032000E000200DB037
:1036E000F0BD00BFF0DD00080040005810B5B02864
:1036F00016D90E4BDC6A4FF0B043D3F8083103F013
:103700000F030B4A52F82300B4FBF0F401F0BCFBAA
:1037100001460848A0FB0430800CFFF789FF10BD6C
:10372000C0F30310014B53F82040E4E79CE8000885
:103730003CE8000883DE1B434FF0B0439B6813F066
:103740000C030DD14FF0B0431B6803F0F003B02B16
:1037500004D81B09254A52F823007047B023F8E724
:10376000042B3ED0082B10D04FF0B043DB6803F0A1
:103770000303022B1FD0032B0FD14FF0B0431B6864
:1037800013F4801F2BD11A4B16E04FF0B0431B6887
:1037900013F4801F27D0174870474FF0B0431B68C1
:1037A00003F0F003B02B04D81B09104A52F8233061
:1037B00002E0B023F8E70F4B4FF0B042D068C0F3FF
:1037C000062000FB03F0D368C3F302130133B0FB00
:1037D000F3F0D3685B0F0133B0FBF3F07047054B98
:1037E000EAE7044870470248704700BF9CE80008B9
:1037F0000048E8010024F40008B5FFF79DFF4FF0F2
:10380000B0439B68C3F30313024A52F82330B0FB62
:10381000F3F008BD3CE80008002800F07E8338B5CE
:103820000446036813F0200F7FD04FF0B042936836
:10383000D26802F0030213F00C031DD00C2B19D038
:10384000E369002B00F09E804FF0B042136843F014
:103850000103136001F002FC05464FF0B0431B6802
:1038600013F0020F52D101F0F9FB401B0228F4D9EA
:1038700003205DE3012AE3D14FF0B0431B6813F04E
:10388000020F03D0E369002B00F04983606A4FF018
:10389000B0431B6803F0F003B02B20D8984220D926
:1038A000FFF724FF002840F03C83636A4FF0B042EA
:1038B000116821F0F0010B431360216A536823F46F
:1038C0007F4343EA01235360FFF796FFC44B186020
:1038D000C44B186801F078FB38B3012028E3B0230B
:1038E000DCE74FF0B042136823F0F0031843106098
:1038F000216A536823F47F4343EA01235360606ADB
:10390000FFF7F4FE0028DFD0012011E3636A4FF0D7
:10391000B042116821F0F0010B431360216A536833
:1039200023F47F4343EA01235360236813F0010F1C
:103930004AD04FF0B042936803F00C03D26802F013
:103940000302082B36D00C2B32D06368B3F5803FCE
:1039500063D04FF0B042136823F480331360636880
:10396000002B61D001F07AFB05464FF0B0431B6895
:1039700013F4003F28D101F071FB401B6428F4D9F7
:103980000320D5E24FF0B042136823F00103136027
:1039900001F064FB05464FF0B0431B6813F0020FC3
:1039A000C3D001F05BFB401B0228F4D90320BFE227
:1039B000032ACAD14FF0B0431B6813F4003F03D071
:1039C0006368002B00F0AF82236813F0020F50D021
:1039D0004FF0B042936803F00C03D26802F0030288
:1039E000042B33D00C2B2FD0E368002B77D04FF073
:1039F000B042136843F48073136001F02FFB054657
:103A00004FF0B0431B6813F4806F5ED101F026FBCA
:103A1000401B0228F4D903208AE24FF0B042136819
:103A200043F4803313609AE701F018FB05464FF02A
:103A3000B0431B6813F4003FC6D001F00FFB401BDE
:103A40006428F4D9032073E2022ACDD14FF0B043A9
:103A50001B6813F4806F03D0E368002B00F06582CD
:103A600021694FF0B042536823F0FE4343EA0163FB
:103A70005360236813F0180F00F0E8806269002A91
:103A800000F0B28013F0100F7AD04FF0B043D3F8AB
:103A9000943013F0020F38D14FF0B042D2F8943086
:103AA00043F00103C2F8943001F0D8FA05464FF014
:103AB000B043D3F8943013F0020F26D101F0CEFAC0
:103AC000401B0228F3D9032032E221694FF0B042B3
:103AD000536823F0FE4343EA01635360C9E74FF0A4
:103AE000B042136823F48073136001F0B7FA0546FF
:103AF0004FF0B0431B6813F4806FBAD001F0AEFAF8
:103B0000401B0228F4D9032012E24FF0B042D2F851
:103B1000943043F00403C2F8943001F09FFA054654
:103B20004FF0B043D3F8943013F0080F06D101F0F2
:103B300095FA401B0328F3D90320F9E1A1694FF05E
:103B4000B042D2F8943023F4706343EA0123C2F800
:103B50009430D2F8943023F00103C2F8943001F08D
:103B60007DFA05464FF0B043D3F8943013F0020FBE
:103B70006CD001F073FA401B0228F3D90320D7E17F
:103B80004FF0B042D2F8943043F00103C2F89430C1
:103B900001F064FA05464FF0B043D3F8943013F0C7
:103BA000020F06D101F05AFA401B0228F3D9032074
:103BB000BEE14FF0B042D2F8943023F00403C2F8D3
:103BC00094304FF0B043D3F8943013F0080F3DD049
:103BD00001F044FA401B0328F3D90320A8E100BFF9
:103BE00018000020140000204FF0B042D2F89430AA
:103BF00023F00403C2F8943001F030FA05464FF088
:103C0000B043D3F8943013F0080F18D14FF0B042FE
:103C1000D2F8943023F00103C2F8943001F01EFA78
:103C200005464FF0B043D3F8943013F0020F0DD097
:103C300001F014FA401B0228F3D9032078E101F0C7
:103C40000DFA401B0328DAD9032071E1236813F031
:103C5000040F68D0B94B1B6813F4807F27D0A3688A
:103C6000012B35D0052B3CD04FF0B043D3F890203A
:103C700022F00102C3F89020D3F8902022F0040231
:103C8000C3F89020A368DBB301F0E8F905464FF0D4
:103C9000B043D3F8903013F0020F44D101F0DEF9B5
:103CA000401B41F288339842F1D9032040E101F0F2
:103CB000E3F801F0D3F90546A04B1B6813F4807FAD
:103CC000CDD101F0CBF9401B0228F5D903202FE11B
:103CD0004FF0B042D2F8903043F00103C2F8903078
:103CE000D0E74FF0B043D3F8902042F00402C3F87D
:103CF0009020D3F8902042F00102C3F89020C1E751
:103D000001F0ACF905464FF0B043D3F8903013F012
:103D1000020F08D001F0A2F9401B41F2883398420B
:103D2000F1D9032004E1236813F0400F33D0A36AD4
:103D3000C3B14FF0B042D2F8983043F00103C2F85B
:103D4000983001F08BF905464FF0B043D3F8983026
:103D500013F0020F1FD101F081F9401B0228F3D9A3
:103D60000320E5E04FF0B042D2F8983023F0010391
:103D7000C2F8983001F072F905464FF0B043D3F81D
:103D8000983013F0020F06D001F068F9401B0228AA
:103D9000F3D90320CCE0E36A002B00F0C8804FF099
:103DA000B042916801F00C01D268022B23D00C299B
:103DB00000F0C1804FF0B0431A6822F080721A60A0
:103DC000DA6822F00302DA60DA6822F0885222F41C
:103DD0008032DA6001F042F904464FF0B0431B68CC
:103DE00013F0007F00F0978001F038F9001B0228E3
:103DF000F3D903209CE002F00303206B83420AD036
:103E00000C2900F096804FF0B0431B6813F0806FD0
:103E100022D001208CE002F07003606B8342EFD16E
:103E2000C2F30623A06B8342EAD102F47813E06B5D
:103E30008342E5D102F06063206C8342E0D102F05E
:103E40006042636C9A42DBD14FF0B0431B6813F0C1
:103E5000007F44D000206BE04FF0B042136823F0A5
:103E60008073136001F0FAF805464FF0B0431B6809
:103E700013F0007F06D001F0F1F8401B0228F4D9BE
:103E8000032055E04FF0B042D3682D491940236B11
:103E9000606B0343A06B43EA0023E06B0343206C99
:103EA0000343606C03430B43D360136843F0807398
:103EB0001360D36843F08053D36001F0CFF8044619
:103EC0004FF0B0431B6813F0007F06D101F0C6F835
:103ED000001B0228F4D903202AE0002028E04FF03C
:103EE000B0431A6842F080721A60DA6842F0805279
:103EF000DA6001F0B3F804464FF0B0431B6813F0EA
:103F0000007F06D101F0AAF8031B022BF4D903208D
:103F10000EE000200CE000200AE0012070470120A4
:103F200006E0012004E0012002E0012000E0002082
:103F300038BD0120FCE70120FAE700BF000400586B
:103F40008C80C111002800F0278170B50C46054611
:103F5000934B1B6803F007038B422DD32B6813F0A0
:103F6000020F3FD12B6813F0200F53D12B6813F0B1
:103F7000400F6AD12B6813F0040F40F083802B6848
:103F800013F0080F40F097802B6813F0010F00F03A
:103F9000DE806B68022B00F0A880032B00F0AD8060
:103FA000002B40F0B2804FF0B042126812F0020FC6
:103FB00040F0B1800120EEE0794A136823F0070356
:103FC0000B43136001F04AF80646754B1B6803F07B
:103FD0000703A342C2D001F041F8801B0228F4D9A4
:103FE0000320D8E0AB684FF0B0418A6822F0F002BD
:103FF00013438B6001F032F806464FF0B0439B68E4
:1040000013F4803FAED101F029F8801B0228F4D9C7
:104010000320C0E06B694FF0B041D1F8082122F0D5
:10402000F0021343C1F8083101F018F806464FF0CA
:10403000B043D3F8083113F4003F97D101F00EF8E4
:10404000801B0228F3D90320A5E0A9694FF0B042F4
:10405000D2F8083123F00F0343EA1113C2F80831F4
:1040600000F0FCFF06464FF0B043D3F8083113F4DC
:10407000803F7FF47FAF00F0F1FF801B0228F2D970
:10408000032088E0EB684FF0B0418A6822F4E062D8
:1040900013438B6000F0E2FF06464FF0B0439B688D
:1040A00013F4003F7FF46BAF00F0D8FF801B0228B1
:1040B000F3D903206FE029694FF0B042936823F4ED
:1040C000605343EAC103936000F0C8FF06464FF017
:1040D000B0439B6813F4802F7FF456AF00F0BEFF0F
:1040E000801B0228F3D9032055E04FF0B04212683C
:1040F00012F4003F0FD101204DE04FF0B0421268A2
:1041000012F0007F07D1012045E04FF0B042126865
:1041100012F4806F42D04FF0B0418A6822F003025F
:1041200013438B6000F09AFF06464FF0B0439B6844
:1041300003F00C036A68B3EB820F08D000F08EFF27
:10414000801B41F288339842EFD9032023E0144BBF
:104150001B6803F00703A34215D9114A136823F023
:1041600007032343136000F079FF05460C4B1B68DF
:1041700003F00703A34206D000F070FF401B0228A3
:10418000F4D9032007E0FFF737FB064B186000F077
:104190006BFF00F019FF70BD012070470120FAE7A6
:1041A000004000581800002008B5FFF725FB4FF02D
:1041B000B0439B68C3F30223034A52F8233003F051
:1041C0001F03D84008BD00BF7CE8000808B5FFF712
:1041D00013FB4FF0B0439B68C3F3C223034A52F86A
:1041E000233003F01F03D84008BD00BF7CE800085F
:1041F00070B505464FF0B042136823F0806313603A
:1042000000F02CFF04464FF0B0431B6813F0006F22
:1042100006D000F023FF001B0228F4D9032400E09D
:1042200000240CB1204670BD4FF0B0431A6922F44F
:10423000FE42296842EA01221A611A6922F47812C0
:1042400069680A431A611A6842F080621A6000F0D5
:1042500005FF06464FF0B0431B6813F0006F05D111
:1042600000F0FCFE801B0228F4D90324002CD9D1D5
:104270004FF0B042136929690B431361D2E770B55F
:1042800005464FF0B042136823F08063136000F0DE
:10429000E5FE04464FF0B0431B6813F0006F06D0F4
:1042A00000F0DCFE001B0228F4D9032400E0002407
:1042B0000CB1204670BD4FF0B0431A6922F4FE42A3
:1042C000296842EA01221A611A6922F06062A9682B
:1042D0000A431A611A6842F080621A6000F0BEFE5A
:1042E00006464FF0B0431B6813F0006F05D100F095
:1042F000B5FE801B0228F4D90324002CD9D14FF03D
:10430000B042136929690B431361D2E770B50546C2
:104310004FF0B042136823F08063136000F09EFEFC
:1043200004464FF0B0431B6813F0006F06D000F056
:1043300095FE001B0228F4D9032400E000240CB1F0
:10434000204670BD4FF0B0431A6922F4FE4229683E
:1043500042EA01221A611A6922F06042E9680A43BE
:104360001A611A6842F080621A6000F077FE064611
:104370004FF0B0431B6813F0006F05D100F06EFEE4
:10438000801B0228F4D90324002CD9D14FF0B0426D
:10439000136929690B431361D2E770B504460368BA
:1043A00013F0400F2FD0036BB3F5800F21D00AD844
:1043B00033B90430FFF71CFF064658B1054624E028
:1043C00001252E4621E0B3F5000F1AD0B3F5400FBA
:1043D0000CD10026236B4FF0B041D1F8882022F495
:1043E00040021343C1F8883000250EE001252E4617
:1043F0000BE04FF0B042D36843F48033D360002623
:10440000E8E70026E6E700252E46236813F4006F50
:104410000AD04FF0B043D3F8905005F44075236CA8
:10442000AB4240F0D5803546236813F0010F09D028
:10443000A3694FF0B041D1F8882022F00302134362
:10444000C1F88830236813F0020F09D0E3694FF0F8
:10445000B041D1F8882022F440621343C1F888307B
:10446000236813F0100F0CD0A06A4FF0B041D1F8C0
:104470008830020C120423EA020343EA0043C1F825
:104480008830236813F0200F0CD0E06A4FF0B04161
:10449000D1F88830020C120423EA020343EA0043F5
:1044A000C1F88830236813F0040F0FD0236A4FF04F
:1044B000B040D0F88820190901F47F2122EA0102D6
:1044C0001B0103F47F231343C0F88830236813F0E3
:1044D000080F0FD0636A4FF0B040D0F88820190958
:1044E00001F47F2122EA01021B0103F47F2313431D
:1044F000C0F88830236813F4807F13D0636B4FF0CB
:10450000B041D1F8882022F040621343C1F88830CE
:10451000636BB3F1006F00F09C80636BB3F1806F4D
:1045200000F09C80236813F4007F17D0A36BB3F1D5
:10453000804F05D0B3F1004F02D0002B40F09680A1
:104540004FF0B041D1F8882022F040421343C1F827
:104550008830A36BB3F1C05F00F09A80236813F436
:10456000806F13D0E36B4FF0B041D1F8882022F078
:1045700040521343C1F88830E36BB3F1005F00F0A1
:104580008E80E36BB3F1805F00F08E80236813F4BC
:10459000805F09D0636C4FF0B041D1F8942022F4D1
:1045A00040421343C1F89430236813F4005F0DD0E8
:1045B000E26C4FF0B043596A21F030010A435A626D
:1045C000A26C596A21F003010A435A62284670BD61
:1045D00000F052FC5DB9236C4FF0B041D1F890204F
:1045E00022F440721343C1F8903035461CE74FF077
:1045F000B043D3F89020D3F8901041F48031C3F841
:104600009010D3F8901021F48031C3F8901022F468
:104610004072216C0A43C3F89020D3F8903013F015
:10462000010F12D000F01AFD05464FF0B043D3F849
:10463000903013F0020F0AD100F010FD401B41F240
:1046400088339842F1D90325EEE63546ECE6354647
:10465000EAE6CB6843F08073CB605EE7201DFFF78E
:104660000EFE00283FF45EAF05465BE723F0805363
:104670004FF0B042D2F8881021F04041C2F88810C3
:10468000D2F8881021F040610B43C2F8883060E70F
:104690004FF0B042D36843F08073D3605EE7CB68DD
:1046A00043F48033CB606CE7201DFFF72FFE00281A
:1046B0003FF46CAF054669E710B4064C616941F000
:1046C000010161610260BFF36F8F43605DF8044BCD
:1046D000704700BF00400058094B5B69002B01DBAD
:1046E00000207047064B074A9A6002F188329A60B0
:1046F0005B69002B01DB002070470120704700BF81
:104700000040005823016745054B5A6942F00042BA
:104710005A615B69002B01DB012070470020704764
:104720000040005838B5054600F098FC04461B4B85
:104730001B6913F4803F06D000F090FC001BA842D8
:10474000F5D3032038BD154B1B6913F0010F02D0C0
:10475000124A0121116113F4004F05D00F4A4FF4A2
:104760000041116123F400434CF2FA32134001D0AE
:104770000A4A13615BB9094B1B6913F4802F0AD0F5
:1047800000F06CFC001BA842F5D30320DAE7044AD2
:1047900053600120D6E70020D4E700BF0040005856
:1047A00084040020F8B51F46154B1B78012B25D03B
:1047B00004460D461646124B01221A7000225A601A
:1047C0004FF47A70FFF7AEFF70B9012C10D031466C
:1047D000284609F0C7FA4FF47A70FFF7A3FF094A99
:1047E000536923EA04045461054B00221A70F8BD92
:1047F00032463B462846FFF75FFFECE70220F6E72C
:104800008404002000400058164B1B6813F4007FFE
:1048100010D0144B1A6822F400721A601A6842F41D
:1048200000621A601A6822F400621A601A6842F480
:1048300000721A600B4B1B6813F4806F10D0094B89
:104840001A6822F480621A601A6842F480521A6070
:104850001A6822F480521A601A6842F480621A6060
:10486000704700BF00400058034A536923F4FF63B8
:1048700023F002035361704700400058054A536912
:1048800023F4FF6343EAC00040F4803040F00200AC
:104890005061704700400058F8B51A4B1B78012B47
:1048A0002ED004460E46174B01221A7000225A6081
:1048B0004FF47A70FFF736FF074620B92368022BC2
:1048C00006D0FFF7A1FF0F4B00221A703846F8BD43
:1048D0004FF0FF33336065686368A2681344AB42EE
:1048E0000BD92846FFF7CAFF4FF47A70FFF71AFF7B
:1048F000074608B90135EFE73560FFF7B5FFE0E798
:104900000227E3E784040020F0B400235FE0866818
:104910005F000325BD4026EA0506CD68BD4035434E
:104920008560466826EA04064D68C5F300149C407D
:104930003443446059E0DD08083550F8257003F031
:104940000704A6000F24B44027EA04070C69B4400A
:104950003C4340F825405CE0042400E00024B440DF
:104960003C430235474E46F82540474C2568D44322
:1049700025EA02064F6817F4801F01D042EA0506B7
:10498000414D2E606D6804EA05064F6817F4001F5C
:1049900001D042EA05063C4D6E60D5F8805004EA2D
:1049A00005064F6817F4803F01D042EA0506364DF0
:1049B000C5F88060D5F884502C404E6816F4003F4E
:1049C00001D042EA0504304AC2F8844001330A6843
:1049D00032FA03F454D001249C402240F6D04D68B2
:1049E00005F00305013D012D91D94C6804F0030445
:1049F000032C09D0C5685E000324B44025EA0405F1
:104A00008C68B4402C43C4604C6804F00304022C4E
:104A100091D005685E000324B44025EA04054C6883
:104A200004F00304B4402C4304604C6814F4403F89
:104A3000CCD09D08AE1C134C54F8267003F0030430
:104A4000A6000F24B44027EA0407B0F1904F85D0A8
:104A50000E4CA0420ED004F58064A0420CD004F5A8
:104A60008064A0420AD004F58064A0423FF474AF91
:104A7000072474E7012472E7022470E703246EE739
:104A8000F0BC7047000001400008005800040048D6
:104A90000AB1816170478162704770B4C46C056D62
:104AA0006560446D14B1846DC56D6560446C04F03F
:104AB0001C05066C0124AC40746004686360836864
:104AC000102B05D0036899600368DA6070BC7047EA
:104AD00003689A600368D960F8E700000368104A29
:104AE000934215D8426C22F0030202F1804202F593
:104AF00002328264DBB2083B0A4AA2FB03230A4A61
:104B0000C264C3F30413012202FA03F3036570477E
:104B1000426C22F00301054A0A448264EAE700BFBE
:104B200007040240CDCCCCCC800802401C080240D7
:104B3000436803F03F03074A1A4492004265064A5D
:104B40008265013B03F00303012202FA03F3C3650C
:104B5000704700BF3F8200104009024000285DD02E
:104B600010B5044601682E4B99423FD82D4B0B449B
:104B70002D4AA2FB03231B099B0043642B4B0364B8
:104B8000022384F825300A6822F4FF4222F07002E2
:104B9000A368E06803432069034360690343A06995
:104BA0000343E0690343206A034313430B60204639
:104BB000FFF794FFA368B3F5804F22D06368A26C1F
:104BC00003F03F031360E36C226D5A606368013B9E
:104BD000032B19D900236365A365E3650020E06317
:104BE000012384F8253084F8240010BD104B0B44B9
:104BF0000D4AA2FB03231B099B0043640D4B036476
:104C0000BEE700236360D9E72046FFF791FF636D9D
:104C100000221A60A36DE26D5A60DFE70120704741
:104C200007040240F8FFFDBFCDCCCCCC0000024011
:104C3000F8FBFDBF0004024038B5044690F824009C
:104C4000012841D0012084F8240094F82500C0B246
:104C5000012804D0002384F82430022038BD02202B
:104C600084F825000020E0632568286820F0010012
:104C700028602046FFF711FF236BD3B12268136829
:104C800043F00E031360A36C1A6812F4803F03D044
:104C90001A6842F480721A60636D1BB11A6842F49C
:104CA00080721A602268136843F0010313600020C9
:104CB000D4E72268136823F00403136022681368A2
:104CC00043F00A031360DEE70220C7E7034600282B
:104CD00034D090F82520D2B2022A06D00422C26332
:104CE000002280F824200120704701680A6822F021
:104CF0000E020A60816C0A6822F480720A60016800
:104D00000A6822F001020A60426C02F01C01006C89
:104D100001228A404260DA6C196D51605A6D32B1DD
:104D2000116821F4807111609A6DD96D5160012272
:104D300083F82520002083F8240070470120704765
:104D400008B590F82530DBB2022B03D00423C363EF
:104D5000012008BD0268136823F00E031360026887
:104D6000136823F001031360826C136823F48073CB
:104D70001360436C03F01C02016C012393404B60F1
:104D8000C36C026D5A60436D33B11A6822F48072AD
:104D90001A60836DC26D5A60012380F825300023AC
:104DA00080F82430836B13B198470020D1E70020AE
:104DB000CFE738B5036C196804682568436C03F0C5
:104DC0001C0304229A400A4215D015F0040F12D099
:104DD000236813F0200F03D1236823F0040323601A
:104DE000436C03F01C02016C042393404B60036B83
:104DF00003B1984738BD02229A400A421CD015F0F0
:104E0000020F19D0236813F0200F06D1236823F076
:104E10000A032360012380F82530436C03F01C0251
:104E2000016C022393404B60002380F82430C36A56
:104E3000002BDFD09847DDE7082202FA03F30B428C
:104E4000D8D015F0080FD5D0236823F00E032360C7
:104E5000436C03F01C03016C012202FA03F34B6064
:104E6000C26380F82520002380F82430436B002B98
:104E7000C0D09847BEE70000024A136843F480732D
:104E80001360704700040058024B186800F4C060BB
:104E9000704700BF00040058074AD36823F4E0635A
:104EA0001B041B0C000200F4E060034343F0BF63EB
:104EB00043F40033D360704700ED00E030B4174B8B
:104EC000DB68C3F30223C3F10704042C28BF0424C6
:104ED0001D1D062D18D9033B4FF0FF3505FA04F4CC
:104EE00021EA0401994005FA03F322EA0303194376
:104EF00000280BDB0901C9B200F1604000F56140F8
:104F000080F8001330BC70470023E5E700F00F0085
:104F10000901C9B2024B1954F4E700BF00ED00E0EB
:104F200014ED00E0002807DB00F01F024009012318
:104F30009340024A42F82030704700BF00E100E091
:104F400000280CDB00F01F024009012393402030B1
:104F5000034A42F82030BFF34F8FBFF36F8F704783
:104F600000E100E00138B0F1807F0AD2064B5860C2
:104F7000064AF02182F823100020986007221A6068
:104F800070470120704700BF10E000E000ED00E036
:104F9000002808DB00F01F02400901239340403045
:104FA000014A42F82030704700E100E0002808DBA9
:104FB00000F01F024009012393406030014A42F88B
:104FC0002030704700E100E0114B1B780BB9012045
:104FD000704710B50446FEF70FFC0D4B1A784FF4DE
:104FE0007A73B3FBF2F3B0FBF3F0FFF7BBFF68B9E2
:104FF0000F2C01D901200AE0002221464FF0FF309A
:10500000FFF75CFF034B1C60002000E0012010BD97
:10501000120000201400002010B5094A136843F460
:10502000807313600320FFF737FF0020FFF7CCFFEA
:1050300010B10124204610BD0446FDF7FDF9F9E743
:1050400000400058034B1B78034A11680B4413605F
:10505000704700BF12000020A01B0020014B186801
:10506000704700BFA01B0020014B1868704700BFAD
:1050700014000020024A536843F001035360704754
:10508000002004E0024A536843F002035360704773
:10509000002004E0704770470023052B0AD800EB7E
:1050A0008302054951609A1D00EB82020349516059
:1050B0000133F2E7704700BF955000089750000891
:1050C000002303604FF03F1343603F23836070472A
:1050D000C0B138B5044690F8383083B10A4D28463F
:1050E000FFF7EEFF2B6843F001132B602046FFF71C
:1050F000D3FF00206063012384F8383038BDFDF70A
:10510000E9F9EBE701207047000C0058026852E80B
:10511000003F23F0C00342E800310029F6D10268C5
:1051200002F1080353E8003F23F40003083242E889
:1051300000310029F3D12023C0F884307047026881
:1051400052E8003F23F4907342E800310029F6D181
:10515000026802F1080353E8003F23F0805323F074
:105160000103083242E800310029F1D1C36E012B5E
:1051700006D02023C0F888300023C3660367704739
:10518000026852E8003F23F0100342E80031002992
:10519000F6D1EEE7D0F88430202B4CD110B5044680
:1051A00000294AD0002A4AD090F88030012B48D0FC
:1051B000012380F880300165A0F85420A0F8562023
:1051C0000023C0F88C302123C0F88430836FF3B102
:1051D0001D49D962836F1D491963836F1C49596347
:1051E000836F002199630168134601F12802016D64
:1051F000806FFFF721FD50B11023C4F88C300023DD
:1052000084F880302023C4F88430012012E0236821
:1052100040221A62002384F88030226802F10803D9
:1052200053E8003F43F08003083242E80031002990
:10523000F3D1002010BD022070470120FAE70120C1
:10524000F8E70220F6E700BF55520008C3520008F5
:10525000CF52000808B50346806A1B681B6813F02C
:10526000200F18D10023A0F85630026802F108037D
:1052700053E8003F23F08003083242E80031002960
:10528000F3D1026852E8003F43F0400342E80031A6
:105290000029F6D108BDFDF74FF8FBE708B5026815
:1052A00052E8003F23F0400342E800310029F6D1E4
:1052B0002023C0F8843000234367FDF73DF808BD84
:1052C000704708B5806AFFF7FBFF08BD704738B527
:1052D000846AD4F88420D4F8885023689B6813F03B
:1052E000800F01D0212A10D023689B6813F0400F53
:1052F00001D0222D10D0D4F88C3043F01003C4F824
:105300008C302046FFF7E2FF38BD0023A4F856306A
:105310002046FFF7FBFEE7E70023A4F85E302046B7
:10532000FFF70DFFE7E708B5806A0023A0F85E30BD
:10533000A0F85630FFF7CAFF08BD704770B50446A5
:105340000168CB6908688D6840F60F021A4008D1E1
:1053500013F0200F05D010F0200F34D115F0805F2E
:1053600031D12AB1BD4A2A4033D1BD4E304230D16D
:10537000E26E012A00F0C38013F4801F03D015F4FD
:10538000800F40F0558113F0800F07D010F0800F90
:1053900040F0558115F4000F40F0518113F0400F9B
:1053A00003D010F0400F40F0518113F4000F03D0F0
:1053B00010F0804F40F04E8113F0807F02D0002823
:1053C000C0F2528170BD236F002BFBD0204698475E
:1053D000F8E713F0010F09D010F4807F06D0012602
:1053E0000E62D4F88C103143C4F88C1013F0020F05
:1053F0000BD015F0010F08D0216802260E62D4F8F8
:105400008C1041F00401C4F88C1013F0040F0BD081
:1054100015F0010F08D0216804260E62D4F88C1014
:1054200041F00201C4F88C1013F0080F0BD010F0FB
:10543000200F00D13AB1226808211162D4F88C20E3
:105440000A43C4F88C2013F4006F0CD010F0806F66
:1054500009D022684FF400611162D4F88C2042F028
:105460002002C4F88C20D4F88C20002AAAD013F093
:10547000200F09D010F0200F02D115F0805F03D06B
:10548000236F0BB120469847D4F88C2023689B6883
:1054900013F0400F02D112F0280F29D02046FFF759
:1054A0004EFE23689B6813F0400F1DD0226802F166
:1054B000080353E8003F23F04003083242E800317C
:1054C0000029F3D1E36F5BB1664A9A63E06FFFF79F
:1054D00037FC00283FF476AFE06F836B984771E7A5
:1054E0002046FFF7F3FE6DE72046FFF7EFFE69E782
:1054F0002046FFF7EBFE0023C4F88C3062E713F080
:10550000100F3FF439AF10F0100F3FF435AF1023F8
:105510000B6223689B6813F0400F4FD0E26F136853
:105520005B689BB2002B3FF44DAFB4F85C1099421E
:105530007FF648AFA4F85E3013681B6813F0200FA5
:1055400031D1226852E8003F23F4807342E80031F1
:105550000029F6D1226802F1080353E8003F23F046
:105560000103083242E800310029F3D1226802F138
:10557000080353E8003F23F04003083242E80031BB
:105580000029F3D12023C4F888300023E366226881
:1055900052E8003F23F0100342E800310029F6D121
:1055A000E06FFFF793FBB4F85C10B4F85E309BB289
:1055B000C91A89B22046FFF7C0FE03E7B4F85C10B1
:1055C000B4F85E309BB2C91A89B2B4F85E309BB2AF
:1055D000002B3FF4F7AE00293FF4F4AE226852E806
:1055E000003F23F4907342E800300028F6D122688F
:1055F00002F1080353E8003F23F0805323F0010336
:10560000083242E800300028F1D12023C4F8883065
:105610000023E3662367226852E8003F23F010036B
:1056200042E800300028F6D12046FFF786FEC9E6A2
:105630004FF480130B62204600F0B6FAC2E6636FA7
:10564000002B3FF4BFAE20469847BBE62046FFF74D
:1056500025FEB7E6204600F0A9FAB3E601000010E7
:105660002001000427530008204600F09EFAA9E616
:105670002DE9F041044601688368026913434269D9
:105680001343C269134308688F4A024013430B60F7
:105690002268536823F44053E1680B435360A169C7
:1056A00022688A4B9A4201D0236A1943936823F0F7
:1056B0006E4323F430630B4393602268D36A23F074
:1056C0000F03616A0B43D3622268814B9A4219D05F
:1056D0007E4B9A422AD010237C498A4245D0E06909
:1056E000B0F5004F00F08280013B072B00F2E6800E
:1056F000DFE813F0AC00AA00E400CE00E400E40010
:10570000E400D1004FF0B043D3F8883003F0030336
:10571000032B09D8DFE803F002041F060123DBE7AF
:105720000423D9E70823D7E71023D5E74FF0B04388
:10573000D3F8883003F44063B3F5006F0DD005D87B
:105740006BB1B3F5806F0CD10423C5E7B3F5406F9F
:1057500009D10823C0E70223BEE70223BCE70023E8
:10576000BAE71023B8E71023B6E7082B00F29680BB
:10577000DFE803F008943A943794949405004FF4CA
:10578000004004E0FEF710FD002800F08980626A06
:10579000504B33F81220B0FBF2F3656805EB45017E
:1057A00099427FD8B3EB053F7ED84FF0000892B204
:1057B00000234146FBF730FA0F0247EA1067060262
:1057C00068082A464346301847F10001FBF724FADF
:1057D000A0F54072404B9A4268D82368D860404692
:1057E0004CE0FDF7A9FFCFE73C48D0E7013B072B92
:1057F0005ED8DFE803F006045D265D5D5D0A37488C
:1058000003E0FEF7E3FC002854D0626A314B33F822
:105810001230B0FBF3F06268530803EB4000B0FBBA
:10582000F2F080B2A0F110024FF6EF739A4243D823
:1058300020F00F03C0F3420018432368D860002013
:105840001CE0FDF779FFDEE7244802E0FEF7BEFC2E
:10585000B0B3626A1F4B33F81230B0FBF3F06368E9
:1058600000EB5300B0FBF3F080B2A0F110024FF652
:10587000EF739A4226D82368D86000200123A4F849
:105880006A30A4F86830002323676367BDE8F081BD
:10589000FDF752FFDCE74FF40040DAE70120EDE7C7
:1058A0000020EBE70120E9E70120E7E70120E5E739
:1058B0000120E3E70020E1E70120DFE70120DDE749
:1058C0000020DBE70120D9E7F369FFCF008000402B
:1058D0000038014014E80008FFFC0F000024F40029
:1058E000836A13F0010F06D00268536823F4003373
:1058F000C16A0B435360836A13F0020F06D002683B
:10590000536823F48033016B0B435360836A13F0B5
:10591000040F06D00268536823F48023416B0B43C5
:105920005360836A13F0080F06D00268536823F4AB
:105930000043816B0B435360836A13F0100F06D052
:105940000268936823F48053C16B0B439360836AAE
:1059500013F0200F06D00268936823F40053016C03
:105960000B439360836A13F0400F0AD002685368B8
:1059700023F48013416C0B435360436CB3F5801FD9
:105980000BD0836A13F0800F06D00268536823F4AB
:105990000023C16C0B43536070470268536823F4C3
:1059A000C003816C0B435360EBE72DE9F8430546D8
:1059B0000F4616469946DDF820802C68E46937EAE0
:1059C00004030CBF01240024B44257D1B8F1FF3FB7
:1059D000F3D0FFF743FBA0EB090040452FD8B8F107
:1059E000000F2CD02B681A6812F0040FE5D0DA698A
:1059F00012F4006FE1D04FF400621A622A6852E894
:105A0000003F23F4D07342E800310029F6D12A6820
:105A100002F1080353E8003F23F00103083242E893
:105A200000310029F3D12023C5F88430C5F888302F
:105A3000C5F88C30002385F8803003201FE02A68E9
:105A400052E8003F23F4D07342E800310029F6D138
:105A50002A6802F1080353E8003F23F001030832EB
:105A600042E800310029F3D12023C5F88430C5F87D
:105A70008830002385F88030032000E00020BDE856
:105A8000F88330B583B004460023C0F88C30FFF7AC
:105A9000E5FA054623681B6813F0080F0FD1236849
:105AA0001B6813F0040F18D12023C4F88430C4F805
:105AB00088300020E06684F8800003B030BD6FF0CD
:105AC0007E430093034600224FF400112046FFF767
:105AD0006CFF0028E3D00320EFE76FF07E430093D4
