:020000040800F2
:1000000000000320B1620008B5160008B71600080A
:10001000B9160008BB160008BD1600080000000055
:10002000000000000000000000000000BF160008F3
:10003000C116000800000000C3160008C51600081D
:10004000056300080563000805630008CD16000875
:1000500005630008056300080563000805630008E0
:1000600005630008056300080563000805630008D0
:100070000563000805630008D5160008056300083D
:1000800005630008056300080563000805630008B0
:1000900005630008056300080563000805630008A0
:1000A0000563000805630008056300080563000890
:1000B0000563000805630008056300080563000880
:1000C0000563000805630008056300080563000870
:1000D000E5160008F516000805630008056300082A
:1000E0000563000805630008056300080563000850
:1000F000051700080D17000815170008056300080C
:10010000056300080563000805630008056300082F
:10011000056300080563000805630008056300081F
:1001200005630008056300081D1700080563000843
:0C01300005630008056300080563000873
:1001400010B5054C237833B9044B13B10448AFF311
:1001500000800123237010BDE40100200000000096
:10016000C073000808B5034B1BB103490348AFF344
:10017000008008BD00000000E8010020C0730008F6
:1001800001F0FF01102A2BDB10F0070F08D010F848
:10019000013B013A8B422DD010F0070F42B3F6D14C
:1001A000F0B441EA012141EA014122F007047FF065
:1001B00000070023F0E80256083C85EA010586EABC
:1001C000010685FA47F5A3FA87F586FA47F6A5FAF8
:1001D00087F68EB9EED1F0BC01F0FF0102F0070204
:1001E00032B110F8013B013A83EA010313B1F8D1AF
:1001F0000020704701387047002D06BF3546033890
:10020000073815F0010F07D1013015F4807F02BFC8
:10021000013015F4C03F0130F0BC0138704700BF19
:1002200053B94AB9002908BF00281CBF4FF0FF315D
:100230004FF0FF3000F06EB9ADF1080C6DE904CE5F
:1002400000F006F8DDF804E0DDE9022304B07047B1
:100250002DE9F047089D04468C46002B40F0838032
:100260008A42174647D9B2FA82F242B1C2F120005F
:1002700024FA00F09140974040EA010C94404FEA84
:100280001748230CBCFBF8F61FFA87FE08FB16C1C3
:1002900043EA014306FB0EF1994209D9FB1806F126
:1002A000FF3080F01981994240F21681023E3B44B2
:1002B0005B1AA4B2B3FBF8F008FB103344EA034422
:1002C00000FB0EFEA64509D93C1900F1FF3380F072
:1002D0000581A64540F2028102383C4440EA0640CE
:1002E000A4EB0E0400261DB1D4400023C5E9004351
:1002F0003146BDE8F08702B9FFDEB2FA82F2002A89
:1003000050D1CB1B4FEA174E1FFA87F80126B3FBDB
:10031000FEFC210C0EFB1C3341EA034108FB0CF3ED
:100320008B4207D979180CF1FF3002D28B4200F2D0
:10033000E9808446C91AA3B2B1FBFEF00EFB10118E
:1003400043EA014408FB00F8A04507D93C1900F135
:10035000FF3302D2A04500F2D9801846A4EB08046E
:1003600040EA0C40BFE78B4209D9002D00F0B18074
:100370000026C5E9000130463146BDE8F087B3FAF2
:1003800083F6002E4AD18B4202D3824200F2B8801B
:10039000841A61EB030101208C46002DA8D0C5E929
:1003A000004CA5E7C2F1200320FA03F6974001FABA
:1003B00002F04FEA174ED9403043030CB1FBFEF672
:1003C0001FFA87F80EFB161143EA014306FB08F1FA
:1003D000994204FA02F409D9FB1806F1FF3C80F0B7
:1003E0008D80994240F28A80023E3B445B1A81B282
:1003F000B3FBFEF00EFB103341EA034100FB08F3B0
:100400008B4207D9791800F1FF3C73D28B4271D926
:1004100002383944CB1A40EA064678E7C6F1200C88
:1004200003FA06F422FA0CF31C4320FA0CF701FA43
:1004300006F34FEA144E21FA0CF11F433B0CB1FBBB
:10044000FEF91FFA84F80EFB191143EA014109FB7A
:1004500008FA8A4502FA06F200FA06F308D961188A
:1004600009F1FF3048D28A4546D9A9F10209214451
:10047000A1EB0A01BFB2B1FBFEF00EFB101147EA7F
:10048000014700FB08F8B84507D9E71900F1FF312B
:100490002ED2B8452CD90238274440EA0940A7EBB0
:1004A0000807A0FB02894F45C64649461AD317D014
:1004B0005DB1B3EB0E0267EB010707FA0CFCF240EB
:1004C0004CEA0202F740C5E9002700263146BDE8A4
:1004D000F0872E4628460BE70646E9E61846FDE675
:1004E0004345E5D2B8EB020E69EB04010138DFE7C2
:1004F0000846D2E760468DE78146B9E7664675E76C
:1005000030464AE7ACF1020C394413E702383C4468
:1005100024E700BF704700BF84B04FF0B043DA6CEF
:1005200042F00402DA64DA6C02F004020392039AE5
:10053000DA6C42F00102DA64DA6C02F00102029233
:10054000029ADA6C42F00202DA64DB6C03F0020316
:100550000193019B04B0704700B585B04FF0B043E4
:100560009A6C42F004029A649A6C02F004020392BC
:10057000039A9A6C42F001029A649A6C02F00102AA
:100580000292029A9A6C42F002029A649B6C03F007
:1005900002030193019B00220F210E2003F04EFA6B
:1005A0000E2003F07FFA00220F213A2003F046FAD2
:1005B0003A2003F077FA05B05DF804FB72B6FEE767
:1005C00008B50448044B036003F042FB00B908BDC2
:1005D000FFF7F4FF54130020000C005808B50E4834
:1005E0000E4B0360002343600F22826047F6FF72C8
:1005F000C26003618361C361436104F056F930B99D
:1006000000221146044804F0BDF910B908BDFFF7F7
:10061000D5FFFFF7D3FF00BF1015002000280040D2
:1006200008B50548054B03600023436004F0E8F873
:1006300000B908BDFFF7C2FF941500200010005854
:1006400010B59AB04822002108A805F08FFE0024BA
:10065000019402940394049405940694079403F07F
:10066000CBF94FF0B042D2F8903023F01803C2F823
:10067000903002F58062136823F4C06343F4007382
:100680001360136803F4C0630093009B472308932F
:100690004FF48033099301230A934FF480720B9235
:1006A000129340230C93139408A801F09DFF80B986
:1006B0006F23019302230293002303930493059372
:1006C00006930793012101A802F024FB18B91AB080
:1006D00010BDFFF773FFFFF771FF00B595B0402223
:1006E000002101A805F042FE4FF4405300934FF45F
:1006F000804311930223129310231393684602F050
:1007000034FD10B915B05DF804FBFFF757FF08B5CD
:1007100003F042FA00F074FAFFF792FFFFF7DDFFF3
:10072000FFF74EFFFFF7F8FEFFF716FFFFF756FF44
:10073000FFF776FF00F092FA00F0A0FAFCE7000065
:1007400008B51648164B03604FF4E13343600023AD
:100750008360C36003610C22426183614FF40042F5
:10076000C26103624362836203F085FF70B90021B6
:100770000A4803F0FBFF58B90021084804F01BF8B1
:1007800040B9064803F0D3FF30B908BDFFF716FFA4
:10079000FFF714FFFFF712FFFFF710FF8014002090
:1007A0000038014082B04FF0B0431A6D42F480121D
:1007B0001A651B6D03F480130193019B0A4B3F22C2
:1007C0009A609A615A6842F47C125A605A6942F4FB
:1007D0007C125A615A6842F03F025A605A6942F0EC
:1007E0003F025A6102B07047000C0058054BCA2204
:1007F0005A6253225A629A6822F007029A60FF22D4
:100800005A62704700280040704708B54FF0B04367
:10081000D3F8943013F0806F18D04FF0B043D3F872
:10082000943013F0805F11D103F0E6F803F0E4F8A0
:100830004FF0B043D3F8902042F48032C3F89020B8
:10084000D3F8902022F48032C3F8902008BD08B578
:10085000FFF7DBFFFFF7A6FF08BD000008B500208B
:1008600004F068FB68B181794FF0B042054BC2F8E3
:100870009C30D2F89C3023F47C5343EA0123C2F825
:100880009C3008BDFECAFECA08B54FF0B04293685E
:1008900043F40043936005F0B5FB054AD2F880307D
:1008A00023F0070343F00403C2F8803008BD00BF03
:1008B0000004005810B588B004F034F90F4A002144
:1008C000042005F0D9FC0E4C00940E4B01936946B0
:1008D0000D4805F08FFA04F58673029304F506734C
:1008E000039304F54974049440F23C53059302A821
:1008F00004F0DEF904F012F908B010BD195E00082A
:10090000E001032009080008650A000810B54468E2
:10091000154804F0B3FA01464FF4D173134A144852
:1009200005F02CFD617B134805F028FD637B6BB956
:100930000D4804F0A3FA014640F2A7130B4A0C48F5
:1009400005F01CFD0C4805F09FFD10BD064804F0A5
:1009500095FA014640F2AB13044A054805F00EFD36
:10096000064805F091FDF0E7547400086877000828
:100970006C74000880740008AC740008E47400080B
:10098000F0B585B00023009301930293ADF80C30CD
:1009900043685B7B8BB10446012B43D0294804F0AC
:1009A0006DFA014640F2ED13274A284805F0E6FCAF
:1009B000274805F069FD05B0F0BD224F384604F028
:1009C0005DFA0146204E214D4FF4E0733246284631
:1009D00005F0D4FC1F4805F057FD00F02DFA0D235B
:1009E0008DF800307F238DF802301B4B1C68240CDF
:1009F000384604F043FA01464FF4EC733246284679
:100A000005F0BCFC2146154805F0B8FCADF80C40DB
:100A1000684604F0BFF901F065FA0021012005F0F5
:100A2000FBFAC8E7074804F029FA01464FF4F373CC
:100A3000054A064805F0A2FC094805F025FD0023FB
:100A40002370B8E7547400087C7700086C740008C1
:100A50009475000818750008002004E04875000827
:100A6000687500082DE9F04184B00446D0F8048090
:100A7000684604F09DF9564F384604F0FFF90146E8
:100A8000544E554D4FF4B3733246284605F076FC6C
:100A90009DF802309DF801209DF800104F4805F0A8
:100AA0006DFC384604F0EAF9014640F2671332461D
:100AB000284605F063FC9DF80410494805F05EFCEB
:100AC000384604F0DBF901464FF4B4733246284649
:100AD00005F054FC9DF80C309DF80B209DF80A1091
:100AE000404805F04BFCB8F80B30A3F51243072B38
:100AF00008D8DFE803F0040A0E0730404E5E2046B7
:100B0000FFF73EFF04B0BDE8F0812046FFF7FEFE90
:100B1000F8E72F4E304604F0B1F901462D4D2E4C2A
:100B200040F275132A46204605F028FC2E4805F0B1
:100B3000ABFC304604F0A2F901464FF4BB732A46E1
:100B4000204605F01BFCD8F81120D8F80D102748D6
:100B500005F014FCD6E71E4804F090F901464FF466
:100B6000BE731C4A1C4805F009FCD8F80D1020483B
:100B700005F004FCC6E7164804F080F9014640F28F
:100B80008113144A144805F0F9FB1A4805F07CFC5F
:100B9000B8E70F4804F072F9014640F285130D4A98
:100BA0000D4805F0EBFBD8F80D10134805F0E6FBF7
:100BB000A8E7074804F062F901464FF4C573054AF7
:100BC000054805F0DBFB0D4805F05EFC9AE700BF29
:100BD00054740008547700086C740008C07500084D
:100BE000E4750008007600081876000844760008CE
:100BF00088760008BC760008D876000810770008D0
:100C000008B50A4804F03AF901465C23084A094845
:100C100005F0B4FB084805F0B1FB084B4FF4004267
:100C20001A61FFF714FEFFF719FE08BD547400089F
:100C3000447700086C7400082C77000800400058C6
:100C4000024BD3F89020C3F890207047000800585A
:100C500008B5FFF7F5FFFFF7C9FD08BD08B5FFF7B9
:100C6000F7FFFFF711FE0449002000F005FB00F03C
:100C7000CFF8FFF71FFE08BD1015002008B54FF094
:100C8000FF3005F03DFA08BD704708B54FF0FF3062
:100C900005F036FA08BD08B50021042005F0D2F9A8
:100CA00008BD08B5022005F0FFF908BD08B502200F
:100CB00005F0B6FA08BD000070B58CB000230B93A8
:100CC0001C461D461E4606E04E4A02EBC3018A88BA
:100CD00015430133DBB2252B1ED84A4A02EBC3026F
:100CE0009279002AF5D0474A52F83320464882428A
:100CF000EAD000F58060824208D0B2F1904FE8D18E
:100D0000404A02EBC3018A881643E2E73D4A02EB00
:100D1000C3018A881443DCE7002309930123089365
:100D200003230A9326B93DBB002C48D10CB070BDFB
:100D300007964FF0B043DA6C42F00102DA64DA6CE5
:100D400002F001020292029AD3F84C2142F0010211
:100D5000C3F84C21D3F84C3103F001030193019BFC
:100D600007A94FF0904002F08FFB002231464FF070
:100D7000904002F04DFCD6E707954FF0B043DA6C97
:100D800042F00202DA64DA6C02F002020492049A7F
:100D9000D3F84C2142F00202C3F84C21D3F84C3175
:100DA00003F002030393039B174E07A9304602F09A
:100DB0006BFB00222946304602F02AFCB4E7079478
:100DC0004FF0B043DA6C42F00402DA64DA6C02F0FD
:100DD00004020692069AD3F84C2142F00402C3F8AA
:100DE0004C21D3F84C3103F004030593059B074DC8
:100DF00007A9284602F048FB00222146284602F0B7
:100E000007FC93E7987700080004004800080048B2
:100E100008B502F0EFFE02F0F5FE064AD2F8903077
:100E200043F48033C2F8903004F03AF8FFF744FFFF
:100E300008BD00BF0008005830B589B001AC084DAE
:100E40000FCD0FC495E8070003C424F8022B120C41
:100E5000227003F05BFF01A803F08DFF09B030BDE5
:100E6000D873000808B5FFF76BFC08BD08B513463A
:100E70000A460146002000F0D9FB08BD064A936AE5
:100E80009BB2906A80B2834204D0034B9A6A0346B5
:100E900090B2F8E7704700BF0028004010B401EBA3
:100EA00041020E4B03EBC2035B7DDBB2062B05D088
:100EB00003EB4302094C04EBC2021075074A00EB36
:100EC000400402EBC4046375217501EB410102EBA0
:100ED000C10148755DF8044B704700BF8C000020CD
:100EE000184B93F89030DBB28B421ED010B4154BE8
:100EF00001EB410203EBC202127DD4B202EB4202CB
:100F000003EBC202507500EB400203EBC2025175C5
:100F100000EB400203EBC202147501EB410103EB4D
:100F2000C10318755DF8044B7047064B00EB400297
:100F300003EBC202517501EB410103EBC1010875DE
:100F4000704700BF8C00002030B4244B93F89030E1
:100F5000DBB283422AD0214C00EB400204EBC202F8
:100F6000157D537DDBB2527DD2B205EB450504EB16
:100F7000C5046275062B0BD0184A00EB400402EB47
:100F8000C404247DE4B203EB430302EBC3031C75EA
:100F9000124B00EB400003EBC0000122027393F8F8
:100FA0009030DBB2062B10D030BC70470B4B93F85F
:100FB0009020D2B283F8912000EB400203EBC202F2
:100FC000527DD2B283F89020E2E70029ECD1034BA6
:100FD0004FF0FF32C3F89420E6E700BF8C000020FA
:100FE00008B5124BD3F89430B3F1FF3F02D1002083
:100FF00080B208BDFFF742FF0C4BD3F89430834218
:101000000BD30A4BD3F89430181A094B1B7800FB0A
:1010100003F0084B1B78D840EAE7074B1B881B1AE4
:10102000024AD2F894001844EFE700BF8C00002079
:1010300000020020060200200402002070B50446D1
:10104000334B93F89030DBB2062B14D1304B93F82E
:101050009020D2B283F8912083F8900000EB4004F6
:1010600003EBC404062262754FF0FF32C3F89420EC
:101070000025284670BDFFF7B3FF0546244B04EB5F
:10108000440203EBC20291680144916004EB440204
:1010900003EBC202906893F8902002EB420203EB4C
:1010A000C2039B68834225D8194A92F89030D9B27E
:1010B00003EB430302EBC3035B7DDBB2062B15D0CE
:1010C00003EB4303124A02EBC3039B6883420DD830
:1010D0000F4A01EB410102EBC1014B7DD9B203EB99
:1010E000430302EBC3035B7DDBB2E7E72046FFF778
:1010F000D5FEBEE7064E96F890102046FFF7F0FEAC
:1011000096F89030DBB286F8913086F89040B0E7E0
:101110008C00002010B560B30446012832D9013C90
:10112000A4B21B4B1B681B68DA6812F0040FF8D0DE
:10113000DA68D2B262F49062DA60164B4FF40022A1
:10114000DA60032002F0F2FC134A53691B0C1B0403
:101150001C435461FFF792FE104BC3F894000C4BF4
:101160001B681A68936843F480639360AFF3008050
:1011700010BDFFF783FE094BC3F89400032002F073
:10118000C7FCF5E7064B1B78012BC8D1C9E700BFA8
:101190000802002000080058002800408C000020B1
:1011A0000602002070B5304B9B6813F4806F06D0A8
:1011B0002E4B1B681B68DB6813F0040FF8D12B4B18
:1011C0001B681A68936823F480639360284A92F836
:1011D0009030DCB203EB430302EBC3039E68FFF7DE
:1011E000FFFE0546B04205D9214B012283F8982025
:1011F000002024E01F4B1B8810FA83F3B34207D270
:101200001C4B188880B21A4B002283F8982016E0F5
:10121000B6B2301A80B2164B012283F898200EE045
:1012200004EB4404124A02EBC404A268521BA260FD
:1012300003EB43030E4A02EBC3035C7DE4B2062CCE
:101240000FD0234604EB4402094901EBC202926825
:101250009542E5D904EB440401EBC4040022A260EA
:10126000E6E7FFF757FF70BD0028004008020020A6
:101270008C0000200202002010B54C4B19600B6856
:10128000CA225A620B6853225A62494A936843F051
:1012900020039360936803F00703C3F10403D9B2FA
:1012A000444B1970136903F4FE034FF4FE0292FAE3
:1012B000A2F2002A3DD0B2FA82F2D340DBB201336F
:1012C000DAB23D4B1A703A4B1B69C3F30E0301337C
:1012D0003A4C2380013B03FB02F3A3F5A073CB4000
:1012E0004FF6FE72934226D9354B4FF6FF721A80A5
:1012F000344B1A6842F400221A60D3F8802042F47A
:101300000022C3F88020002845D12F4B012283F80A
:1013100098204FF0FF32C3F8942005280FD800EB37
:101320004002294B03EBC20300221A730130C0B202
:10133000F3E72022C1E79BB2214A1380D8E7224B72
:10134000062283F89020194C226811688B6823F4D8
:1013500080638B601268D368DBB263F49063D36000
:10136000184B4FF40022DA60032002F0DFFB236801
:101370001A68936843F4804393600C4B1B681B68A6
:10138000FF225A6200220321084602F057FB032085
:1013900002F088FB10BD054B1B681B68DB6813F46B
:1013A000806FEAD0032002F0B3FBE6E708020020DA
:1013B0000028004006020020000200200402002055
:1013C00002020020000800588C00002038B50446B6
:1013D000EFF3108572B6032002F072FB294B1B68F5
:1013E0001A68CA2151621B6853225A6204EB4402F4
:1013F000254B03EBC2031B7BDBB2022B0AD0214B34
:101400001B681B68FF225A62032002F04BFB85F326
:10141000108838BD00212046FFF796FD1A4B93F83F
:101420009030DBB2062B08D0174A92F89120D2B246
:101430009A42E4D0FFF7B6FEE1E7144B9B6813F441
:10144000806F06D00F4B1B681B68DB6813F0040F1E
:10145000F8D10C4B19680A68936823F48063936091
:101460000B68DA6812F0040FFAD0DA68D2B262F4CC
:101470009062DA60064B4FF40022DA60032002F03B
:1014800055FBBCE7080200208C000020002800402B
:1014900000080058F8B504460D4600EB4002234B07
:1014A00003EBC2031B7BDBB2022B38D0EFF31086B9
:1014B00072B6032002F004FB1D4B1B681A68CA2198
:1014C00051621B6853225A62184F04EB440307EB26
:1014D000C30302221A739D605D602046FFF7AEFDD4
:1014E00097F89030DBB297F89120D2B29A4219D196
:1014F0000E4B04EB440203EBC2029268101A04EB99
:10150000440403EBC404A060094B1B681B68FF2262
:101510005A62032002F0C6FA86F31088F8BDFFF77E
:1015200055FFC3E7FFF73EFEEEE700BF8C0000204B
:101530000802002008B5904708BD0000F8B5EFF399
:10154000108472B6364B19680B68CA225A620B684F
:1015500053225A620A68936823F480639360314A85
:1015600092F89030DDB203EB4303D8000244137BC2
:10157000DBB2022B15D00B68DA6812F0040FFAD038
:10158000DA68D2B262F49062DA60274B4FF400223C
:10159000DA6084F31088224B1B681B68FF225A62B2
:1015A000F8BD204B05EB4501CA0099189F580E69FC
:1015B00093F8983073B34B7BDBB2012B12D084F3DA
:1015C00010882846FFF702FF154B1B681A68CA21CE
:1015D00051621B6853225A623A4629463046FFF749
:1015E000A9FFD8E701212846FFF7AEFC84F3108855
:1015F00005EB4503DA000B4B134459682846FFF707
:1016000049FF074B1B681A68CA2151621B685322A5
:101610005A62E1E7FFF7C6FD84F31088BBE700BF1D
:10162000080200208C0000200008005810B518B1F6
:10163000022810D0002010BD0B4803600B480C4B53
:10164000036002F067FB0228F5D00328F3D00128DD
:10165000F1D00020EFE7074803600748074B03601D
:1016600002F058FBEFE700BFB41500208014002003
:1016700000380140A8150020901300200080004091
:1016800008B50368084A934208D002F538429342ED
:1016900003D1064B1B6803B1984708BD044B1B6878
:1016A000002BFAD09847F8E700800040B4150020DE
:1016B000A8150020FEE7FEE7FEE7FEE7FEE770471D
:1016C0007047704708B502F07DFA08BD08B5FFF70E
:1016D00035FF08BD08B5024802F02BF908BD00BF70
:1016E0003415002008B5024802F0E8FB08BD00BF31
:1016F0008014002008B5024802F0E0FB08BD00BFDE
:101700009013002008B500F075FA08BD08B500F088
:1017100011FA08BD08B500F065FE08BD08B502481D
:1017200002F007F908BD00BF2014002000B583B007
:101730004FF0B0431A6D42F400221A651B6D03F49A
:1017400000230193019B002211462E2002F076F91E
:101750002E2002F0A7F903B05DF804FB0268124BDB
:101760009A4200D0704700B583B04FF0B0431A6D75
:1017700042F480121A651B6D03F480130193019BE0
:10178000002211462C2002F059F92C2002F08AF98F
:10179000002211462D2002F051F92D2002F082F98D
:1017A00003B05DF804FB00BF000C005830B59FB0DB
:1017B0000446002119911A911B911C911D915022F0
:1017C00005A804F0D3FD2368514A934204D0514A3E
:1017D000934250D01FB030BD0223059300230C93D9
:1017E00005A801F0C2FC00283FD14FF0B043DA6DEC
:1017F00042F00102DA65DA6D02F001020292029A09
:10180000DA6C42F00102DA64DB6C03F0010301934D
:10181000019B0C23199302231A9300251B95032384
:101820001C9308231D9319A94FF0904001F02CFE42
:1018300039483A4B03601123436010238360C5602D
:101840008023036145618561C561056201F046FF42
:1018500070B9314BA3679C6200221146252002F02B
:10186000EDF8252002F01EF9B4E7FEF7A7FEBCE76D
:10187000FEF7A4FEEDE70123059300230B9305A8D3
:1018800001F073FC00283DD14FF0B0431A6E42F4D2
:1018900080421A661A6E02F480420492049ADA6C4C
:1018A00042F00202DA64DB6C03F002030393039B51
:1018B000C023199302231A9300251B951C95072317
:1018C0001D9319A9164801F0DFFD1648164B036059
:1018D0000F23436010238360C5608023036145614B
:1018E0008561C561056201F0F9FE70B90D4BA36712
:1018F0009C6200221146242002F0A0F8242002F06D
:10190000D1F867E7FEF75AFEBEE7FEF757FEEDE7B0
:10191000008000400038014034150020440002409F
:1019200000040048201400204404024010B596B082
:1019300004465022002102A804F018FD22680F4B33
:101940009A4201D016B010BD4FF4007302934FF0CD
:101950008053109302A801F008FC58B94FF0B0432F
:101960001A6D42F480221A651B6D03F480230193E3
:10197000019BE7E7FEF722FEF0E700BF00100058EA
:1019800010B596B004465022002102A804F0EEFCE7
:101990002268164B9A4201D016B010BD4FF4006376
:1019A00002934FF48073129302A801F0DEFBC8B9D2
:1019B0004FF0B043D3F8902042F40042C3F8902097
:1019C0009A6D42F480629A659B6D03F48063019383
:1019D000019B00221146032002F030F8032002F0A0
:1019E00061F8D9E7FEF7EAFDE2E700BF0028004012
:1019F00010B5064C636843F400236360044B1B6816
:101A000098474FF40023A36010BD00BF000C00589E
:101A10000C02002082B04FF0B043D3F8502142F4C2
:101A20008012C3F85021D3F8503103F4801301938E
:101A3000019B0A4BD3F8D42042F40072C3F8D4209F
:101A40001A6A42F400721A6240BF20BF044AD36887
:101A500043F40043D36002B0704700BF0008005851
:101A60000004005800B583B04FF0B0431A6D42F443
:101A700080121A651B6D03F480130193019B094BBF
:101A80001A6842F001021A601A6842F480321A6041
:101A90002C2002F007F82D2002F004F803B05DF8C6
:101AA00004FB00BF000C0058024A536823F00103F6
:101AB00053607047000C0058024B4FF480329A601C
:101AC000704700BF000C005808B5044A536843F43F
:101AD0000013536003F094F808BD00BF000C0058D9
:101AE00008B503F077F8024B01229A6008BD00BFE9
:101AF000000C0058024A536823F0020353607047F9
:101B0000000C0058044B4FF400329A605A6822F4DB
:101B100000325A60704700BF000C005808B5044AF4
:101B2000536843F40033536003F09EF808BD00BFD0
:101B3000000C005808B5144BDB6813F0020F04D1F9
:101B4000114B5B6813F4003F14D00F4BDB6813F0AC
:101B5000080F04D10C4B5B6813F4002F0DD00A4B17
:101B6000DB6813F0200F04D1074B5B6813F4001FF0
:101B700006D008BDFFF7D2FFFBE7FFF739FFF8E714
:101B8000FFF7A2FFF5E700BF000C005808B503F00F
:101B900079F8024B02229A6008BD00BF000C005881
:101BA00008B5094BDB6813F0080F05D18047064BD9
:101BB0004FF400229A6008BD044B1860024A536833
:101BC00023F400235360F6E7000C00580C020020B9
:101BD000024A536823F0080353607047000C005812
:101BE00008B503F0A5F8024B08229A6008BD00BFB3
:101BF000000C005808B5144BDB6913F0020F0AD132
:101C0000114BDB6913F0010F0DD10F4BDB6913F0A2
:101C1000080F10D108BD0C4B5B6813F0020FEFD119
:101C2000FFF7B4FFF6E7084B5B6813F0010FECD148
:101C3000FFF756FFEEE7044B5B6813F0080FE9D19E
:101C4000FFF7CEFFE6E700BF000C00581C4B93F8EF
:101C50008030052B00D1704770B503F0BAFB184BEC
:101C6000002283F88020E8B9164E304603F006F9CA
:101C70000146154D154C40F257332A46204604F0D4
:101C80007DFB134804F07AFB304603F0F7F8014679
:101C900040F257332A46204604F070FB0D4804F00A
:101CA0006DFB70BD074803F0E9F8014640F25B3375
:101CB000054A064804F062FB074804F05FFBF0E7C2
:101CC00028010020C8780008447B00086C740008D4
:101CD000E4780008EC7800080879000800B583B0C3
:101CE000054B0093054B01936946054803F074FFCB
:101CF00003B05DF804FB00BF280003201F1D00088F
:101D0000051D000810B504464068083004F050F97D
:101D100010B10123237010BD00232370FBE708B529
:101D200010B1012804D008BD032004F0A3F9FAE79C
:101D3000032004F0ADF9F6E708B50E4B1A68B2F1CE
:101D4000FF3F10D004331B680B480270C2F3072218
:101D500042708370C3F30722C270C3F3074202715B
:101D60001B0E437108BD002003F0E4F80028F9D1F0
:101D70000248F7E78075FF1F10020020187B00085B
:101D800070B588B00024ADF8184003F091FEFFF75D
:101D9000D3FF02460621204603F00AFE2A4A1021FC
:101DA000182003F005FE294A1021082003F000FE48
:101DB0001821012003F02CFE03F0CBFC0DF11A03D7
:101DC000019307AB00930DF11E030A222146012067
:101DD00003F009FC1E4B00930A232246BDF81C1099
:101DE000BDF81E0003F087FD06AB009302232246D8
:101DF000BDF81A10BDF81E0003F07DFD0222114649
:101E0000204603F075FE134D01262E70304603F078
:101E10005BFB6E7008232B7110226A71EC700E4907
:101E2000A960AC700494039102940192009323463C
:101E300032463146204603F06DFBAB780BB908B053
:101E400070BD03F03CFCFAE7087B0008F87A000854
:101E50002C7900082801002007B2010010B588B0D5
:101E6000194B83F8800000200690059004900390A1
:101E70000290019000900346A022802103F0CAFA4C
:101E800012490A2003F0EEFB70B9114802F0F6FF88
:101E9000014640F203330F4A0F4804F06FFA0F482F
:101EA00004F0F2FA08B010BD0446094802F0E6FF5B
:101EB000014640F20733074A074804F05FFA21461B
:101EC000074804F05BFAEDE7280100200800002035
:101ED000C8780008387B00086C740008387900085E
:101EE0006079000830B58FB001AC1B4D0FCD0FC429
:101EF0000FCD0FC40FCD0FC42B682370FFF7EEFE7C
:101F00000121022004F088F8144A0021022004F084
:101F1000B3F901A802F020FFD8B9FFF731FF04F0B0
:101F200033F80F4C002584F880504FF6FF73E3829E
:101F30000C4A2946012004F09FF9062003F091FD88
:101F400000F04EFA657625760120FFF787FF0FB087
:101F500030BDFEF733FBE0E7F4730008FD5B0008DB
:101F6000280100204D1C000810B5044643783E2B84
:101F700029D0FF2B62D0052B01D0012010BD828813
:101F8000614BDB8A9A420BD00120FFF767FF5F4865
:101F9000012303705C4BDB8A438000F00BFAECE713
:101FA000594B0022DA8283F88020594802F066FFFC
:101FB00001464FF4C573574A574804F0DFF95748B4
:101FC00004F062FAE0E7C378012B0FD0032BD4D1E1
:101FD0004F4802F053FF01464FF4D3734D4A4E4829
:101FE00004F0CCF94E4804F04FFAC6E7484802F036
:101FF00045FF014640F2B513464A474804F0BEF992
:10200000B4F80510474804F0B9F93F4B93F8803015
:10201000042B0ED03C4B052283F88020B4F8053009
:10202000394AD382394800220270438000F0C2F955
:10203000A3E7354B062283F88020EFE7B0F80330A2
:10204000A3F20143092B98D801A252F823F000BF54
:10205000E9200008B12000087B1F00087B1F000852
:102060007B1F00087B1F0008792000087B1F0008E9
:10207000BD20000895200008254802F0FFFE01461B
:102080004FF4F873234A244804F078F9264804F002
:10209000FBF972E71E4802F0F1FE014640F2FF1321
:1020A0001C4A1D4804F06AF9204804F0EDF964E781
:1020B0001F49154BD88A03F06DFA5EE7D0F8074048
:1020C000134802F0DBFE014640F20923114A124890
:1020D00004F054F92146174804F050F901210A4B45
:1020E000D88A03F00DFB48E7094802F0C7FE014615
:1020F00040F20F23074A084804F040F9E1790E48FE
:1021000004F03CF939E700BF28010020B815002091
:10211000C8780008207B00086C74000890790008DB
:10212000B8790008E4790008287A0008507A000895
:1021300007B20100807A0008987A000808B50021EB
:10214000022003F07FFF08BD08B5012003F0ACFFBB
:1021500008BD08B5012004F063F808BD4378FF2BE3
:1021600001D000207047B0F8033040F6134293428C
:1021700040D000B585B040F6144293422BD040F6D3
:102180000142934203D0002005B05DF804FBB0F893
:1021900007201F4B9B8802339A4206D01C4B5B885A
:1021A00001339A422FD00020EEE7437B1BB1022B74
:1021B00009D00120E8E703238DF80030684600F0DD
:1021C000F7F80120E0E702238DF80030684600F0C0
:1021D000EFF80120D8E7B0F807200D4B5B880133FA
:1021E0009A4201D00020CFE7B0F8050003F0B8FB19
:1021F0000120C9E7B0F80720054B5B8801339A42FC
:1022000003D0002070470120BEE70120704700BFC7
:10221000AC0100202DE9F04F8BB0634803F0BEFE07
:102220008F238DF81830E5238DF81930B3238DF8FE
:102230001A30D5238DF81B302E238DF81C307F23C8
:102240008DF81D304A238DF81E3098238DF81F30ED
:102250002A238DF8203048238DF821307A238DF8F9
:102260002230CC238DF8233001258DF82450002412
:102270008DF825408DF826408DF827404B4B009374
:1022800006232A4606A9022003F085FA4FF0190B0F
:102290008DF818B0ED268DF819604FF0820A8DF890
:1022A0001AA06FF051038DF81B308DF81C604FF0B1
:1022B00021028DF81D204FF04C018DF81E106FF09B
:1022C00062008DF81F004FF041078DF820704FF02D
:1022D000450C8DF821C04FF022098DF822904FF067
:1022E0008E088DF8238002278DF824708DF8254004
:1022F0008DF826408DF827402C4B33F8020B0593C0
:1023000004944FF0100ECDF80CE04FF0070ECDF80E
:1023100008E001940623009308230DF1180E72467D
:10232000394603F088FA8DF818B08DF819608DF8E9
:102330001AA06FF051038DF81B308DF81C604FF020
:1023400021028DF81D204FF04C018DF81E106FF00A
:1023500062008DF81F004FF041038DF820304FF0E0
:10236000450C8DF821C08DF822908DF82380032331
:102370008DF824308DF825408DF826408DF82740C3
:102380000A4B33F8040B059304951023039307239A
:1023900002930194202300932B4606AA394603F0AA
:1023A0004AFA0BB0BDE8F08F5D210008AC010020B7
:1023B0007047000008B5064802F060FD01468D2315
:1023C000044A054803F0DAFF044803F0D7FF08BDCC
:1023D000507B00087C7B00086C7400086C7B000854
:1023E0007047704708B5054BD8681A6822EA0002A2
:1023F0001A605860FFF7F5FF08BD00BF00150058D0
:10240000F0B58DB005460F462A4C94E80F000CAE8F
:1024100006E90F0005AB04F1100207CA83E80700C4
:1024200001AE1C3494E80F0086E80F00B7F5007F7A
:102430001BD00023022B22D80CAA02EB830252F8F5
:102440001C2CAA4215D20133F4E70133032B0ED81A
:102450000CAA02EB830252F8102CAA42F5D30CAA64
:1024600002EB830353F82C5C0AE00023EEE700251F
:1024700006E00CAA02EB830353F82C5C00E0002575
:102480000D4A136823F007032B43136001F0A6FBEA
:102490000446094B1B6803F00703AB4206D001F06A
:1024A0009DFB001B0228F4D9032000E000200DB0A2
:1024B000F0BD00BF287400080040005810B5B028D7
:1024C00016D90E4BDC6A4FF0B043D3F8083103F055
:1024D0000F030B4A52F82300B4FBF0F401F094FA16
:1024E00001460848A0FB0430800CFFF789FF10BDAF
:1024F000C0F30310014B53F82040E4E71C7C0008B4
:10250000BC7B000883DE1B434FF0B0439B6813F095
:102510000C030DD14FF0B0431B6803F0F003B02B58
:1025200004D81B09254A52F823007047B023F8E766
:10253000042B3ED0082B10D04FF0B043DB6803F0E3
:102540000303022B1FD0032B0FD14FF0B0431B68A6
:1025500013F4801F2BD11A4B16E04FF0B0431B68C9
:1025600013F4801F27D0174870474FF0B0431B6803
:1025700003F0F003B02B04D81B09104A52F82330A3
:1025800002E0B023F8E70F4B4FF0B042D068C0F341
:10259000062000FB03F0D368C3F302130133B0FB42
:1025A000F3F0D3685B0F0133B0FBF3F07047054BDA
:1025B000EAE7044870470248704700BF1C7C0008E7
:1025C0000048E8010024F40008B5FFF79DFF4FF034
:1025D000B0439B68C3F30313024A52F82330B0FBA5
:1025E000F3F008BDBC7B0008002800F07E8338B5FE
:1025F0000446036813F0200F7FD04FF0B042936879
:10260000D26802F0030213F00C031DD00C2B19D07A
:10261000E369002B00F09E804FF0B042136843F056
:102620000103136001F0DAFA05464FF0B0431B686E
:1026300013F0020F52D101F0D1FA401B0228F4D955
:1026400003205DE3012AE3D14FF0B0431B6813F090
:10265000020F03D0E369002B00F04983606A4FF05A
:10266000B0431B6803F0F003B02B20D8984220D968
:10267000FFF724FF002840F03C83636A4FF0B0422C
:10268000116821F0F0010B431360216A536823F4B1
:102690007F4343EA01235360FFF796FFC44B186062
:1026A000C44B186801F050FA38B3012028E3B02376
:1026B000DCE74FF0B042136823F0F00318431060DA
:1026C000216A536823F47F4343EA01235360606A1D
:1026D000FFF7F4FE0028DFD0012011E3636A4FF01A
:1026E000B042116821F0F0010B431360216A536876
:1026F00023F47F4343EA01235360236813F0010F5F
:102700004AD04FF0B042936803F00C03D26802F055
:102710000302082B36D00C2B32D06368B3F5803F10
:1027200063D04FF0B042136823F4803313606368C2
:10273000002B61D001F052FA05464FF0B0431B6800
:1027400013F4003F28D101F049FA401B6428F4D962
:102750000320D5E24FF0B042136823F00103136069
:1027600001F03CFA05464FF0B0431B6813F0020F2E
:10277000C3D001F033FA401B0228F4D90320BFE292
:10278000032ACAD14FF0B0431B6813F4003F03D0B3
:102790006368002B00F0AF82236813F0020F50D063
:1027A0004FF0B042936803F00C03D26802F00302CA
:1027B000042B33D00C2B2FD0E368002B77D04FF0B5
:1027C000B042136843F48073136001F007FA0546C2
:1027D0004FF0B0431B6813F4806F5ED101F0FEF937
:1027E000401B0228F4D903208AE24FF0B04213685C
:1027F00043F4803313609AE701F0F0F905464FF097
:10280000B0431B6813F4003FC6D001F0E7F9401B4A
:102810006428F4D9032073E2022ACDD14FF0B043EB
:102820001B6813F4806F03D0E368002B00F065820F
:1028300021694FF0B042536823F0FE4343EA01633D
:102840005360236813F0180F00F0E8806269002AD3
:1028500000F0B28013F0100F7AD04FF0B043D3F8ED
:10286000943013F0020F38D14FF0B042D2F89430C8
:1028700043F00103C2F8943001F0B0F905464FF07F
:10288000B043D3F8943013F0020F26D101F0A6F92B
:10289000401B0228F3D9032032E221694FF0B042F5
:1028A000536823F0FE4343EA01635360C9E74FF0E6
:1028B000B042136823F48073136001F08FF905466A
:1028C0004FF0B0431B6813F4806FBAD001F086F963
:1028D000401B0228F4D9032012E24FF0B042D2F894
:1028E000943043F00403C2F8943001F077F90546C0
:1028F0004FF0B043D3F8943013F0080F06D101F035
:102900006DF9401B0328F3D90320F9E1A1694FF0C9
:10291000B042D2F8943023F4706343EA0123C2F842
:102920009430D2F8943023F00103C2F8943001F0CF
:1029300055F905464FF0B043D3F8943013F0020F29
:102940006CD001F04BF9401B0228F3D90320D7E1EA
:102950004FF0B042D2F8943043F00103C2F8943003
:1029600001F03CF905464FF0B043D3F8943013F032
:10297000020F06D101F032F9401B0228F3D90320DF
:10298000BEE14FF0B042D2F8943023F00403C2F815
:1029900094304FF0B043D3F8943013F0080F3DD08B
:1029A00001F01CF9401B0328F3D90320A8E100BF64
:1029B00018000020140000204FF0B042D2F89430EC
:1029C00023F00403C2F8943001F008F905464FF0F3
:1029D000B043D3F8943013F0080F18D14FF0B04241
:1029E000D2F8943023F00103C2F8943001F0F6F8E5
:1029F00005464FF0B043D3F8943013F0020F0DD0DA
:102A000001F0ECF8401B0228F3D9032078E101F033
:102A1000E5F8401B0328DAD9032071E1236813F09D
:102A2000040F68D0B94B1B6813F4807F27D0A368CC
:102A3000012B35D0052B3CD04FF0B043D3F890207C
:102A400022F00102C3F89020D3F8902022F0040273
:102A5000C3F89020A368DBB301F0C0F805464FF03F
:102A6000B043D3F8903013F0020F44D101F0B6F820
:102A7000401B41F288339842F1D9032040E100F035
:102A8000BBFF01F0ABF80546A04B1B6813F4807F39
:102A9000CDD101F0A3F8401B0228F5D903202FE186
:102AA0004FF0B042D2F8903043F00103C2F89030BA
:102AB000D0E74FF0B043D3F8902042F00402C3F8BF
:102AC0009020D3F8902042F00102C3F89020C1E793
:102AD00001F084F805464FF0B043D3F8903013F07E
:102AE000020F08D001F07AF8401B41F28833984277
:102AF000F1D9032004E1236813F0400F33D0A36A17
:102B0000C3B14FF0B042D2F8983043F00103C2F89D
:102B1000983001F063F805464FF0B043D3F8983091
:102B200013F0020F1FD101F059F8401B0228F3D90E
:102B30000320E5E04FF0B042D2F8983023F00103D3
:102B4000C2F8983001F04AF805464FF0B043D3F888
:102B5000983013F0020F06D001F040F8401B022815
:102B6000F3D90320CCE0E36A002B00F0C8804FF0DB
:102B7000B042916801F00C01D268022B23D00C29DD
:102B800000F0C1804FF0B0431A6822F080721A60E2
:102B9000DA6822F00302DA60DA6822F0885222F45E
:102BA0008032DA6001F01AF804464FF0B0431B6837
:102BB00013F0007F00F0978001F010F8001B02284E
:102BC000F3D903209CE002F00303206B83420AD078
:102BD0000C2900F096804FF0B0431B6813F0806F13
:102BE00022D001208CE002F07003606B8342EFD1B1
:102BF000C2F30623A06B8342EAD102F47813E06BA0
:102C00008342E5D102F06063206C8342E0D102F0A0
:102C10006042636C9A42DBD14FF0B0431B6813F003
:102C2000007F44D000206BE04FF0B042136823F0E7
:102C30008073136000F0D2FF05464FF0B0431B686D
:102C400013F0007F06D000F0C9FF401B0228F4D922
:102C5000032055E04FF0B042D3682D491940236B53
:102C6000606B0343A06B43EA0023E06B0343206CDB
:102C70000343606C03430B43D360136843F08073DA
:102C80001360D36843F08053D36000F0A7FF04467D
:102C90004FF0B0431B6813F0007F06D100F09EFF99
:102CA000001B0228F4D903202AE0002028E04FF07E
:102CB000B0431A6842F080721A60DA6842F08052BB
:102CC000DA6000F08BFF04464FF0B0431B6813F04E
:102CD000007F06D100F082FF031B022BF4D90320F2
:102CE0000EE000200CE000200AE0012070470120E7
:102CF00006E0012004E0012002E0012000E00020C5
:102D000038BD0120FCE70120FAE700BF00040058AD
:102D10008C80C111002800F0278170B50C46054653
:102D2000934B1B6803F007038B422DD32B6813F0E2
:102D3000020F3FD12B6813F0200F53D12B6813F0F3
:102D4000400F6AD12B6813F0040F40F083802B688A
:102D500013F0080F40F097802B6813F0010F00F07C
:102D6000DE806B68022B00F0A880032B00F0AD80A2
:102D7000002B40F0B2804FF0B042126812F0020F08
:102D800040F0B1800120EEE0794A136823F0070398
:102D90000B43136000F022FF0646754B1B6803F0DF
:102DA0000703A342C2D000F019FF801B0228F4D908
:102DB0000320D8E0AB684FF0B0418A6822F0F002FF
:102DC00013438B6000F00AFF06464FF0B0439B6848
:102DD00013F4803FAED100F001FF801B0228F4D92C
:102DE0000320C0E06B694FF0B041D1F8082122F018
:102DF000F0021343C1F8083100F0F0FE06464FF030
:102E0000B043D3F8083113F4003F97D100F0E6FE49
:102E1000801B0228F3D90320A5E0A9694FF0B04236
:102E2000D2F8083123F00F0343EA1113C2F8083136
:102E300000F0D4FE06464FF0B043D3F8083113F447
:102E4000803F7FF47FAF00F0C9FE801B0228F2D9DB
:102E5000032088E0EB684FF0B0418A6822F4E0621A
:102E600013438B6000F0BAFE06464FF0B0439B68F8
:102E700013F4003F7FF46BAF00F0B0FE801B02281C
:102E8000F3D903206FE029694FF0B042936823F42F
:102E9000605343EAC103936000F0A0FE06464FF082
:102EA000B0439B6813F4802F7FF456AF00F096FE7A
:102EB000801B0228F3D9032055E04FF0B04212687E
:102EC00012F4003F0FD101204DE04FF0B0421268E4
:102ED00012F0007F07D1012045E04FF0B0421268A8
:102EE00012F4806F42D04FF0B0418A6822F00302A2
:102EF00013438B6000F072FE06464FF0B0439B68B0
:102F000003F00C036A68B3EB820F08D000F066FE92
:102F1000801B41F288339842EFD9032023E0144B01
:102F20001B6803F00703A34215D9114A136823F065
:102F300007032343136000F051FE05460C4B1B684A
:102F400003F00703A34206D000F048FE401B02280E
:102F5000F4D9032007E0FFF737FB064B186000F0B9
:102F600043FE00F0F1FD70BD012070470120FAE73B
:102F7000004000581800002008B5FFF725FB4FF06F
:102F8000B0439B68C3F30223034A52F8233003F093
:102F90001F03D84008BD00BFFC7B000808B5FFF741
:102FA00013FB4FF0B0439B68C3F3C223034A52F8AC
:102FB000233003F01F03D84008BD00BFFC7B00088E
:102FC00070B505464FF0B042136823F0806313607C
:102FD00000F004FE04464FF0B0431B6813F0006F8E
:102FE00006D000F0FBFD001B0228F4D9032400E00A
:102FF00000240CB1204670BD4FF0B0431A6922F492
:10300000FE42296842EA01221A611A6922F4781202
:1030100069680A431A611A6842F080621A6000F017
:10302000DDFD06464FF0B0431B6813F0006F05D17D
:1030300000F0D4FD801B0228F4D90324002CD9D140
:103040004FF0B042136929690B431361D2E770B5A1
:1030500005464FF0B042136823F08063136000F020
:10306000BDFD04464FF0B0431B6813F0006F06D05F
:1030700000F0B4FD001B0228F4D9032400E0002472
:103080000CB1204670BD4FF0B0431A6922F4FE42E5
:10309000296842EA01221A611A6922F06062A9686D
:1030A0000A431A611A6842F080621A6000F096FDC5
:1030B00006464FF0B0431B6813F0006F05D100F0D7
:1030C0008DFD801B0228F4D90324002CD9D14FF0A8
:1030D000B042136929690B431361D2E770B5054605
:1030E0004FF0B042136823F08063136000F076FD68
:1030F00004464FF0B0431B6813F0006F06D000F099
:103100006DFD001B0228F4D9032400E000240CB15B
:10311000204670BD4FF0B0431A6922F4FE42296880
:1031200042EA01221A611A6922F06042E9680A4300
:103130001A611A6842F080621A6000F04FFD06467C
:103140004FF0B0431B6813F0006F05D100F046FD4F
:10315000801B0228F4D90324002CD9D14FF0B042AF
:10316000136929690B431361D2E770B504460368FC
:1031700013F0400F2FD0036BB3F5800F21D00AD886
:1031800033B90430FFF71CFF064658B1054624E06A
:1031900001252E4621E0B3F5000F1AD0B3F5400FFC
:1031A0000CD10026236B4FF0B041D1F8882022F4D7
:1031B00040021343C1F8883000250EE001252E4659
:1031C0000BE04FF0B042D36843F48033D360002665
:1031D000E8E70026E6E700252E46236813F4006F93
:1031E0000AD04FF0B043D3F8905005F44075236CEB
:1031F000AB4240F0D5803546236813F0010F09D06B
:10320000A3694FF0B041D1F8882022F003021343A4
:10321000C1F88830236813F0020F09D0E3694FF03A
:10322000B041D1F8882022F440621343C1F88830BD
:10323000236813F0100F0CD0A06A4FF0B041D1F802
:103240008830020C120423EA020343EA0043C1F867
:103250008830236813F0200F0CD0E06A4FF0B041A3
:10326000D1F88830020C120423EA020343EA004337
:10327000C1F88830236813F0040F0FD0236A4FF091
:10328000B040D0F88820190901F47F2122EA010218
:103290001B0103F47F231343C0F88830236813F025
:1032A000080F0FD0636A4FF0B040D0F8882019099A
:1032B00001F47F2122EA01021B0103F47F2313435F
:1032C000C0F88830236813F4807F13D0636B4FF00D
:1032D000B041D1F8882022F040621343C1F8883011
:1032E000636BB3F1006F00F09C80636BB3F1806F90
:1032F00000F09C80236813F4007F17D0A36BB3F118
:10330000804F05D0B3F1004F02D0002B40F09680E3
:103310004FF0B041D1F8882022F040421343C1F869
:103320008830A36BB3F1C05F00F09A80236813F478
:10333000806F13D0E36B4FF0B041D1F8882022F0BA
:1033400040521343C1F88830E36BB3F1005F00F0E3
:103350008E80E36BB3F1805F00F08E80236813F4FE
:10336000805F09D0636C4FF0B041D1F8942022F413
:1033700040421343C1F89430236813F4005F0DD02A
:10338000E26C4FF0B043596A21F030010A435A62AF
:10339000A26C596A21F003010A435A62284670BDA3
:1033A00000F02AFB5DB9236C4FF0B041D1F89020BA
:1033B00022F440721343C1F8903035461CE74FF0B9
:1033C000B043D3F89020D3F8901041F48031C3F883
:1033D0009010D3F8901021F48031C3F8901022F4AB
:1033E0004072216C0A43C3F89020D3F8903013F058
:1033F000010F12D000F0F2FB05464FF0B043D3F8B6
:10340000903013F0020F0AD100F0E8FB401B41F2AC
:1034100088339842F1D90325EEE63546ECE6354689
:10342000EAE6CB6843F08073CB605EE7201DFFF7D0
:103430000EFE00283FF45EAF05465BE723F08053A5
:103440004FF0B042D2F8881021F04041C2F8881005
:10345000D2F8881021F040610B43C2F8883060E751
:103460004FF0B042D36843F08073D3605EE7CB681F
:1034700043F48033CB606CE7201DFFF72FFE00285C
:103480003FF46CAF054669E7F0B400235FE086685F
:103490005F000325BD4026EA0506CD68BD403543E3
:1034A0008560466826EA04064D68C5F300149C4012
:1034B0003443446059E0DD08083550F8257003F0C6
:1034C0000704A6000F24B44027EA04070C69B4409F
:1034D0003C4340F825405CE0042400E00024B44074
:1034E0003C430235474E46F82540474C2568D443B7
:1034F00025EA02064F6817F4801F01D042EA05064C
:10350000414D2E606D6804EA05064F6817F4001FF0
:1035100001D042EA05063C4D6E60D5F8805004EAC1
:1035200005064F6817F4803F01D042EA0506364D84
:10353000C5F88060D5F884502C404E6816F4003FE2
:1035400001D042EA0504304AC2F8844001330A68D7
:1035500032FA03F454D001249C402240F6D04D6846
:1035600005F00305013D012D91D94C6804F00304D9
:10357000032C09D0C5685E000324B44025EA040585
:103580008C68B4402C43C4604C6804F00304022CE3
:1035900091D005685E000324B44025EA04054C6818
:1035A00004F00304B4402C4304604C6814F4403F1E
:1035B000CCD09D08AE1C134C54F8267003F00304C5
:1035C000A6000F24B44027EA0407B0F1904F85D03D
:1035D0000E4CA0420ED004F58064A0420CD004F53D
:1035E0008064A0420AD004F58064A0423FF474AF26
:1035F000072474E7012472E7022470E703246EE7CE
:10360000F0BC70470000014000080058000400486A
:103610000AB1816170478162704770B4C46C056DF6
:103620006560446D14B1846DC56D6560446C04F0D3
:103630001C05066C0124AC407460046863608368F8
:10364000102B05D0036899600368DA6070BC70477E
:1036500003689A600368D960F8E700000368104ABD
:10366000934215D8426C22F0030202F1804202F527
:1036700002328264DBB2083B0A4AA2FB03230A4AF5
:10368000C264C3F30413012202FA03F30365704713
:10369000426C22F00301054A0A448264EAE700BF53
:1036A00007040240CDCCCCCC800802401C0802406C
:1036B000436803F03F03074A1A4492004265064AF2
:1036C0008265013B03F00303012202FA03F3C365A1
:1036D000704700BF3F8200104009024000285DD0C3
:1036E00010B5044601682E4B99423FD82D4B0B4430
:1036F0002D4AA2FB03231B099B0043642B4B03644D
:10370000022384F825300A6822F4FF4222F0700276
:10371000A368E06803432069034360690343A06929
:103720000343E0690343206A034313430B602046CD
:10373000FFF794FFA368B3F5804F22D06368A26CB3
:1037400003F03F031360E36C226D5A606368013B32
:10375000032B19D900236365A365E3650020E063AB
:10376000012384F8253084F8240010BD104B0B444D
:103770000D4AA2FB03231B099B0043640D4B03640A
:10378000BEE700236360D9E72046FFF791FF636D32
:1037900000221A60A36DE26D5A60DFE701207047D6
:1037A00007040240F8FFFDBFCDCCCCCC00000240A6
:1037B000F8FBFDBF0004024038B5044690F8240031
:1037C000012841D0012084F8240094F82500C0B2DB
:1037D000012804D0002384F82430022038BD0220C0
:1037E00084F825000020E0632568286820F00100A7
:1037F00028602046FFF711FF236BD3B122681368BE
:1038000043F00E031360A36C1A6812F4803F03D0D8
:103810001A6842F480721A60636D1BB11A6842F430
:1038200080721A602268136843F00103136000205D
:10383000D4E72268136823F0040313602268136836
:1038400043F00A031360DEE70220C7E703460028BF
:1038500034D090F82520D2B2022A06D00422C263C6
:10386000002280F824200120704701680A6822F0B5
:103870000E020A60816C0A6822F480720A60016894
:103880000A6822F001020A60426C02F01C01006C1E
:1038900001228A404260DA6C196D51605A6D32B172
:1038A000116821F4807111609A6DD96D5160012207
:1038B00083F82520002083F82400704701207047FA
:1038C00008B590F82530DBB2022B03D00423C36384
:1038D000012008BD0268136823F00E03136002681C
:1038E000136823F001031360826C136823F4807360
:1038F0001360436C03F01C02016C012393404B6086
:10390000C36C026D5A60436D33B11A6822F4807241
:103910001A60836DC26D5A60012380F82530002340
:1039200080F82430836B13B198470020D1E7002042
:10393000CFE738B5036C196804682568436C03F059
:103940001C0304229A400A4215D015F0040F12D02D
:10395000236813F0200F03D1236823F004032360AE
:10396000436C03F01C02016C042393404B60036B17
:1039700003B1984738BD02229A400A421CD015F084
:10398000020F19D0236813F0200F06D1236823F00B
:103990000A032360012380F82530436C03F01C02E6
:1039A000016C022393404B60002380F82430C36AEB
:1039B000002BDFD09847DDE7082202FA03F30B4221
:1039C000D8D015F0080FD5D0236823F00E0323605C
:1039D000436C03F01C03016C012202FA03F34B60F9
:1039E000C26380F82520002380F82430436B002B2D
:1039F000C0D09847BEE70000024A136843F48073C2
:103A00001360704700040058024B186800F4C0604F
:103A1000704700BF00040058074AD36823F4E063EE
:103A20001B041B0C000200F4E060034343F0BF637F
:103A300043F40033D360704700ED00E030B4174B1F
:103A4000DB68C3F30223C3F10704042C28BF04245A
:103A50001D1D062D18D9033B4FF0FF3505FA04F460
:103A600021EA0401994005FA03F322EA030319430A
:103A700000280BDB0901C9B200F1604000F561408C
:103A800080F8001330BC70470023E5E700F00F001A
:103A90000901C9B2024B1954F4E700BF00ED00E080
:103AA00014ED00E0002807DB00F01F0240090123AD
:103AB0009340024A42F82030704700BF00E100E026
:103AC00000280CDB00F01F02400901239340203046
:103AD000034A42F82030BFF34F8FBFF36F8F704718
:103AE00000E100E00138B0F1807F0AD2064B586057
:103AF000064AF02182F823100020986007221A60FD
:103B000070470120704700BF10E000E000ED00E0CA
:103B1000002808DB00F01F024009012393404030D9
:103B2000014A42F82030704700E100E0002808DB3D
:103B300000F01F024009012393406030014A42F81F
:103B40002030704700E100E0114B1B780BB90120D9
:103B5000704710B50446FEF737FD0D4B1A784FF449
:103B60007A73B3FBF2F3B0FBF3F0FFF7BBFF68B976
:103B70000F2C01D901200AE0002221464FF0FF302E
:103B8000FFF75CFF034B1C60002000E0012010BD2C
:103B9000120000201400002010B5094A136843F4F5
:103BA000807313600320FFF737FF0020FFF7CCFF7F
:103BB00010B10124204610BD0446FDF7B7FDF9E71A
:103BC00000400058034B1B78034A11680B441360F4
:103BD000704700BF12000020BC150020014B186880
:103BE000704700BFBC150020014B1868704700BF2C
:103BF00014000020024A536843F0010353607047E9
:103C0000002004E0024A536843F002035360704707
:103C1000002004E0704770470023052B0AD800EB12
:103C20008302054951609A1D00EB820203495160ED
:103C30000133F2E7704700BF153C0008173C00084D
:103C4000002303604FF03F1343603F2383607047BE
:103C5000C0B138B5044690F8383083B10A4D2846D3
:103C6000FFF7EEFF2B6843F001132B602046FFF7B0
:103C7000D3FF00206063012384F8383038BDFDF79E
:103C80006DFDEBE701207047000C0058026852E818
:103C9000003F23F0C00342E800310029F6D102685A
:103CA00002F1080353E8003F23F40003083242E81E
:103CB00000310029F3D12023C0F884307047026816
:103CC00052E8003F23F4907342E800310029F6D116
:103CD000026802F1080353E8003F23F0805323F009
:103CE0000103083242E800310029F1D1C36E012BF3
:103CF00006D02023C0F888300023C36603677047CE
:103D0000026852E8003F23F0100342E80031002926
:103D1000F6D1EEE7D0F88430202B4CD110B5044614
:103D200000294AD0002A4AD090F88030012B48D090
:103D3000012380F880300165A0F85420A0F85620B7
:103D40000023C0F88C302123C0F88430836FF3B196
:103D50001D49D962836F1D491963836F1C495963DB
:103D6000836F002199630168134601F12802016DF8
:103D7000806FFFF721FD50B11023C4F88C30002371
:103D800084F880302023C4F88430012012E02368B6
:103D900040221A62002384F88030226802F108036E
:103DA00053E8003F43F08003083242E80031002925
:103DB000F3D1002010BD022070470120FAE7012056
:103DC000F8E70220F6E700BFD53D0008433E0008B3
:103DD0004F3E000808B50346806A1B681B6813F055
:103DE000200F18D10023A0F85630026802F1080312
:103DF00053E8003F23F08003083242E800310029F5
:103E0000F3D1026852E8003F43F0400342E800313A
:103E10000029F6D108BDFDF733FCFBE708B50268C1
:103E200052E8003F23F0400342E800310029F6D178
:103E30002023C0F8843000234367FDF721FC08BD30
:103E4000704708B5806AFFF7FBFF08BD704738B5BB
:103E5000846AD4F88420D4F8885023689B6813F0CF
:103E6000800F01D0212A10D023689B6813F0400FE7
:103E700001D0222D10D0D4F88C3043F01003C4F8B8
:103E80008C302046FFF7E2FF38BD0023A4F85630FF
:103E90002046FFF7FBFEE7E70023A4F85E3020464C
:103EA000FFF70DFFE7E708B5806A0023A0F85E3052
:103EB000A0F85630FFF7CAFF08BD704770B504463A
:103EC0000168CB6908688D6840F60F021A4008D176
:103ED00013F0200F05D010F0200F34D115F0805FC3
:103EE00031D12AB1BD4A2A4033D1BD4E304230D102
:103EF000E26E012A00F0C38013F4801F03D015F492
:103F0000800F40F0558113F0800F07D010F0800F24
:103F100040F0558115F4000F40F0518113F0400F2F
:103F200003D010F0400F40F0518113F4000F03D084
:103F300010F0804F40F04E8113F0807F02D00028B7
:103F4000C0F2528170BD236F002BFBD020469847F2
:103F5000F8E713F0010F09D010F4807F06D0012696
:103F60000E62D4F88C103143C4F88C1013F0020F99
:103F70000BD015F0010F08D0216802260E62D4F88C
:103F80008C1041F00401C4F88C1013F0040F0BD016
:103F900015F0010F08D0216804260E62D4F88C10A9
:103FA00041F00201C4F88C1013F0080F0BD010F090
:103FB000200F00D13AB1226808211162D4F88C2078
:103FC0000A43C4F88C2013F4006F0CD010F0806FFB
:103FD00009D022684FF400611162D4F88C2042F0BD
:103FE0002002C4F88C20D4F88C20002AAAD013F028
:103FF000200F09D010F0200F02D115F0805F03D000
:10400000236F0BB120469847D4F88C2023689B6817
:1040100013F0400F02D112F0280F29D02046FFF7ED
:104020004EFE23689B6813F0400F1DD0226802F1FA
:10403000080353E8003F23F04003083242E8003110
:104040000029F3D1E36F5BB1664A9A63E06FFFF733
:1040500037FC00283FF476AFE06F836B984771E739
:104060002046FFF7F3FE6DE72046FFF7EFFE69E716
:104070002046FFF7EBFE0023C4F88C3062E713F014
:10408000100F3FF439AF10F0100F3FF435AF10238D
:104090000B6223689B6813F0400F4FD0E26F1368E8
:1040A0005B689BB2002B3FF44DAFB4F85C109942B3
:1040B0007FF648AFA4F85E3013681B6813F0200F3A
:1040C00031D1226852E8003F23F4807342E8003186
:1040D0000029F6D1226802F1080353E8003F23F0DB
:1040E0000103083242E800310029F3D1226802F1CD
:1040F000080353E8003F23F04003083242E8003150
:104100000029F3D12023C4F888300023E366226815
:1041100052E8003F23F0100342E800310029F6D1B5
:10412000E06FFFF793FBB4F85C10B4F85E309BB21D
:10413000C91A89B22046FFF7C0FE03E7B4F85C1045
:10414000B4F85E309BB2C91A89B2B4F85E309BB243
:10415000002B3FF4F7AE00293FF4F4AE226852E89A
:10416000003F23F4907342E800300028F6D1226823
:1041700002F1080353E8003F23F0805323F00103CA
:10418000083242E800300028F1D12023C4F88830FA
:104190000023E3662367226852E8003F23F0100300
:1041A00042E800300028F6D12046FFF786FEC9E637
:1041B0004FF480130B62204600F0B6FAC2E6636F3C
:1041C000002B3FF4BFAE20469847BBE62046FFF7E2
:1041D00025FEB7E6204600F0A9FAB3E6010000107C
:1041E00020010004A73E0008204600F09EFAA9E640
:1041F0002DE9F0410446016883680269134342696E
:104200001343C269134308688F4A024013430B608B
:104210002268536823F44053E1680B435360A1695B
:1042200022688A4B9A4201D0236A1943936823F08B
:104230006E4323F430630B4393602268D36A23F008
:104240000F03616A0B43D3622268814B9A4219D0F3
:104250007E4B9A422AD010237C498A4245D0E0699D
:10426000B0F5004F00F08280013B072B00F2E680A2
:10427000DFE813F0AC00AA00E400CE00E400E400A4
:10428000E400D1004FF0B043D3F8883003F00303CB
:10429000032B09D8DFE803F002041F060123DBE744
:1042A0000423D9E70823D7E71023D5E74FF0B0431D
:1042B000D3F8883003F44063B3F5006F0DD005D810
:1042C0006BB1B3F5806F0CD10423C5E7B3F5406F34
:1042D00009D10823C0E70223BEE70223BCE700237D
:1042E000BAE71023B8E71023B6E7082B00F2968050
:1042F000DFE803F008943A943794949405004FF45F
:10430000004004E0FEF738FE002800F08980626A71
:10431000504B33F81220B0FBF2F3656805EB450112
:1043200099427FD8B3EB053F7ED84FF0000892B298
:1043300000234146FBF774FF0F0247EA10670602AD
:1043400068082A464346301847F10001FBF768FF2A
:10435000A0F54072404B9A4268D82368D860404626
:104360004CE0FEF7D1F8CFE73C48D0E7013B072B04
:104370005ED8DFE803F006045D265D5D5D0A374820
:1043800003E0FEF70BFE002854D0626A314B33F88D
:104390001230B0FBF3F06268530803EB4000B0FB4F
:1043A000F2F080B2A0F110024FF6EF739A4243D8B8
:1043B00020F00F03C0F3420018432368D8600020A8
:1043C0001CE0FEF7A1F8DEE7244802E0FEF7E6FD78
:1043D000B0B3626A1F4B33F81230B0FBF3F063687E
:1043E00000EB5300B0FBF3F080B2A0F110024FF6E7
:1043F000EF739A4226D82368D86000200123A4F8DE
:104400006A30A4F86830002323676367BDE8F08151
:10441000FEF77AF8DCE74FF40040DAE70120EDE739
:104420000020EBE70120E9E70120E7E70120E5E7CD
:104430000120E3E70020E1E70120DFE70120DDE7DD
:104440000020DBE70120D9E7F369FFCF00800040BF
:1044500000380140947B0008FFFC0F000024F400AA
:10446000836A13F0010F06D00268536823F4003307
:10447000C16A0B435360836A13F0020F06D00268CF
:10448000536823F48033016B0B435360836A13F04A
:10449000040F06D00268536823F48023416B0B435A
:1044A0005360836A13F0080F06D00268536823F440
:1044B0000043816B0B435360836A13F0100F06D0E7
:1044C0000268936823F48053C16B0B439360836A43
:1044D00013F0200F06D00268936823F40053016C98
:1044E0000B439360836A13F0400F0AD0026853684D
:1044F00023F48013416C0B435360436CB3F5801F6E
:104500000BD0836A13F0800F06D00268536823F43F
:104510000023C16C0B43536070470268536823F457
:10452000C003816C0B435360EBE72DE9F84305466C
:104530000F4616469946DDF820802C68E46937EA74
:1045400004030CBF01240024B44257D1B8F1FF3F4B
:10455000F3D0FFF743FBA0EB090040452FD8B8F19B
:10456000000F2CD02B681A6812F0040FE5D0DA691E
:1045700012F4006FE1D04FF400621A622A6852E828
:10458000003F23F4D07342E800310029F6D12A68B5
:1045900002F1080353E8003F23F00103083242E828
:1045A00000310029F3D12023C5F88430C5F88830C4
:1045B000C5F88C30002385F8803003201FE02A687E
:1045C00052E8003F23F4D07342E800310029F6D1CD
:1045D0002A6802F1080353E8003F23F00103083280
:1045E00042E800310029F3D12023C5F88430C5F812
:1045F0008830002385F88030032000E00020BDE8EB
:10460000F88330B583B004460023C0F88C30FFF740
:10461000E5FA054623681B6813F0080F0FD12368DD
:104620001B6813F0040F18D12023C4F88430C4F899
:1046300088300020E06684F8800003B030BD6FF061
:104640007E430093034600224FF400112046FFF7FB
:104650006CFF0028E3D00320EFE76FF07E43009368
:104660002B4600224FF480012046FFF75EFF002812
:10467000DAD00320E1E778B310B50446D0F88430EF
:104680000BB32423C4F884302268136823F0010399
:1046900013602046FFF7ACFD012813D0A36ABBB915
:1046A0002268536823F4904353602268936823F090
:1046B0002A0393602268136843F0010313602046C5
:1046C000FFF79FFF10BD80F88030FDF76FF8D8E747
:1046D0002046FFF7C5FEE3E701207047436E2BB984
:1046E0000123A0F86A30A0F86830704730B403683E
:1046F0009A68C2F342629968490F094D6B5CDB000E
:10470000084C615C93FBF1F3A0F86A30AB5CDB0012
:10471000A25C93FBF2F3A0F8683030BC704700BF96
:10472000B47B0008AC7B000870477047704790F876
:104730008030012B18D0012380F880302423C0F86A
:10474000843003681A68196821F00101196022F0A9
:1047500000520023436601680A602022C0F88420CA
:1047600080F88030184670470220704738B590F8BE
:104770008030012B1DD00446012380F88030242393
:10478000C0F8843003681D681A6822F001021A60BC
:104790000268936823F0604319439160FFF79EFF1E
:1047A00023681D602023C4F88430002084F8800032
:1047B00038BD0220FCE738B590F88030012B1DD0C1
:1047C0000446012380F880302423C0F88430036835
:1047D0001D681A6822F001021A600268936823F0CB
:1047E000606319439160FFF779FF23681D60202300
:1047F000C4F88430002084F8800038BD0220FCE733
:10480000D0B110B50446437A93B102236372226893
:10481000136823F0200361680B4313602268136858
:1048200043F004031360012363720020E06010BDB5
:104830000372FDF77BF8E8E70120704738B50446BE
:104840000268D36823F0A003D360FFF7C7F90546D9
:104850002368DB6813F0200F07D1FFF7BFF9401B77
:10486000B0F57A7FF4D9032000E0002038BD38B5D8
:104870000368DA6812F0400F01D0002038BD04460A
:104880004FF0FF32DA60FFF7A9F905462368DB68CD
:1048900013F0400F07D1FFF7A1F9431BB3F57A7F5F
:1048A000F4D90320EAE70020E8E738B5002867D00C
:1048B000044690F82130002B45D0022384F82130A3
:1048C0002368CA225A62236853225A622046FFF79D
:1048D000CEFF054600283BD12268936823F4E0030D
:1048E00023F04003936021688A686368206903436A
:1048F000A069034313438B602368E2681A6122684E
:104900001369A16843EA014313612268D36823F065
:104910008003D3602268D36C23F00303D36421683F
:10492000CB6CE269606902431343CB6423689B68E4
:1049300013F0200F14D02368FF225A62012384F859
:104940002130284638BD80F82030FDF719F8B4E74B
:104950002368FF225A62042384F821300125F0E7FE
:104960002046FFF76BFF0028E5D02368FF225A623C
:10497000042384F82130002384F820300125E0E767
:104980000125DEE7F8B590F82030012B77D00446FA
:104990000E461546012380F82030022380F821308E
:1049A0000368CA225A62036853225A6203689B68EA
:1049B00013F4806F17D0FFF711F907462368DB68FF
:1049C00013F0040F0FD0FFF709F9C01BB0F57A7F81
:1049D000F4D92368FF225A62032084F821000023BF
:1049E00084F820304AE02268936823F4806393605F
:1049F0002268D368DBB263F49063D360FFF7EEF80C
:104A000007462368DA6812F0040F0FD1FFF7E6F8C3
:104A1000C01BB0F57A7FF4D92368FF225A620320C5
:104A200084F82100002384F8203027E05E612268AA
:104A3000936823F007039360226893681D43956091
:104A4000104BD3F8802042F40022C3F880201A686B
:104A500042F400221A602268936843F48043936012
:104A60002268936843F4806393602368FF225A624C
:104A7000012384F82130002084F82000F8BD0220B2
:104A8000FCE700BF00080058164AD2F8883043F40B
:104A90007003C2F888304FF0B0431A6842F0010248
:104AA0001A604FF4E0229A601968A2F1A262A2F2A1
:104AB00005120A401A60D3F8942022F00502C3F8C8
:104AC0009420D3F8982022F00102C3F89820064AD7
:104AD000DA601A611A6822F480221A6000229A6150
:104AE000704700BF00ED00E00010042200B583B065
:104AF000084800F036FA50B901A9064800F061FAFA
:104B0000054B1B690199186900F043FAF0E703B0FF
:104B10005DF804FB200200200000032008B5FCF72C
:104B200079FF08BD08B5104A104B136003F120014E
:104B3000516003F13001916003F13C01116203F116
:104B40004401516203F14C01D16003F15401116140
:104B500003F17001516103F1740191618033D361FC
:104B6000FCF780FF08BD00BF0000032034010320D4
:104B700038B504460B4D284600F0F0F90A4B5B6847
:104B8000A2681A60E268DA60084A5A609D60FCF721
:104B90008BFF2268064B1A606268064B1A60002081
:104BA00038BD00BFC001032000000320480A0320D5
:104BB0001C0200201802002008B5054B5A68126834
:104BC000012111725B68FCF777FF002008BD00BF70
:104BD0000000032000B583B0074800F0C2F940B9D7
:104BE00001A9054800F0EDF9044B1B6801989847AE
:104BF000F2E703B05DF804FBC00103201C020020B3
:104C000008B5024B1B68984708BD00BF180200207A
:104C100038B50446094D284600F0A0F9084BDB687A
:104C2000A2681A605D60FCF765FF2268054B1A6098
:104C30006268054B1A60002038BD00BFC801032020
:104C400000000320280200202C02002008B5054B9C
:104C5000DA68126810211172DB68FCF753FF00203C
:104C600008BD00BF0000032008B5044BDA68DA680D
:104C7000034B1B681068984708BD00BF0000032065
:104C80002802002000B583B0074800F06AF940B957
:104C900001A9054800F095F9044B1B680198984755
:104CA000F2E703B05DF804FBC80103202C020020EA
:104CB00038B504460B4D284600F050F90A4800F07C
:104CC0004DF90A4B1B69A2689A60E268DA601D61BF
:104CD00022681A6062685A6022695A6162699A6140
:104CE00038BD00BFD00103202002002000000320B7
:104CF00008B50146034800F04CF90348FCF750FFA3
:104D000008BD00BF20020020ED4A000810B5054C88
:104D1000204600F023F9044B5B691C60FCF758FF48
:104D200010BD00BFD8010320000003207047000021
:104D300000B583B0074800F014F938B901A9054857
:104D400000F03FF90198FFF7F1FFF3E703B05DF8DA
:104D500004FB00BFD801032000B585B06B4600F10D
:104D60000C0225214FF6664001F096F89DF80E00E2
:104D700005B05DF804FB00B585B06B4600F10C0290
:104D80000F214FF6684001F087F89DF80E0005B03E
:104D90005DF804FB00B585B002466B460E214FF668
:104DA000754001F079F89DF80E0005B05DF804FB40
:104DB00070B41D4BDB6BC3F30D039B0003F1005379
:104DC00003F540331A681168184B994226D01369CD
:104DD00054699569516892681E0E06701E0C4670E3
:104DE0001E0A8670C3F30316C67003F00F03037127
:104DF000230E4371230C8371230AC371047245721D
:104E00000B0E83720B0CC372090A0173130E4373EA
:104E1000130C8373C273002070BC7047536994698C
:104E2000D569D1681269D7E700400058B95646A93C
:104E300030B583B0EFF3108572B60D4C0DF106015D
:104E4000204600F0FEF90DF10601204600F067FA59
:104E500040B185F31088074ABDF80610FCF706F844
:104E600003B030BD044B01221A7085F31088F7E7B8
:104E700030020020314E00081C00002010B504460E
:104E80005C2101F009FB08B1013010BD2F21204643
:104E900001F002FB08B10130F7E72046F5E700001A
:104EA00000B583B0FBF7DEFF0223009300234FF42D
:104EB00080520349034800F090F803B05DF804FB0A
:104EC0005002002030020020F8B5EFF31085B0F159
:104ED000FF3F20D01446013801281ED80AB91046D9
:104EE0001AE072B696B2012332460D4800F08EF8F1
:104EF00010B10C4B1B781BB985F3108820460BE0D2
:104F0000084B00221A7085F31088074A3146FBF7D8
:104F1000ADFF204600E00020F8BD4FF0FF30FBE77A
:104F2000300200201C000020314E000808B5FFF7B9
:104F3000CBFF08BD01460748C3798B4204D0064A1F
:104F4000904201D00838F7E78B4200D1704700202B
:104F5000FCE700BFF873FF1F0070FF1F0060406098
:104F60007047EFF3108372B60268824203D00020CC
:104F700083F3108870470120FAE7EFF3108372B6CD
:104F800002680A60486001600A68516083F3108813
:104F90007047EFF3108372B6086042684A60416060
:104FA0004A68116083F310887047EFF3108372B67C
:104FB00042680168116002684168516083F310889B
:104FC000704710B5EFF3108472B603680B60006889
:104FD000FFF7EBFF84F3108810BD10B49DF8044078
:104FE00001600021C1600161416181614260038112
:104FF000047714F0020F02D02BB9084600E000201D
:105000005DF8044B70474FF0FF30F9E72DE9F04FA2
:1050100085B0044602919A460689C6B94FF0020B44
:105020006169B9B116BB2568236915F80380581C5E
:105030006768B84201D3DB1B581C2B5C08EB0328C4
:105040001FFA88F808F102081FFA88F804E04FF008
:10505000000BE5E74FF0000806B916462269E36841
:105060009A4205D3636842449A1A02E0B046F3E7D5
:10507000002206EB0B000AFB00F5954205D3B2FBBC
:10508000F0F300FB1323DBB200E000239B4505D2C5
:10509000227F12F0010F16D09AB200E000229B4549
:1050A00005D2237F13F0020F01D01FFA8BF2002EDE
:1050B00000F0C380294411446368994205D8002355
:1050C00001931F461DE00022E9E70020B2E02068BE
:1050D0002A46029907FB0911184401F039F963695E
:1050E0002B4463610BEB06081FFA88F80195A9EBC6
:1050F00005050023002D40F08480A3690133A361DE
:105100000137574580F08D8023694344626893429C
:1051100000D39B1A236122898AB921685A1CCE5474
:105120006368934200D8D21A310A2068531C815414
:1051300062689A4200D89B1A626902326261B14683
:105140006568ED1AB54228BF3546AE42BFD002D9D8
:10515000227F002ABBD0002DCCD0227F12F0010F7D
:1051600022D0228932B92068991EFF224254216838
:10517000013BCA5463691D4465612389002B3CD1FE
:1051800023681E704FEA1923226853706369023343
:1051900063614D460023019302231BFA85F81FFA31
:1051A00088F800222261A5E712F0020FF5D02289CB
:1051B000002A44D121689A1E8D54280A21685A1E5B
:1051C000885420682A46029907FB0911184401F007
:1051D000BFF863692B446361A9EB0502A36901333E
:1051E000A36123681A70110A236859706369023336
:1051F0006361019515460223CFE74D4600230193D5
:10520000CBE720680390019A07FB09212A46029800
:1052100001440398184401F09BF863691D446561DB
:105220006BE7206823699B4463689B4501D3ABEB24
:10523000030B584405B0BDE8F08F0020FAE70020CA
:10524000F8E7F0B503460089002839D102245E69E9
:10525000002E61D0002835D1D3F800C0DD681CF8DD
:1052600005206F1CD3F804E0774502D3A5EB0E05AB
:105270006F1C1CF8075002EB052292B21D7F05F04F
:105280000305012D20D01D68DE6827463019D3F8AC
:1052900004C0604501D3A0EB0C00284414445D69B0
:1052A0002C1B5C6134B116443E44B44501D8A6EBD6
:1052B0000C06DE609C69013C9C6101B10A80F0BD76
:1052C0000024C4E70246D9E74FF6FF75AA420AD088
:1052D000DD681F69BD42D6D90028D4D05F687D1B28
:1052E0008542D0D201E00028F2D1DA685D68521B15
:1052F00016445E610022DA6060B918680278012DF8
:1053000005D90125405D02EB002292B2BBE7C5F151
:105310000105F7E70246B6E700221046CDE7F0B4F4
:10532000058925BB02234269002A47D0C66805BB10
:10533000D0F800C01CF80620741C4768BC4201D39A
:10534000F41B01341CF8044002EB042292B2047FE7
:1053500004F00304012C0ED00468334440688342F7
:1053600000D31B1AE01801B10A80F0BC704700237B
:10537000D9E72A46EBE74FF6FF74A24209D0046949
:10538000B442E9D2002DE7D04468A41BAC42E3D27A
:1053900001E0002DF3D175B905682A784468012C25
:1053A00006D901242C5D02EB042292B20026D3E739
:1053B000C4F10104F6E72A460026CDE70022104694
:1053C000D1E708B500F0C4FF08BD08B500F0CEFF76
:1053D00008BD10B588B000248DF80740182221467A
:1053E00002A8FFF7F2FF3F23ADF808308123ADF8A4
:1053F0000A300DF10703069301230793214602A803
:1054000000F03CFCA04203DB9DF8070008B010BD93
:10541000FF20FBE72DE9F04FCBB09C469DF854618F
:105420009DF85C5106F1080A04AC04EB0A0B7719ED
:105430000937E31901930DF10F094FF000088DF8BA
:105440000F808DF81000ADF81110ADF813208DF815
:1054500015C09DF850318DF816308DF81760324622
:10546000569906A8FFF7ADFF04F80A5009362A46F8
:1054700058990BF10100FFF7A4FF3544BDF86431E2
:10548000E353BDF86831019A538004351822414630
:1054900044A8FFF79AFF3F23ADF810318323ADF8FE
:1054A000123146944795CDF8209101234993414606
:1054B00044A800F0E3FB404504DB9DF80F004BB02F
:1054C000BDE8F08FFF20FAE770B5C8B00DF1070511
:1054D00000248DF8074002AE8DF8080018222146FE
:1054E00042A8FFF772FF3F23ADF808318523ADF8DE
:1054F0000A3144960123459346954793214642A895
:1055000000F0BCFBA04203DB9DF8070048B070BD73
:10551000FF20FBE770B5C8B00DF1070600258DF838
:10552000075002AC8DF808008DF809108DF80A209C
:105530008DF80B309DF830318DF80C309DF83431FA
:105540008DF80D309DF838318DF80E304F9BCDF829
:105550000F309DF840318DF813301822294642A8AB
:10556000FFF733FF3F23ADF808318623ADF80A314A
:1055700044940C234593469601234793294642A819
:1055800000F07CFBA84203DB9DF8070048B070BD2B
:10559000FF20FBE770B5C8B00DF1070600248DF8B9
:1055A000074002ADADF80800CDF80A1018222146D8
:1055B00042A8FFF70AFF3F23ADF808318823ADF872
:1055C0000A31449506234593469601234793214685
:1055D00042A800F053FBA04203DB9DF8070048B04F
:1055E00070BDFF20FBE72DE9F041C8B007460E462D
:1055F00015469846072200216846FFF7E6FE02ACF2
:105600008DF808708DF809608DF80A501822002175
:1056100042A8FFF7DAFE3F23ADF808318A23ADF840
:105620000A31449403234593CDF818D107234793B7
:10563000002142A800F022FB002811DB9DF80000A9
:1056400058B9BDF80130A8F80030BDF803204E9BD2
:105650001A80BDF805204F9B1A8048B0BDE8F08144
:10566000FF20FAE7F0B5C9B004460DF107060025A2
:105670008DF8075002AF8DF8080002460DF10900C1
:10568000FFF79FFE01341822294642A8FFF79DFE2E
:105690003F23ADF808318E23ADF80A314497459485
:1056A000469601234793294642A800F0E7FAA8420C
:1056B00003DB9DF8070049B0F0BDFF20FBE710B504
:1056C00088B000248DF807401822214602A8FFF771
:1056D0007CFE3F23ADF808309223ADF80A300DF17F
:1056E0000703069301230793214602A800F0C6FA98
:1056F000A04203DB9DF8070008B010BDFF20FBE7C8
:1057000070B5C8B00DF1070600248DF8074002AD52
:10571000ADF808008DF80A101822214642A8FFF7BC
:1057200054FE3F23ADF80831A523ADF80A31449566
:1057300003234593469601234793214642A800F050
:105740009DFAA04203DB9DF8070048B070BDFF2022
:10575000FBE710B588B000248DF8074018222146D9
:1057600002A8FFF732FE3F23ADF8083040F20113E4
:10577000ADF80A300DF10703069301230793214684
:1057800002A800F07BFAA04203DB9DF8070008B0F6
:1057900010BDFF20FBE72DE9F041C8B00446884664
:1057A00017461E4601283CD0022838D0012502ABFE
:1057B0001D440322002101A8FFF707FE8DF80840D1
:1057C000012C30D0022C30D11024224641460DF15C
:1057D0000900FFF7F6FD2F706E70033418220021C8
:1057E00042A8FFF7F2FD3F23ADF808314FF4817373
:1057F000ADF80A3102AB4493459401AB46930323C1
:105800004793002142A800F039FA002811DB9DF8E7
:10581000040058B9BDF805204E9B1A8006E01125FA
:10582000C5E70325C3E70224CFE7972048B0BDE8CA
:10583000F081FF20FAE72DE9F041C8B006460C469A
:1058400090461F4601294CD0022948D0032502ABBF
:105850001D440322002101A8FFF7B7FDADF8086041
:105860008DF80A40012C3ED0022C3ED11024224655
:1058700041460DF10B00FFF7A4FD2F809DF8383154
:10588000AB709DF83C31EB709DF840312B719DF869
:1058900044316B719DF84831AB710A3418220021F4
:1058A00042A8FFF792FD3F23ADF808314FF4827311
:1058B000ADF80A3102AB4493459401AB4693032300
:1058C0004793002142A800F0D9F9002811DB9DF888
:1058D000040058B9BDF80520539B1A8006E0132533
:1058E000B5E70525B3E70224C1E7972048B0BDE836
:1058F000F081FF20FAE7F0B5C9B01C460DF10707AB
:1059000000268DF8076002ADADF80800ADF80A106A
:105910008DF80C208DF80D301A464E990DF10E00C1
:10592000FFF74FFD06341822314642A8FFF74DFD20
:105930003F23ADF808314FF48373ADF80A31449535
:105940004594469701234793314642A800F096F9C3
:10595000B04203DB9DF8070049B0F0BDFF20FBE734
:1059600070B5C8B00DF1070500248DF8074002AEF0
:10597000ADF808001822214642A8FFF726FD3F2374
:10598000ADF8083140F22713ADF80A3144960223EE
:105990004593469501234793214642A800F06EF9AE
:1059A000A04203DB9DF8070048B070BDFF20FBE775
:1059B000F0B5C9B00C4611460DF1070700258DF86A
:1059C000075002AE8DF808008DF8094022460DF10F
:1059D0000A00FFF7F6FC02341822294642A8FFF716
:1059E000F4FC3F23ADF808310C23ADF80A3144969E
:1059F0004594469701234793294642A800F03EF973
:105A0000A84203DB9DF8070049B0F0BDFF20FBE78B
:105A100070B5C8B00DF1070600248DF8074002AD3F
:105A20008DF808008DF809101822214642A8FFF7CA
:105A3000CCFC3F23ADF808310F23ADF80A31449573
:105A400002234593469601234793214642A800F03E
:105A500015F9A04203DB9DF8070048B070BDFF2098
:105A6000FBE770B5C8B00DF1070500248DF80740BD
:105A700002AEADF808001822214642A8FFF7A5FCA7
:105A80003F23ADF808311823ADF80A3144960223BC
:105A90004593469501234793214642A800F0EEF82E
:105AA000A04203DB9DF8070048B070BDFF20FBE774
:105AB00010B588B000248DF807401822214602A8AE
:105AC000FFF783FC0323ADF80830ADF80A300DF181
:105AD0000703069301230793214602A800F0CEF89E
