:020000040800F2
:1000000000000320CD7300086D1700086F1700086B
:10001000711700087317000875170008000000002A
:10002000000000000000000000000000771700083A
:1000300079170008000000007B1700087D170008F2
:100040002174000821740008217400088517000835
:10005000217400082174000821740008217400082C
:10006000217400082174000821740008217400081C
:1000700021740008217400088D17000821740008FD
:1000800021740008217400082174000821740008FC
:1000900021740008217400082174000821740008EC
:1000A00021740008217400082174000821740008DC
:1000B00021740008217400082174000821740008CC
:1000C00021740008217400082174000821740008BC
:1000D0009D170008E117000821740008217400082A
:1000E00021740008F1170008217400082174000829
:1000F00001180008091800081118000821740008E8
:10010000217400082174000821740008217400087B
:10011000217400082174000821740008217400086B
:1001200021740008217400081918000821740008BF
:0C013000217400082174000821740008EC
:1001400010B5054C237833B9044B13B10448AFF311
:1001500000800123237010BDDC020020000000009D
:100160006CA0000808B5034B1BB103490348AFF36B
:10017000008008BD00000000E00200206CA0000824
:1001800010F8012B11F8013B012A28BF9A42F7D041
:10019000D01A7047034613F8012B002AFBD1181A16
:1001A000013870470000000000000000000000005F
:1001B00001F0FF01102A2BDB10F0070F08D010F818
:1001C000013B013A8B422DD010F0070F42B3F6D11C
:1001D000F0B441EA012141EA014122F007047FF035
:1001E00000070023F0E80256083C85EA010586EA8C
:1001F000010685FA47F5A3FA87F586FA47F6A5FAC8
:1002000087F68EB9EED1F0BC01F0FF0102F00702D3
:1002100032B110F8013B013A83EA010313B1F8D17E
:100220000020704701387047002D06BF354603385F
:10023000073815F0010F07D1013015F4807F02BF98
:10024000013015F4C03F0130F0BC0138704700BFE9
:100250007BB972B90029BEBF00204FF0004106E013
:1002600008BF00281CBF6FF000414FF0FF3000F0C6
:10027000B9B9ADF1080C6DE904CE002909DB002BFA
:100280001ADB00F04DF8DDF804E0DDE9022304B0EC
:100290007047404261EB4101002B1BDB00F040F84E
:1002A000DDF804E0DDE9022304B0404261EB4101E6
:1002B000524263EB43037047524263EB430300F047
:1002C0002FF8DDF804E0DDE9022304B0404261EBE1
:1002D00041017047524263EB430300F021F8DDF81F
:1002E00004E0DDE9022304B0524263EB43037047AC
:1002F00053B94AB9002908BF00281CBF4FF0FF318D
:100300004FF0FF3000F06EB9ADF1080C6DE904CE8E
:1003100000F006F8DDF804E0DDE9022304B07047E0
:100320002DE9F047089D04468C46002B40F0838061
:100330008A42174647D9B2FA82F242B1C2F120008E
:1003400024FA00F09140974040EA010C94404FEAB3
:100350001748230CBCFBF8F61FFA87FE08FB16C1F2
:1003600043EA014306FB0EF1994209D9FB1806F155
:10037000FF3080F01981994240F21681023E3B44E1
:100380005B1AA4B2B3FBF8F008FB103344EA034451
:1003900000FB0EFEA64509D93C1900F1FF3380F0A1
:1003A0000581A64540F2028102383C4440EA0640FD
:1003B000A4EB0E0400261DB1D4400023C5E9004380
:1003C0003146BDE8F08702B9FFDEB2FA82F2002AB8
:1003D00050D1CB1B4FEA174E1FFA87F80126B3FB0B
:1003E000FEFC210C0EFB1C3341EA034108FB0CF31D
:1003F0008B4207D979180CF1FF3002D28B4200F200
:10040000E9808446C91AA3B2B1FBFEF00EFB1011BD
:1004100043EA014408FB00F8A04507D93C1900F164
:10042000FF3302D2A04500F2D9801846A4EB08049D
:1004300040EA0C40BFE78B4209D9002D00F0B180A3
:100440000026C5E9000130463146BDE8F087B3FA21
:1004500083F6002E4AD18B4202D3824200F2B8804A
:10046000841A61EB030101208C46002DA8D0C5E958
:10047000004CA5E7C2F1200320FA03F6974001FAE9
:1004800002F04FEA174ED9403043030CB1FBFEF6A1
:100490001FFA87F80EFB161143EA014306FB08F129
:1004A000994204FA02F409D9FB1806F1FF3C80F0E6
:1004B0008D80994240F28A80023E3B445B1A81B2B1
:1004C000B3FBFEF00EFB103341EA034100FB08F3DF
:1004D0008B4207D9791800F1FF3C73D28B4271D956
:1004E00002383944CB1A40EA064678E7C6F1200CB8
:1004F00003FA06F422FA0CF31C4320FA0CF701FA73
:1005000006F34FEA144E21FA0CF11F433B0CB1FBEA
:10051000FEF91FFA84F80EFB191143EA014109FBA9
:1005200008FA8A4502FA06F200FA06F308D96118B9
:1005300009F1FF3048D28A4546D9A9F10209214480
:10054000A1EB0A01BFB2B1FBFEF00EFB101147EAAE
:10055000014700FB08F8B84507D9E71900F1FF315A
:100560002ED2B8452CD90238274440EA0940A7EBDF
:100570000807A0FB02894F45C64649461AD317D043
:100580005DB1B3EB0E0267EB010707FA0CFCF2401A
:100590004CEA0202F740C5E9002700263146BDE8D3
:1005A000F0872E4628460BE70646E9E61846FDE6A4
:1005B0004345E5D2B8EB020E69EB04010138DFE7F1
:1005C0000846D2E760468DE78146B9E7664675E79B
:1005D00030464AE7ACF1020C394413E702383C4498
:1005E00024E700BF704700BF84B04FF0B043DA6C1F
:1005F00042F00402DA64DA6C02F004020392039A15
:10060000DA6C42F00102DA64DA6C02F00102029262
:10061000029ADA6C42F00202DA64DB6C03F0020345
:100620000193019B04B0704700B585B04FF0B04313
:100630009A6C42F004029A649A6C02F004020392EB
:10064000039A9A6C42F001029A649A6C02F00102D9
:100650000292029A9A6C42F002029A649B6C03F036
:1006600002030193019B00220F210E2003F026FCC0
:100670000E2003F057FC00220F213A2003F01EFC4D
:100680003A2003F04FFC05B05DF804FB10B5164AA4
:10069000536ADBB293620D2B0AD00A2B08D00F2BC2
:1006A00015D012490A68501C086011498B540DE09E
:1006B0000F4C204606F054FB06F002FB00230B4AC9
:1006C000136023606360A360E360236110BD074B88
:1006D0001B68002BFADD074807F022FB034A13686A
:1006E000013B1360F2E700BF0038014038170020DB
:1006F0002417002048A1000882B0074B1022C3F83D
:100700008420BFF34F8FBFF36F8F044BDB690193DE
:10071000019B02B0704700BF00E100E000380140DB
:1007200072B6FEE708B50448044B036003F0D0FC42
:1007300000B908BDFFF7F4FFC0140020000C0058FA
:1007400010B590B000240B940C940D940E940F945B
:100750000A9428222146684606F0B2FF2D482E4B07
:10076000036044600F23836047F6FF73C360046136
:100770008461C461446104F00CFB002840D1002373
:100780008DF82C308DF82D308DF82E300C930E9383
:100790000F9301220BA91F4804F073FB90BB0122A9
:1007A0008DF828208DF829208DF82A2000238DF837
:1007B0002B300AA9174804F0EDFB28BB00238DF865
:1007C00000308DF8013030228DF802200193039320
:1007D0000493124A05920693079301228DF8202074
:1007E0004FF48073099369460A4804F049FC68B9DC
:1007F00000221146074804F065FD48B910B010BD4D
:10080000FFF78EFFFFF78CFFFFF78AFFFFF788FFE8
:10081000FFF786FF8C1600200028004000808080B3
:1008200008B50548054B03600023436004F028FA2F
:1008300000B908BDFFF774FF101700200010005822
:1008400010B59AB04822002108A806F039FF00240C
:10085000019402940394049405940694079403F07D
:100860000BFB4FF0B042D2F8903023F01803C2F8DF
:10087000903002F58062136823F4C06343F4007380
:100880001360136803F4C0630093009B472308932D
:100890004FF48033099301230A934FF480720B9233
:1008A000129340230C93139408A801F0B5FF80B96C
:1008B0006F23019302230293002303930493059370
:1008C00006930793012101A802F03CFB18B91AB066
:1008D00010BDFFF725FFFFF723FF00B595B04022BD
:1008E000002101A806F0ECFE4FF4405300934FF4B2
:1008F000804311930023129310231393684602F050
:100900004CFD10B915B05DF804FBFFF709FF0000BE
:1009100008B503F081FB00F0E3F9FFF791FFFFF763
:10092000DCFFFFF7FFFEFFF75FFEFFF77DFEFFF73F
:1009300007FFFFF775FF00F0EDF90023114A136080
:10094000114A1360114A136053609360D3601361BE
:100950000F4806F07FFA06F0B3F90E4A52E8003F5E
:1009600043F0200342E800310029F6D10A4A52E858
:10097000003F43F0010342E800310029F6D100F0C6
:10098000D9F9FCE7FC1400203817002024170020B8
:1009900080160020003801400838014008B516488C
:1009A000164B03604FF4E133436000238360C36060
:1009B00003610C22426183614FF40042C261036211
:1009C0004362836204F097F870B900210A4804F08A
:1009D0000DF958B90021084804F02DF940B906482E
:1009E00004F0E5F830B908BDFFF79AFEFFF798FE6E
:1009F000FFF796FEFFF794FEF01500200038014047
:100A000082B04FF0B0431A6D42F480121A651B6D2C
:100A100003F480130193019B0A4B3F229A609A6171
:100A20005A6842F47C125A605A6942F47C125A6144
:100A30005A6842F03F025A605A6942F03F025A61D6
:100A400002B07047000C0058054BCA225A6253226C
:100A50005A629A6822F007029A60FF225A6270472F
:100A600000280040704708B54FF0B043D3F89430E9
:100A700013F0806F18D04FF0B043D3F8943013F0D8
:100A8000805F11D103F0F8F903F0F6F94FF0B043AD
:100A9000D3F8902042F48032C3F89020D3F890200D
:100AA00022F48032C3F8902008BD08B5FFF7DBFFC1
:100AB000FFF7A6FF08BD000008B5002004F0CAFE3D
:100AC00068B181794FF0B042054BC2F89C30D2F842
:100AD0009C3023F47C5343EA0123C2F89C3008BDC8
:100AE000FECAFECA08B54FF0B042936843F4004313
:100AF000936005F017FF054AD2F8803023F0070312
:100B000043F00403C2F8803008BD00BF0004005861
:100B100010B588B004F0A8FC0F4A0021042006F0AC
:100B20003BF80E4C00940E4B019369460D4805F0BE
:100B3000F1FD04F58673029304F50673039304F53F
:100B40004974049440F23C53059302A804F052FD0A
:100B500004F086FC08B010BD39670008E0010320EE
:100B6000650A0008190C000810B54468617B064846
:100B700007F0D6F8637B1BB9044807F057F910BD9E
:100B8000034807F053F9FAE74CA1000878A10008E0
:100B9000B0A1000810B584B0002300930193029324
:100BA000ADF80C3043685B7B3BB10446012B22D08F
:100BB000144807F03BF904B010BD134807F036F9AC
:100BC00000F096F90D238DF800307F238DF8023068
:100BD0000E4B1C68240C21460D4807F0A1F8ADF817
:100BE0000C40684604F078FD01F0C2F900210120B4
:100BF00005F0A2FEDFE7074807F018F9002323708D
:100C0000D9E700BF60A20008E4A10008002004E0CA
:100C100014A2000834A2000830B585B00446456827
:100C2000684604F067FD9DF802309DF801209DF8AC
:100C30000010224807F074F89DF80410204807F0CF
:100C40006FF89DF80C309DF80B209DF80A101D4898
:100C500007F066F8B5F80B30A3F51243072B08D858
:100C6000DFE803F004090D07181E22282046FFF7CD
:100C700091FF05B030BD2046FFF776FFF9E7124837
:100C800007F0D4F8D5F81120D5F80D100F4807F06B
:100C900047F8EEE7D5F80D100D4807F041F8E8E702
:100CA0000C4807F0C3F8E4E7D5F80D100A4807F040
:100CB00037F8DEE7094807F0B9F8DAE78CA2000850
:100CC000B0A20008CCA20008E4A2000810A300080B
:100CD00054A3000888A30008A4A30008DCA300080C
:100CE00008B5044B4FF400421A61FFF7DEFEFFF730
:100CF000E3FE08BD00400058024BD3F89020C3F833
:100D0000902070470008005808B5FFF7F5FFFFF77F
:100D10009BFE08BD08B5FFF7F7FFFFF7E3FE0449A8
:100D2000002000F005FB00F0CFF8FFF7F1FE08BD52
:100D30008C16002008B54FF0FF3005F071FE08BD9D
:100D4000704708B54FF0FF3005F06AFE08BD08B5E2
:100D50000021042005F006FE08BD08B5022005F0BC
:100D600033FE08BD08B5022005F0EAFE08BD00000C
:100D700070B58CB000230B931C461D461E4606E042
:100D80004E4A02EBC3018A8815430133DBB2252B9F
:100D90001ED84A4A02EBC3029279002AF5D0474A8C
:100DA00052F8332046488242EAD000F58060824201
:100DB00008D0B2F1904FE8D1404A02EBC3018A88D3
:100DC0001643E2E73D4A02EBC3018A881443DCE79D
:100DD000002309930123089303230A9326B93DBBFB
:100DE000002C48D10CB070BD07964FF0B043DA6CC0
:100DF00042F00102DA64DA6C02F001020292029A15
:100E0000D3F84C2142F00102C3F84C21D3F84C3105
:100E100003F001030193019B07A94FF0904002F0FA
:100E200073FD002231464FF0904002F031FED6E7CC
:100E300007954FF0B043DA6C42F00202DA64DA6CE4
:100E400002F002020492049AD3F84C2142F002020A
:100E5000C3F84C21D3F84C3103F002030393039BF6
:100E6000174E07A9304602F04FFD002229463046B2
:100E700002F00EFEB4E707944FF0B043DA6C42F094
:100E80000402DA64DA6C02F004020692069AD3F8DD
:100E90004C2142F00402C3F84C21D3F84C3103F04A
:100EA00004030593059B074D07A9284602F02CFD76
:100EB00000222146284602F0EBFD93E7F8A3000844
:100EC000000400480008004808B503F0D3F803F018
:100ED000D9F8064AD2F8903043F48033C2F8903003
:100EE00004F06EFCFFF744FF08BD00BF0008005887
:100EF00030B589B001AC084D0FCD0FC495E807009F
:100F000003C424F8022B120C227004F0A1FB01A8E8
:100F100004F0D3FB09B030BDC0A0000808B5FFF74E
:100F20003DFD08BD08B513460A460146002000F005
:100F3000D9FB08BD064A936A9BB2906A80B283428D
:100F400004D0034B9A6A034690B2F8E7704700BF9B
:100F50000028004010B401EB41020E4B03EBC2032A
:100F60005B7DDBB2062B05D003EB4302094C04EB9F
:100F7000C2021075074A00EB400402EBC40463751B
:100F8000217501EB410102EBC10148755DF8044B8D
:100F9000704700BF84010020184B93F89030DBB2FB
:100FA0008B421ED010B4154B01EB410203EBC20281
:100FB000127DD4B202EB420203EBC202507500EB89
:100FC000400203EBC202517500EB400203EBC20288
:100FD000147501EB410103EBC10318755DF8044B77
:100FE0007047064B00EB400203EBC202517501EB68
:100FF000410103EBC1010875704700BF8401002067
:1010000030B4244B93F89030DBB283422AD0214C89
:1010100000EB400204EBC202157D537DDBB2527D32
:10102000D2B205EB450504EBC5046275062B0BD067
:10103000184A00EB400402EBC404247DE4B203EB45
:10104000430302EBC3031C75124B00EB400003EBA0
:10105000C0000122027393F89030DBB2062B10D04F
:1010600030BC70470B4B93F89020D2B283F891209C
:1010700000EB400203EBC202527DD2B283F8902013
:10108000E2E70029ECD1034B4FF0FF32C3F8942084
:10109000E6E700BF8401002008B5124BD3F8943076
:1010A000B3F1FF3F02D1002080B208BDFFF742FF3D
:1010B0000C4BD3F8943083420BD30A4BD3F89430C3
:1010C000181A094B1B7800FB03F0084B1B78D8401B
:1010D000EAE7074B1B881B1A024AD2F8940018440F
:1010E000EFE700BF84010020F8020020FE0200208C
:1010F000FC02002070B50446334B93F89030DBB20D
:10110000062B14D1304B93F89020D2B283F8912063
:1011100083F8900000EB400403EBC40406226275E0
:101120004FF0FF32C3F894200025284670BDFFF72A
:10113000B3FF0546244B04EB440203EBC202916863
:101140000144916004EB440203EBC202906893F8FF
:10115000902002EB420203EBC2039B68834225D836
:10116000194A92F89030D9B203EB430302EBC30360
:101170005B7DDBB2062B15D003EB4303124A02EB77
:10118000C3039B6883420DD80F4A01EB410102EB78
:10119000C1014B7DD9B203EB430302EBC3035B7D7B
:1011A000DBB2E7E72046FFF7D5FEBEE7064E96F82E
:1011B00090102046FFF7F0FE96F89030DBB286F8EC
:1011C000913086F89040B0E78401002010B560B3FC
:1011D0000446012832D9013CA4B21B4B1B681B6892
:1011E000DA6812F0040FF8D0DA68D2B262F49062D2
:1011F000DA60164B4FF40022DA60032002F0D6FECC
:10120000134A53691B0C1B041C435461FFF792FEE5
:10121000104BC3F894000C4B1B681A68936843F496
:1012200080639360AFF3008010BDFFF783FE094B2E
:10123000C3F89400032002F0ABFEF5E7064B1B78E1
:10124000012BC8D1C9E700BF0003002000080058E7
:101250000028004084010020FE02002070B5304BC1
:101260009B6813F4806F06D02E4B1B681B68DB68ED
:1012700013F0040FF8D12B4B1B681A68936823F402
:1012800080639360284A92F89030DCB203EB43030A
:1012900002EBC3039E68FFF7FFFE0546B04205D987
:1012A000214B012283F89820002024E01F4B1B884B
:1012B00010FA83F3B34207D21C4B188880B21A4B42
:1012C000002283F8982016E0B6B2301A80B2164B8E
:1012D000012283F898200EE004EB4404124A02EB4A
:1012E000C404A268521BA26003EB43030E4A02EB44
:1012F000C3035C7DE4B2062C0FD0234604EB44020A
:10130000094901EBC20292689542E5D904EB440415
:1013100001EBC4040022A260E6E7FFF757FF70BDAF
:10132000002800400003002084010020FA02002071
:1013300010B54C4B19600B68CA225A620B685322D5
:101340005A62494A936843F020039360936803F01C
:101350000703C3F10403D9B2444B1970136903F4B2
:10136000FE034FF4FE0292FAA2F2002A3DD0B2FA36
:1013700082F2D340DBB20133DAB23D4B1A703A4B02
:101380001B69C3F30E0301333A4C2380013B03FB7B
:1013900002F3A3F5A073CB404FF6FE72934226D919
:1013A000354B4FF6FF721A80344B1A6842F4002214
:1013B0001A60D3F8802042F40022C3F8802000286D
:1013C00045D12F4B012283F898204FF0FF32C3F80C
:1013D000942005280FD800EB4002294B03EBC203F1
:1013E00000221A730130C0B2F3E72022C1E79BB29A
:1013F000214A1380D8E7224B062283F89020194C0B
:10140000226811688B6823F480638B601268D3684C
:10141000DBB263F49063D360184B4FF40022DA60C0
:10142000032002F0C3FD23681A68936843F48043E5
:1014300093600C4B1B681B68FF225A620022032139
:10144000084602F03BFD032002F06CFD10BD054B89
:101450001B681B68DB6813F4806FEAD0032002F07E
:1014600097FDE6E70003002000280040FE02002070
:10147000F8020020FC020020FA02002000080058B8
:101480008401002038B50446EFF3108572B60320BE
:1014900002F056FD294B1B681A68CA2151621B686D
:1014A00053225A6204EB4402254B03EBC2031B7B1D
:1014B000DBB2022B0AD0214B1B681B68FF225A6249
:1014C000032002F02FFD85F3108838BD002120464F
:1014D000FFF796FD1A4B93F89030DBB2062B08D03D
:1014E000174A92F89120D2B29A42E4D0FFF7B6FEA2
:1014F000E1E7144B9B6813F4806F06D00F4B1B6819
:101500001B68DB6813F0040FF8D10C4B19680A68EC
:10151000936823F4806393600B68DA6812F0040F19
:10152000FAD0DA68D2B262F49062DA60064B4FF415
:101530000022DA60032002F039FDBCE7000300203E
:10154000840100200028004000080058F8B5044637
:101550000D4600EB4002234B03EBC2031B7BDBB2C7
:10156000022B38D0EFF3108672B6032002F0E8FCAD
:101570001D4B1B681A68CA2151621B6853225A62AC
:10158000184F04EB440307EBC30302221A739D6058
:101590005D602046FFF7AEFD97F89030DBB297F81C
:1015A0009120D2B29A4219D10E4B04EB440203EBC4
:1015B000C2029268101A04EB440403EBC404A06056
:1015C000094B1B681B68FF225A62032002F0AAFC29
:1015D00086F31088F8BDFFF755FFC3E7FFF73EFE1F
:1015E000EEE700BF840100200003002008B590470B
:1015F00008BD0000F8B5EFF3108472B6364B1968D9
:101600000B68CA225A620B6853225A620A689368AE
:1016100023F480639360314A92F89030DDB203EB9B
:101620004303D8000244137BDBB2022B15D00B68B6
:10163000DA6812F0040FFAD0DA68D2B262F490627B
:10164000DA60274B4FF40022DA6084F31088224BD3
:101650001B681B68FF225A62F8BD204B05EB450151
:10166000CA0099189F580E6993F8983073B34B7B52
:10167000DBB2012B12D084F310882846FFF702FF5B
:10168000154B1B681A68CA2151621B6853225A62A3
:101690003A4629463046FFF7A9FFD8E701212846F8
:1016A000FFF7AEFC84F3108805EB4503DA000B4B23
:1016B000134459682846FFF749FF074B1B681A680F
:1016C000CA2151621B6853225A62E1E7FFF7C6FD47
:1016D00084F31088BBE700BF0003002084010020D2
:1016E0000008005810B518B1022810D0002010BD15
:1016F0000B4803600B480C4B036002F04BFD0228C3
:10170000F5D00328F3D00128F1D00020EFE70748F7
:1017100003600748074B036002F03CFDEFE700BFA2
:1017200048170020F0150020003801403C17002029
:10173000001500200080004008B50368084A934265
:1017400008D002F53842934203D1064B1B6803B11F
:10175000984708BD044B1B68002BFAD09847F8E760
:1017600000800040481700203C170020FEE7FEE7FD
:10177000FEE7FEE7FEE770477047704708B502F0E6
:1017800061FC08BD08B5FFF735FF08BD08B5024884
:1017900002F00FFB08BD00BFB016002008B50E4BCD
:1017A000DB6913F0200F06D00B4B1B6813F0200FE2
:1017B00001D0FEF76BFF084B9B6813F0010F06D0BA
:1017C000054BDB6913F0040F01D0FEF795FF0348CA
:1017D00002F0B4FD08BD00BF00380140F015002044
:1017E00008B5024802F0AAFD08BD00BF00150020A0
:1017F00008B5024803F064FA08BD00BF8C1600204B
:1018000008B500F07DFA08BD08B500F019FA08BD6A
:1018100008B500F0FFFE08BD08B5024802F0C9FA9D
:1018200008BD00BF9015002000B583B04FF0B04355
:101830001A6D42F400221A651B6D03F40023019314
:10184000019B002211462E2002F038FB2E2002F0D0
:1018500069FB03B05DF804FB0268124B9A4200D0AA
:10186000704700B583B04FF0B0431A6D42F4801258
:101870001A651B6D03F480130193019B002211462E
:101880002C2002F01BFB2C2002F04CFB0022114606
:101890002D2002F013FB2D2002F044FB03B05DF875
:1018A00004FB00BF000C005830B59FB00446002177
:1018B00019911A911B911C911D91502205A805F0B8
:1018C000FFFE2368514A934204D0514A934250D0BC
:1018D0001FB030BD0223059300230C9305A801F02F
:1018E0005CFD00283FD14FF0B043DA6D42F00102B9
:1018F000DA65DA6D02F001020292029ADA6C42F0C5
:101900000102DA64DB6C03F001030193019B0C23F9
:10191000199302231A9300251B9503231C93082374
:101920001D9319A94FF0904001F0EEFF39483A4B52
:1019300003601123436010238360C560802303612B
:1019400045618561C561056202F008F970B9314BE6
:10195000A3679C6200221146252002F0AFFA2520E1
:1019600002F0E0FAB4E7FEF7DBFEBCE7FEF7D8FED4
:10197000EDE70123059300230B9305A801F00DFD6E
:1019800000283DD14FF0B0431A6E42F480421A66EF
:101990001A6E02F480420492049ADA6C42F0020257
:1019A000DA64DB6C03F002030393039BC0231993F7
:1019B00002231A9300251B951C9507231D9319A933
:1019C000164801F0A1FF1648164B03600F23436031
:1019D00010238360C5608023036145618561C56113
:1019E000056202F0BBF870B90D4BA3679C62002240
:1019F0001146242002F062FA242002F093FA67E7ED
:101A0000FEF78EFEBEE7FEF78BFEEDE7008000409E
:101A100000380140B0160020440002400004004895
:101A2000901500204404024010B596B004465022A0
:101A3000002102A805F044FE22680F4B9A4201D013
:101A400016B010BD4FF4007302934FF08053109303
:101A500002A801F0A2FC58B94FF0B0431A6D42F44D
:101A600080221A651B6D03F480230193019BE7E735
:101A7000FEF756FEF0E700BF0010005810B596B014
:101A800004465022002102A805F01AFE22681A4BD3
:101A90009A4201D016B010BD4FF4006302934FF488
:101AA0008073129302A801F078FC08BB4FF0B0439A
:101AB000D3F8902042F40042C3F890209A6D42F48B
:101AC00080629A659B6D03F480630193019B002201
:101AD0001146032002F0F2F9032002F023FA00225B
:101AE0001146292002F0EAF9292002F01BFAD1E779
:101AF000FEF716FEDAE700BF0028004010B5064CDE
:101B0000636843F400236360044B1B6898474FF4F9
:101B10000023A36010BD00BF000C00580403002088
:101B200082B04FF0B043D3F8502142F48012C3F892
:101B30005021D3F8503103F480130193019B0A4BD9
:101B4000D3F8D42042F40072C3F8D4201A6A42F4C5
:101B500000721A6240BF20BF044AD36843F40043B6
:101B6000D36002B0704700BF00080058000400585E
:101B700000B583B04FF0B0431A6D42F480121A657D
:101B80001B6D03F480130193019B094B1A6842F00B
:101B900001021A601A6842F480321A602C2002F0A6
:101BA000C1F92D2002F0BEF903B05DF804FB00BFBF
:101BB000000C0058024A536823F001035360704739
:101BC000000C0058024B4FF480329A60704700BFFF
:101BD000000C005808B5044A536843F400135360DE
:101BE00003F0B0FC08BD00BF000C005808B503F0BE
:101BF00093FC024B01229A6008BD00BF000C005804
:101C0000024A536823F0020353607047000C0058E7
:101C1000044B4FF400329A605A6822F400325A6042
:101C2000704700BF000C005808B5044A536843F4DD
:101C30000033536003F0BAFC08BD00BF000C00582D
:101C400008B5144BDB6813F0020F04D1114B5B682D
:101C500013F4003F14D00F4BDB6813F0080F04D1CE
:101C60000C4B5B6813F4002F0DD00A4BDB6813F0AC
:101C7000200F04D1074B5B6813F4001F06D008BD8A
:101C8000FFF7D2FFFBE7FFF739FFF8E7FFF7A2FF07
:101C9000F5E700BF000C005808B503F095FC024BB7
:101CA00002229A6008BD00BF000C005808B5094B1D
:101CB000DB6813F0080F05D18047064B4FF4002274
:101CC0009A6008BD044B1860024A536823F400234D
:101CD0005360F6E7000C005804030020024A5368E2
:101CE00023F0080353607047000C005808B503F058
:101CF000C1FC024B08229A6008BD00BF000C0058CE
:101D000008B5144BDB6913F0020F0AD1114BDB69E4
:101D100013F0010F0DD10F4BDB6913F0080F10D139
:101D200008BD0C4B5B6813F0020FEFD1FFF7B4FF57
:101D3000F6E7084B5B6813F0010FECD1FFF756FF95
:101D4000EEE7044B5B6813F0080FE9D1FFF7CEFF15
:101D5000E6E700BF000C005808B50C4B93F8803044
:101D6000052B00D108BD03F0C4FF084B002283F807
:101D7000802030B9064805F0D3FF064805F0D0FFB3
:101D8000F0E7054805F0CCFFECE700BF200200209B
:101D900028A5000830A500084CA5000800B583B0B0
:101DA000054B0093054B01936946054804F0A4FBDD
:101DB00003B05DF804FB00BF28000320DF1D00080E
:101DC000C51D000810B504464068083004F080FDC9
:101DD00010B10123237010BD00232370FBE708B569
:101DE00010B1012804D008BD032004F0D3FDFAE7A8
:101DF000032004F0DDFDF6E708B50E4B1A68B2F1DA
:101E0000FF3F10D004331B680B480270C2F3072257
:101E100042708370C3F30722C270C3F3074202719A
:101E20001B0E437108BD002003F014FD0028F9D1FA
:101E30000248F7E78075FF1F080300205CA7000831
:101E400070B588B00024ADF8184004F0C1FAFFF76F
:101E5000D3FF02460621204604F03AFA2A4A10210E
:101E6000182004F035FA294A1021082004F030FA2D
:101E70001821012004F05CFA04F0FBF80DF11A03BC
:101E8000019307AB00930DF11E030A2221460120A6
:101E900004F039F81E4B00930A232246BDF81C10AB
:101EA000BDF81E0004F0B7F906AB009302232246EA
:101EB000BDF81A10BDF81E0004F0ADF9022211465B
:101EC000204604F0A5FA134D01262E70304603F08B
:101ED0008BFF6E7008232B7110226A71EC700E4913
:101EE000A960AC700494039102940192009323467C
:101EF00032463146204603F09DFFAB780BB908B05F
:101F000070BD04F06CF8FAE74CA700083CA7000885
:101F100070A500082002002007B2010000B589B0BA
:101F20000F4B83F8800000200690059004900390EA
:101F30000290019000900346A022802103F0FAFE57
:101F400008490A2004F01EF828B9074805F06EFF7A
:101F500009B05DF804FB0146044805F0E1FEF7E72F
:101F600020020020080000207CA50008A4A500088D
:101F700030B58FB001AC1B4D0FCD0FC40FCD0FC4CA
:101F80000FCD0FC42B682370FFF708FF012102203B
:101F900004F0D2FC144A0021022004F0FDFD01A847
:101FA00003F07CFBD8B9FFF74BFF04F07DFC0F4C2E
:101FB000002584F880504FF6FF73E3820C4A2946CF
:101FC000012004F0E9FD062004F0DBF900F07CFAC2
:101FD000657625760120FFF7A1FF0FB030BDFEF733
:101FE0009FFBE0E7DCA000081D6500082002002040
:101FF000591D000810B5044643783E2B1FD0FF2B17
:1020000044D0052B01D0012010BD82883D4BDB8AD6
:102010009A420BD00120FFF781FF3B480123037058
:10202000384BDB8A438000F037FAECE7354B00226F
:10203000DA8283F88020354805F0F8FEEAE7C378B5
:10204000012B05D0032BDED1314805F0EFFEDAE796
:10205000B0F805102F4805F063FE2A4B93F8803046
:10206000042B0ED0274B052283F88020B4F80530CE
:10207000244AD382244800220270438000F00CFAE4
:10208000C1E7204B062283F88020EFE7B0F8033049
:10209000A3F20143092BB6D801A252F823F000BFE6
:1020A000FB200008D92000080720000807200008AE
:1020B0000720000807200008C920000807200008A2
:1020C000E5200008D1200008134805F0AFFE9AE78C
:1020D000124805F0ABFE96E711490A4BD88A03F087
:1020E000E9FE90E7D0F807100E4805F019FE01212F
:1020F000044BD88A03F094FF85E7C1790A4805F0BC
:102100000FFE80E7200200204C170020D4A5000815
:10211000FCA5000828A600086CA6000894A60008E4
:1021200007B20100C4A60008DCA6000808B500211B
:10213000022004F017FC08BD08B5012004F044FC9F
:1021400008BD08B5012004F0FBFC08BD30B585B022
:102150004378FF2B03D00025284605B030BD044648
:10216000B0F8033040F6134293426AD040F614426E
:1021700093424ED040F60142934201D00025EBE756
:10218000B0F80710344805F0CBFD344DA988344829
:1021900005F0C6FD6988334805F0C2FD324805F0F8
:1021A000BFFDB4F80720AB8802339A4206D02B4B10
:1021B0005B8801339A421CD00025CDE7657B1DB1B9
:1021C000012D0CD00125C7E7284805F0A9FD032300
:1021D0008DF80030684600F0DBF90125BCE72448A3
:1021E00005F09EFD02238DF80030684600F0D0F91E
:1021F000B2E7204805F094FD01258DF80050B4F8B1
:102200000B308DF808300D340194684600F0C0F9A9
:10221000A2E7B0F80720114B5B8801339A4201D046
:10222000002599E7144805F07BFD00238DF8003068
:10223000684600F0ADF9B4F8050004F021F8012576
:102240008AE7B0F80720054B5B8801339A4201D03A
:10225000002581E701257FE764A70008A40200208C
:102260007CA7000898A70008B4A70008DCA700080E
:10227000F4A7000808A8000818A800082DE9F04FE6
:102280008BB0654804F01AFB8F238DF81830E523D6
:102290008DF81930B3238DF81A30D5238DF81B3003
:1022A0002E238DF81C307F238DF81D304A238DF8A6
:1022B0001E3098238DF81F302A238DF820304823B4
:1022C0008DF821307A238DF82230CC238DF82330FD
:1022D00001258DF8245000248DF825408DF82640E6
:1022E0008DF827404D4B009306232A4606A902206D
:1022F00003F0E1FE4FF0190B8DF818B0ED268DF8C4
:1023000019604FF0820A8DF81AA04FF0AE098DF8CF
:102310001B908DF81C604FF021038DF81D304FF09D
:102320004C028DF81E206FF062018DF81F104FF0E7
:1023300041008DF820004FF045078DF821704FF0D7
:10234000220C8DF822C06FF0710E8DF823E0022769
:102350008DF824708DF825408DF826408DF82740A3
:102360002E4B33F8020B0593082304934FF010080B
:10237000CDF80C800522029201940622009206AA52
:10238000394603F0E8FE8DF818B08DF819608DF825
:102390001AA08DF81B908DF81C604FF021038DF86A
:1023A0001D304FF04C028DF81E206FF062018DF849
:1023B0001F104FF041008DF820004FF045038DF8BD
:1023C00021304FF0220C8DF822C06FF0710E8DF885
:1023D00023E003238DF824308DF825408DF8264026
:1023E0008DF827400D4B33F8040B05930495CDF879
:1023F0000C8002950194CDF80080402306AA39464E
:1024000003F0A9FE064805F08BFC064805F088FCA1
:102410000BB0BDE8F08F00BF4D210008A4020020E2
:1024200028A8000840A8000830B583B004460D462F
:10243000114805F075FC2CB1012C10D092242046D7
:1024400003B030BD0D480095082300224188008864
:1024500003F0E1FE04460A4805F062FCEFE7074896
:102460000095402300228188008803F0D4FE0446B2
:10247000044805F055FCE2E760A80008A40200202B
:1024800078A800088CA8000808B502490120FFF7C9
:10249000CBFF08BD4C18002010B50446074805F0D6
:1024A0003FFC237813B1012B04D010BD044805F084
:1024B00037FCFAE7034805F033FCF6E7A4A8000868
:1024C000BCA80008D0A8000870470000F0B5AFB065
:1024D00005460468012643E02022002107A805F0F4
:1024E000EFF8636804930023059304A804F0C2FF87
:1024F00003694169C2680768039747680297806863
:10250000019001F26C71009101331C4907A805F09C
:10251000A5FC2189B4F90A30E26803920293184BB2
:10252000A3FB01239B094FF47A7202FB131292B2B0
:102530000192009307AB324612490FA805F08EFCBA
:102540000FA9114805F0ECFB0FA8FDF723FE02468A
:102550000FA90E4805F0A6F8FFF796FF0136103CCC
:10256000AB68A34203D26378012BF8D1B4E7002013
:1025700005F090F800202FB0F0BD00BFE4A80008DF
:10258000D34D621004A9000848A900084C18002087
:1025900010B5164B00221A605A600378032B06D838
:1025A000DFE803F002061C20114805F0B9FB10BD5E
:1025B000044641680F4805F0B3FB04220E496068E9
:1025C00005F074FC0028F2D10C48FFF77FFF0C489F
:1025D00005F0A6FB0B4805F0A3FBE8E70A4805F069
:1025E0009FFBE4E7094805F09BFBE0E74419002066
:1025F00018A9000838A9000850A900088016002072
:1026000058A9000868A900087CA900089CA900082E
:102610007047000008B5054BD8681A6822EA000226
:102620001A605860FFF7F4FF08BD00BF001500589E
:10263000F0B58DB005460F462A4C94E80F000CAE5D
:1026400006E90F0005AB04F1100207CA83E8070092
:1026500001AE1C3494E80F0086E80F00B7F5007F48
:102660001BD00023022B22D80CAA02EB830252F8C3
:102670001C2CAA4215D20133F4E70133032B0ED8E8
:102680000CAA02EB830252F8102CAA42F5D30CAA32
:1026900002EB830353F82C5C0AE00023EEE70025ED
:1026A00006E00CAA02EB830353F82C5C00E0002543
:1026B0000D4A136823F007032B43136001F0CEFC8F
:1026C0000446094B1B6803F00703AB4206D001F038
:1026D000C5FC001B0228F4D9032000E000200DB047
:1026E000F0BD00BF10A100080040005810B5B02890
:1026F00016D90E4BDC6A4FF0B043D3F8083103F023
:102700000F030B4A52F82300B4FBF0F401F0BCFBBA
:1027100001460848A0FB0430800CFFF789FF10BD7C
:10272000C0F30310014B53F82040E4E744AA00082B
:10273000E4A9000883DE1B434FF0B0439B6813F00D
:102740000C030DD14FF0B0431B6803F0F003B02B26
:1027500004D81B09254A52F823007047B023F8E734
:10276000042B3ED0082B10D04FF0B043DB6803F0B1
:102770000303022B1FD0032B0FD14FF0B0431B6874
:1027800013F4801F2BD11A4B16E04FF0B0431B6897
:1027900013F4801F27D0174870474FF0B0431B68D1
:1027A00003F0F003B02B04D81B09104A52F8233071
:1027B00002E0B023F8E70F4B4FF0B042D068C0F30F
:1027C000062000FB03F0D368C3F302130133B0FB10
:1027D000F3F0D3685B0F0133B0FBF3F07047054BA8
:1027E000EAE7044870470248704700BF44AA00085F
:1027F0000048E8010024F40008B5FFF79DFF4FF002
:10280000B0439B68C3F30313024A52F82330B0FB72
:10281000F3F008BDE4A90008002800F07E8338B575
:102820000446036813F0200F7FD04FF0B042936846
:10283000D26802F0030213F00C031DD00C2B19D048
:10284000E369002B00F09E804FF0B042136843F024
:102850000103136001F002FC05464FF0B0431B6812
:1028600013F0020F52D101F0F9FB401B0228F4D9FA
:1028700003205DE3012AE3D14FF0B0431B6813F05E
:10288000020F03D0E369002B00F04983606A4FF028
:10289000B0431B6803F0F003B02B20D8984220D936
:1028A000FFF724FF002840F03C83636A4FF0B042FA
:1028B000116821F0F0010B431360216A536823F47F
:1028C0007F4343EA01235360FFF796FFC44B186030
:1028D000C44B186801F078FB38B3012028E3B0231B
:1028E000DCE74FF0B042136823F0F00318431060A8
:1028F000216A536823F47F4343EA01235360606AEB
:10290000FFF7F4FE0028DFD0012011E3636A4FF0E7
:10291000B042116821F0F0010B431360216A536843
:1029200023F47F4343EA01235360236813F0010F2C
:102930004AD04FF0B042936803F00C03D26802F023
:102940000302082B36D00C2B32D06368B3F5803FDE
:1029500063D04FF0B042136823F480331360636890
:10296000002B61D001F07AFB05464FF0B0431B68A5
:1029700013F4003F28D101F071FB401B6428F4D907
:102980000320D5E24FF0B042136823F00103136037
:1029900001F064FB05464FF0B0431B6813F0020FD3
:1029A000C3D001F05BFB401B0228F4D90320BFE237
:1029B000032ACAD14FF0B0431B6813F4003F03D081
:1029C0006368002B00F0AF82236813F0020F50D031
:1029D0004FF0B042936803F00C03D26802F0030298
:1029E000042B33D00C2B2FD0E368002B77D04FF083
:1029F000B042136843F48073136001F02FFB054667
:102A00004FF0B0431B6813F4806F5ED101F026FBDA
:102A1000401B0228F4D903208AE24FF0B042136829
:102A200043F4803313609AE701F018FB05464FF03A
:102A3000B0431B6813F4003FC6D001F00FFB401BEE
:102A40006428F4D9032073E2022ACDD14FF0B043B9
:102A50001B6813F4806F03D0E368002B00F06582DD
:102A600021694FF0B042536823F0FE4343EA01630B
:102A70005360236813F0180F00F0E8806269002AA1
:102A800000F0B28013F0100F7AD04FF0B043D3F8BB
:102A9000943013F0020F38D14FF0B042D2F8943096
:102AA00043F00103C2F8943001F0D8FA05464FF024
:102AB000B043D3F8943013F0020F26D101F0CEFAD0
:102AC000401B0228F3D9032032E221694FF0B042C3
:102AD000536823F0FE4343EA01635360C9E74FF0B4
:102AE000B042136823F48073136001F0B7FA05460F
:102AF0004FF0B0431B6813F4806FBAD001F0AEFA08
:102B0000401B0228F4D9032012E24FF0B042D2F861
:102B1000943043F00403C2F8943001F09FFA054664
:102B20004FF0B043D3F8943013F0080F06D101F002
:102B300095FA401B0328F3D90320F9E1A1694FF06E
:102B4000B042D2F8943023F4706343EA0123C2F810
:102B50009430D2F8943023F00103C2F8943001F09D
:102B60007DFA05464FF0B043D3F8943013F0020FCE
:102B70006CD001F073FA401B0228F3D90320D7E18F
:102B80004FF0B042D2F8943043F00103C2F89430D1
:102B900001F064FA05464FF0B043D3F8943013F0D7
:102BA000020F06D101F05AFA401B0228F3D9032084
:102BB000BEE14FF0B042D2F8943023F00403C2F8E3
:102BC00094304FF0B043D3F8943013F0080F3DD059
:102BD00001F044FA401B0328F3D90320A8E100BF09
:102BE00018000020140000204FF0B042D2F89430BA
:102BF00023F00403C2F8943001F030FA05464FF098
:102C0000B043D3F8943013F0080F18D14FF0B0420E
:102C1000D2F8943023F00103C2F8943001F01EFA88
:102C200005464FF0B043D3F8943013F0020F0DD0A7
:102C300001F014FA401B0228F3D9032078E101F0D7
:102C40000DFA401B0328DAD9032071E1236813F041
:102C5000040F68D0B94B1B6813F4807F27D0A3689A
:102C6000012B35D0052B3CD04FF0B043D3F890204A
:102C700022F00102C3F89020D3F8902022F0040241
:102C8000C3F89020A368DBB301F0E8F905464FF0E4
:102C9000B043D3F8903013F0020F44D101F0DEF9C5
:102CA000401B41F288339842F1D9032040E101F002
:102CB000E3F801F0D3F90546A04B1B6813F4807FBD
:102CC000CDD101F0CBF9401B0228F5D903202FE12B
:102CD0004FF0B042D2F8903043F00103C2F8903088
:102CE000D0E74FF0B043D3F8902042F00402C3F88D
:102CF0009020D3F8902042F00102C3F89020C1E761
:102D000001F0ACF905464FF0B043D3F8903013F022
:102D1000020F08D001F0A2F9401B41F2883398421B
:102D2000F1D9032004E1236813F0400F33D0A36AE4
:102D3000C3B14FF0B042D2F8983043F00103C2F86B
:102D4000983001F08BF905464FF0B043D3F8983036
:102D500013F0020F1FD101F081F9401B0228F3D9B3
:102D60000320E5E04FF0B042D2F8983023F00103A1
:102D7000C2F8983001F072F905464FF0B043D3F82D
:102D8000983013F0020F06D001F068F9401B0228BA
:102D9000F3D90320CCE0E36A002B00F0C8804FF0A9
:102DA000B042916801F00C01D268022B23D00C29AB
:102DB00000F0C1804FF0B0431A6822F080721A60B0
:102DC000DA6822F00302DA60DA6822F0885222F42C
:102DD0008032DA6001F042F904464FF0B0431B68DC
:102DE00013F0007F00F0978001F038F9001B0228F3
:102DF000F3D903209CE002F00303206B83420AD046
:102E00000C2900F096804FF0B0431B6813F0806FE0
:102E100022D001208CE002F07003606B8342EFD17E
:102E2000C2F30623A06B8342EAD102F47813E06B6D
:102E30008342E5D102F06063206C8342E0D102F06E
:102E40006042636C9A42DBD14FF0B0431B6813F0D1
:102E5000007F44D000206BE04FF0B042136823F0B5
:102E60008073136001F0FAF805464FF0B0431B6819
:102E700013F0007F06D001F0F1F8401B0228F4D9CE
:102E8000032055E04FF0B042D3682D491940236B21
:102E9000606B0343A06B43EA0023E06B0343206CA9
:102EA0000343606C03430B43D360136843F08073A8
:102EB0001360D36843F08053D36001F0CFF8044629
:102EC0004FF0B0431B6813F0007F06D101F0C6F845
:102ED000001B0228F4D903202AE0002028E04FF04C
:102EE000B0431A6842F080721A60DA6842F0805289
:102EF000DA6001F0B3F804464FF0B0431B6813F0FA
:102F0000007F06D101F0AAF8031B022BF4D903209D
:102F10000EE000200CE000200AE0012070470120B4
:102F200006E0012004E0012002E0012000E0002092
:102F300038BD0120FCE70120FAE700BF000400587B
:102F40008C80C111002800F0278170B50C46054621
:102F5000934B1B6803F007038B422DD32B6813F0B0
:102F6000020F3FD12B6813F0200F53D12B6813F0C1
:102F7000400F6AD12B6813F0040F40F083802B6858
:102F800013F0080F40F097802B6813F0010F00F04A
:102F9000DE806B68022B00F0A880032B00F0AD8070
:102FA000002B40F0B2804FF0B042126812F0020FD6
:102FB00040F0B1800120EEE0794A136823F0070366
:102FC0000B43136001F04AF80646754B1B6803F08B
:102FD0000703A342C2D001F041F8801B0228F4D9B4
:102FE0000320D8E0AB684FF0B0418A6822F0F002CD
:102FF00013438B6001F032F806464FF0B0439B68F4
:1030000013F4803FAED101F029F8801B0228F4D9D7
:103010000320C0E06B694FF0B041D1F8082122F0E5
:10302000F0021343C1F8083101F018F806464FF0DA
:10303000B043D3F8083113F4003F97D101F00EF8F4
:10304000801B0228F3D90320A5E0A9694FF0B04204
:10305000D2F8083123F00F0343EA1113C2F8083104
:1030600000F0FCFF06464FF0B043D3F8083113F4EC
:10307000803F7FF47FAF00F0F1FF801B0228F2D980
:10308000032088E0EB684FF0B0418A6822F4E062E8
:1030900013438B6000F0E2FF06464FF0B0439B689D
:1030A00013F4003F7FF46BAF00F0D8FF801B0228C1
:1030B000F3D903206FE029694FF0B042936823F4FD
:1030C000605343EAC103936000F0C8FF06464FF027
:1030D000B0439B6813F4802F7FF456AF00F0BEFF1F
:1030E000801B0228F3D9032055E04FF0B04212684C
:1030F00012F4003F0FD101204DE04FF0B0421268B2
:1031000012F0007F07D1012045E04FF0B042126875
:1031100012F4806F42D04FF0B0418A6822F003026F
:1031200013438B6000F09AFF06464FF0B0439B6854
:1031300003F00C036A68B3EB820F08D000F08EFF37
:10314000801B41F288339842EFD9032023E0144BCF
:103150001B6803F00703A34215D9114A136823F033
:1031600007032343136000F079FF05460C4B1B68EF
:1031700003F00703A34206D000F070FF401B0228B3
:10318000F4D9032007E0FFF737FB064B186000F087
:103190006BFF00F019FF70BD012070470120FAE7B6
:1031A000004000581800002008B5FFF725FB4FF03D
:1031B000B0439B68C3F30223034A52F8233003F061
:1031C0001F03D84008BD00BF24AA000808B5FFF7B8
:1031D00013FB4FF0B0439B68C3F3C223034A52F87A
:1031E000233003F01F03D84008BD00BF24AA000805
:1031F00070B505464FF0B042136823F0806313604A
:1032000000F02CFF04464FF0B0431B6813F0006F32
:1032100006D000F023FF001B0228F4D9032400E0AD
:1032200000240CB1204670BD4FF0B0431A6922F45F
:10323000FE42296842EA01221A611A6922F47812D0
:1032400069680A431A611A6842F080621A6000F0E5
:1032500005FF06464FF0B0431B6813F0006F05D121
:1032600000F0FCFE801B0228F4D90324002CD9D1E5
:103270004FF0B042136929690B431361D2E770B56F
:1032800005464FF0B042136823F08063136000F0EE
:10329000E5FE04464FF0B0431B6813F0006F06D004
:1032A00000F0DCFE001B0228F4D9032400E0002417
:1032B0000CB1204670BD4FF0B0431A6922F4FE42B3
:1032C000296842EA01221A611A6922F06062A9683B
:1032D0000A431A611A6842F080621A6000F0BEFE6A
:1032E00006464FF0B0431B6813F0006F05D100F0A5
:1032F000B5FE801B0228F4D90324002CD9D14FF04D
:10330000B042136929690B431361D2E770B50546D2
:103310004FF0B042136823F08063136000F09EFE0C
:1033200004464FF0B0431B6813F0006F06D000F066
:1033300095FE001B0228F4D9032400E000240CB100
:10334000204670BD4FF0B0431A6922F4FE4229684E
:1033500042EA01221A611A6922F06042E9680A43CE
:103360001A611A6842F080621A6000F077FE064621
:103370004FF0B0431B6813F0006F05D100F06EFEF4
:10338000801B0228F4D90324002CD9D14FF0B0427D
:10339000136929690B431361D2E770B504460368CA
:1033A00013F0400F2FD0036BB3F5800F21D00AD854
:1033B00033B90430FFF71CFF064658B1054624E038
:1033C00001252E4621E0B3F5000F1AD0B3F5400FCA
:1033D0000CD10026236B4FF0B041D1F8882022F4A5
:1033E00040021343C1F8883000250EE001252E4627
:1033F0000BE04FF0B042D36843F48033D360002633
:10340000E8E70026E6E700252E46236813F4006F60
:103410000AD04FF0B043D3F8905005F44075236CB8
:10342000AB4240F0D5803546236813F0010F09D038
:10343000A3694FF0B041D1F8882022F00302134372
:10344000C1F88830236813F0020F09D0E3694FF008
:10345000B041D1F8882022F440621343C1F888308B
:10346000236813F0100F0CD0A06A4FF0B041D1F8D0
:103470008830020C120423EA020343EA0043C1F835
:103480008830236813F0200F0CD0E06A4FF0B04171
:10349000D1F88830020C120423EA020343EA004305
:1034A000C1F88830236813F0040F0FD0236A4FF05F
:1034B000B040D0F88820190901F47F2122EA0102E6
:1034C0001B0103F47F231343C0F88830236813F0F3
:1034D000080F0FD0636A4FF0B040D0F88820190968
:1034E00001F47F2122EA01021B0103F47F2313432D
:1034F000C0F88830236813F4807F13D0636B4FF0DB
:10350000B041D1F8882022F040621343C1F88830DE
:10351000636BB3F1006F00F09C80636BB3F1806F5D
:1035200000F09C80236813F4007F17D0A36BB3F1E5
:10353000804F05D0B3F1004F02D0002B40F09680B1
:103540004FF0B041D1F8882022F040421343C1F837
:103550008830A36BB3F1C05F00F09A80236813F446
:10356000806F13D0E36B4FF0B041D1F8882022F088
:1035700040521343C1F88830E36BB3F1005F00F0B1
:103580008E80E36BB3F1805F00F08E80236813F4CC
:10359000805F09D0636C4FF0B041D1F8942022F4E1
:1035A00040421343C1F89430236813F4005F0DD0F8
:1035B000E26C4FF0B043596A21F030010A435A627D
:1035C000A26C596A21F003010A435A62284670BD71
:1035D00000F052FC5DB9236C4FF0B041D1F890205F
:1035E00022F440721343C1F8903035461CE74FF087
:1035F000B043D3F89020D3F8901041F48031C3F851
:103600009010D3F8901021F48031C3F8901022F478
:103610004072216C0A43C3F89020D3F8903013F025
:10362000010F12D000F01AFD05464FF0B043D3F859
:10363000903013F0020F0AD100F010FD401B41F250
:1036400088339842F1D90325EEE63546ECE6354657
:10365000EAE6CB6843F08073CB605EE7201DFFF79E
:103660000EFE00283FF45EAF05465BE723F0805373
:103670004FF0B042D2F8881021F04041C2F88810D3
:10368000D2F8881021F040610B43C2F8883060E71F
:103690004FF0B042D36843F08073D3605EE7CB68ED
:1036A00043F48033CB606CE7201DFFF72FFE00282A
:1036B0003FF46CAF054669E710B4064C616941F010
:1036C000010161610260BFF36F8F43605DF8044BDD
:1036D000704700BF00400058094B5B69002B01DBBD
:1036E00000207047064B074A9A6002F188329A60C0
:1036F0005B69002B01DB002070470120704700BF91
:103700000040005823016745054B5A6942F00042CA
:103710005A615B69002B01DB012070470020704774
:103720000040005838B5054600F098FC04461B4B95
:103730001B6913F4803F06D000F090FC001BA842E8
:10374000F5D3032038BD154B1B6913F0010F02D0D0
:10375000124A0121116113F4004F05D00F4A4FF4B2
:103760000041116123F400434CF2FA32134001D0BE
:103770000A4A13615BB9094B1B6913F4802F0AD005
:1037800000F06CFC001BA842F5D30320DAE7044AE2
:1037900053600120D6E70020D4E700BF0040005866
:1037A00010030020F8B51F46154B1B78012B25D0C0
:1037B00004460D461646124B01221A7000225A602A
:1037C0004FF47A70FFF7AEFF70B9012C10D031467C
:1037D000284606F057FC4FF47A70FFF7A3FF094A1A
:1037E000536923EA04045461054B00221A70F8BDA2
:1037F00032463B462846FFF75FFFECE70220F6E73C
:103800001003002000400058164B1B6813F4007F83
:1038100010D0144B1A6822F400721A601A6842F42D
:1038200000621A601A6822F400621A601A6842F490
:1038300000721A600B4B1B6813F4806F10D0094B99
:103840001A6822F480621A601A6842F480521A6080
:103850001A6822F480521A601A6842F480621A6070
:10386000704700BF00400058034A536923F4FF63C8
:1038700023F002035361704700400058054A536922
:1038800023F4FF6343EAC00040F4803040F00200BC
:103890005061704700400058F8B51A4B1B78012B57
:1038A0002ED004460E46174B01221A7000225A6091
:1038B0004FF47A70FFF736FF074620B92368022BD2
:1038C00006D0FFF7A1FF0F4B00221A703846F8BD53
:1038D0004FF0FF33336065686368A2681344AB42FE
:1038E0000BD92846FFF7CAFF4FF47A70FFF71AFF8B
:1038F000074608B90135EFE73560FFF7B5FFE0E7A8
:103900000227E3E710030020F0B400235FE086689D
:103910005F000325BD4026EA0506CD68BD4035435E
:103920008560466826EA04064D68C5F300149C408D
:103930003443446059E0DD08083550F8257003F041
:103940000704A6000F24B44027EA04070C69B4401A
:103950003C4340F825405CE0042400E00024B440EF
:103960003C430235474E46F82540474C2568D44332
:1039700025EA02064F6817F4801F01D042EA0506C7
:10398000414D2E606D6804EA05064F6817F4001F6C
:1039900001D042EA05063C4D6E60D5F8805004EA3D
:1039A00005064F6817F4803F01D042EA0506364D00
:1039B000C5F88060D5F884502C404E6816F4003F5E
:1039C00001D042EA0504304AC2F8844001330A6853
:1039D00032FA03F454D001249C402240F6D04D68C2
:1039E00005F00305013D012D91D94C6804F0030455
:1039F000032C09D0C5685E000324B44025EA040501
:103A00008C68B4402C43C4604C6804F00304022C5E
:103A100091D005685E000324B44025EA04054C6893
:103A200004F00304B4402C4304604C6814F4403F99
:103A3000CCD09D08AE1C134C54F8267003F0030440
:103A4000A6000F24B44027EA0407B0F1904F85D0B8
:103A50000E4CA0420ED004F58064A0420CD004F5B8
:103A60008064A0420AD004F58064A0423FF474AFA1
:103A7000072474E7012472E7022470E703246EE749
:103A8000F0BC7047000001400008005800040048E6
:103A90000AB1816170478162704770B4C46C056D72
:103AA0006560446D14B1846DC56D6560446C04F04F
:103AB0001C05066C0124AC40746004686360836874
:103AC000102B05D0036899600368DA6070BC7047FA
:103AD00003689A600368D960F8E700000368104A39
:103AE000934215D8426C22F0030202F1804202F5A3
:103AF00002328264DBB2083B0A4AA2FB03230A4A71
:103B0000C264C3F30413012202FA03F3036570478E
:103B1000426C22F00301054A0A448264EAE700BFCE
:103B200007040240CDCCCCCC800802401C080240E7
:103B3000436803F03F03074A1A4492004265064A6D
:103B40008265013B03F00303012202FA03F3C3651C
:103B5000704700BF3F8200104009024000285DD03E
:103B600010B5044601682E4B99423FD82D4B0B44AB
:103B70002D4AA2FB03231B099B0043642B4B0364C8
:103B8000022384F825300A6822F4FF4222F07002F2
:103B9000A368E06803432069034360690343A069A5
:103BA0000343E0690343206A034313430B60204649
:103BB000FFF794FFA368B3F5804F22D06368A26C2F
:103BC00003F03F031360E36C226D5A606368013BAE
:103BD000032B19D900236365A365E3650020E06327
:103BE000012384F8253084F8240010BD104B0B44C9
:103BF0000D4AA2FB03231B099B0043640D4B036486
:103C0000BEE700236360D9E72046FFF791FF636DAD
:103C100000221A60A36DE26D5A60DFE70120704751
:103C200007040240F8FFFDBFCDCCCCCC0000024021
:103C3000F8FBFDBF0004024038B5044690F82400AC
:103C4000012841D0012084F8240094F82500C0B256
:103C5000012804D0002384F82430022038BD02203B
:103C600084F825000020E0632568286820F0010022
:103C700028602046FFF711FF236BD3B12268136839
:103C800043F00E031360A36C1A6812F4803F03D054
:103C90001A6842F480721A60636D1BB11A6842F4AC
:103CA00080721A602268136843F0010313600020D9
:103CB000D4E72268136823F00403136022681368B2
:103CC00043F00A031360DEE70220C7E7034600283B
:103CD00034D090F82520D2B2022A06D00422C26342
:103CE000002280F824200120704701680A6822F031
:103CF0000E020A60816C0A6822F480720A60016810
:103D00000A6822F001020A60426C02F01C01006C99
:103D100001228A404260DA6C196D51605A6D32B1ED
:103D2000116821F4807111609A6DD96D5160012282
:103D300083F82520002083F8240070470120704775
:103D400008B590F82530DBB2022B03D00423C363FF
:103D5000012008BD0268136823F00E031360026897
:103D6000136823F001031360826C136823F48073DB
:103D70001360436C03F01C02016C012393404B6001
:103D8000C36C026D5A60436D33B11A6822F48072BD
:103D90001A60836DC26D5A60012380F825300023BC
:103DA00080F82430836B13B198470020D1E70020BE
:103DB000CFE738B5036C196804682568436C03F0D5
:103DC0001C0304229A400A4215D015F0040F12D0A9
:103DD000236813F0200F03D1236823F0040323602A
:103DE000436C03F01C02016C042393404B60036B93
:103DF00003B1984738BD02229A400A421CD015F000
:103E0000020F19D0236813F0200F06D1236823F086
:103E10000A032360012380F82530436C03F01C0261
:103E2000016C022393404B60002380F82430C36A66
:103E3000002BDFD09847DDE7082202FA03F30B429C
:103E4000D8D015F0080FD5D0236823F00E032360D7
:103E5000436C03F01C03016C012202FA03F34B6074
:103E6000C26380F82520002380F82430436B002BA8
:103E7000C0D09847BEE70000024A136843F480733D
:103E80001360704700040058024B186800F4C060CB
:103E9000704700BF00040058074AD36823F4E0636A
:103EA0001B041B0C000200F4E060034343F0BF63FB
:103EB00043F40033D360704700ED00E030B4174B9B
:103EC000DB68C3F30223C3F10704042C28BF0424D6
:103ED0001D1D062D18D9033B4FF0FF3505FA04F4DC
:103EE00021EA0401994005FA03F322EA0303194386
:103EF00000280BDB0901C9B200F1604000F5614008
:103F000080F8001330BC70470023E5E700F00F0095
:103F10000901C9B2024B1954F4E700BF00ED00E0FB
:103F200014ED00E0002807DB00F01F024009012328
:103F30009340024A42F82030704700BF00E100E0A1
:103F400000280CDB00F01F024009012393402030C1
:103F5000034A42F82030BFF34F8FBFF36F8F704793
:103F600000E100E00138B0F1807F0AD2064B5860D2
:103F7000064AF02182F823100020986007221A6078
:103F800070470120704700BF10E000E000ED00E046
:103F9000002808DB00F01F02400901239340403055
:103FA000014A42F82030704700E100E0002808DBB9
:103FB00000F01F024009012393406030014A42F89B
:103FC0002030704700E100E0114B1B780BB9012055
:103FD000704710B50446FEF70FFC0D4B1A784FF4EE
:103FE0007A73B3FBF2F3B0FBF3F0FFF7BBFF68B9F2
:103FF0000F2C01D901200AE0002221464FF0FF30AA
:10400000FFF75CFF034B1C60002000E0012010BDA7
:10401000120000201400002010B5094A136843F470
:10402000807313600320FFF737FF0020FFF7CCFFFA
:1040300010B10124204610BD0446FDF7F5FBF9E759
:1040400000400058034B1B78034A11680B4413606F
:10405000704700BF120000204C190020014B186867
:10406000704700BF4C190020014B1868704700BF13
:1040700014000020024A536843F001035360704764
:10408000002004E0024A536843F002035360704783
:10409000002004E0704770470023052B0AD800EB8E
:1040A0008302054951609A1D00EB82020349516069
:1040B0000133F2E7704700BF9540000897400008C1
:1040C000002303604FF03F1343603F23836070473A
:1040D000C0B138B5044690F8383083B10A4D28464F
:1040E000FFF7EEFF2B6843F001132B602046FFF72C
:1040F000D3FF00206063012384F8383038BDFDF71A
:10410000ABFBEBE701207047000C0058026852E857
:10411000003F23F0C00342E800310029F6D10268D5
:1041200002F1080353E8003F23F40003083242E899
:1041300000310029F3D12023C0F884307047026891
:1041400052E8003F23F4907342E800310029F6D191
:10415000026802F1080353E8003F23F0805323F084
:104160000103083242E800310029F1D1C36E012B6E
:1041700006D02023C0F888300023C3660367704749
:10418000026852E8003F23F0100342E800310029A2
:10419000F6D1EEE7D0F88430202B4CD110B5044690
:1041A00000294AD0002A4AD090F88030012B48D00C
:1041B000012380F880300165A0F85420A0F8562033
:1041C0000023C0F88C302123C0F88430836FF3B112
:1041D0001D49D962836F1D491963836F1C49596357
:1041E000836F002199630168134601F12802016D74
:1041F000806FFFF721FD50B11023C4F88C300023ED
:1042000084F880302023C4F88430012012E0236831
:1042100040221A62002384F88030226802F10803E9
:1042200053E8003F43F08003083242E800310029A0
:10423000F3D1002010BD022070470120FAE70120D1
:10424000F8E70220F6E700BF55420008C342000825
:10425000CF42000808B50346806A1B681B6813F04C
:10426000200F18D10023A0F85630026802F108038D
:1042700053E8003F23F08003083242E80031002970
:10428000F3D1026852E8003F43F0400342E80031B6
:104290000029F6D108BDFDF74FFAFBE708B5026823
:1042A00052E8003F23F0400342E800310029F6D1F4
:1042B0002023C0F8843000234367FDF73DFA08BD92
:1042C000704708B5806AFFF7FBFF08BD704738B537
:1042D000846AD4F88420D4F8885023689B6813F04B
:1042E000800F01D0212A10D023689B6813F0400F63
:1042F00001D0222D10D0D4F88C3043F01003C4F834
:104300008C302046FFF7E2FF38BD0023A4F856307A
:104310002046FFF7FBFEE7E70023A4F85E302046C7
:10432000FFF70DFFE7E708B5806A0023A0F85E30CD
:10433000A0F85630FFF7CAFF08BD704770B50446B5
:104340000168CB6908688D6840F60F021A4008D1F1
:1043500013F0200F05D010F0200F34D115F0805F3E
:1043600031D12AB1BD4A2A4033D1BD4E304230D17D
:10437000E26E012A00F0C38013F4801F03D015F40D
:10438000800F40F0558113F0800F07D010F0800FA0
:1043900040F0558115F4000F40F0518113F0400FAB
:1043A00003D010F0400F40F0518113F4000F03D000
:1043B00010F0804F40F04E8113F0807F02D0002833
:1043C000C0F2528170BD236F002BFBD0204698476E
:1043D000F8E713F0010F09D010F4807F06D0012612
:1043E0000E62D4F88C103143C4F88C1013F0020F15
:1043F0000BD015F0010F08D0216802260E62D4F808
:104400008C1041F00401C4F88C1013F0040F0BD091
:1044100015F0010F08D0216804260E62D4F88C1024
:1044200041F00201C4F88C1013F0080F0BD010F00B
:10443000200F00D13AB1226808211162D4F88C20F3
:104440000A43C4F88C2013F4006F0CD010F0806F76
:1044500009D022684FF400611162D4F88C2042F038
:104460002002C4F88C20D4F88C20002AAAD013F0A3
:10447000200F09D010F0200F02D115F0805F03D07B
:10448000236F0BB120469847D4F88C2023689B6893
:1044900013F0400F02D112F0280F29D02046FFF769
:1044A0004EFE23689B6813F0400F1DD0226802F176
:1044B000080353E8003F23F04003083242E800318C
:1044C0000029F3D1E36F5BB1664A9A63E06FFFF7AF
:1044D00037FC00283FF476AFE06F836B984771E7B5
:1044E0002046FFF7F3FE6DE72046FFF7EFFE69E792
:1044F0002046FFF7EBFE0023C4F88C3062E713F090
:10450000100F3FF439AF10F0100F3FF435AF102308
:104510000B6223689B6813F0400F4FD0E26F136863
:104520005B689BB2002B3FF44DAFB4F85C1099422E
:104530007FF648AFA4F85E3013681B6813F0200FB5
:1045400031D1226852E8003F23F4807342E8003101
:104550000029F6D1226802F1080353E8003F23F056
:104560000103083242E800310029F3D1226802F148
:10457000080353E8003F23F04003083242E80031CB
:104580000029F3D12023C4F888300023E366226891
:1045900052E8003F23F0100342E800310029F6D131
:1045A000E06FFFF793FBB4F85C10B4F85E309BB299
:1045B000C91A89B22046FFF7C0FE03E7B4F85C10C1
:1045C000B4F85E309BB2C91A89B2B4F85E309BB2BF
:1045D000002B3FF4F7AE00293FF4F4AE226852E816
:1045E000003F23F4907342E800300028F6D122689F
:1045F00002F1080353E8003F23F0805323F0010346
:10460000083242E800300028F1D12023C4F8883075
:104610000023E3662367226852E8003F23F010037B
:1046200042E800300028F6D12046FFF786FEC9E6B2
:104630004FF480130B62204600F0B6FAC2E6636FB7
:10464000002B3FF4BFAE20469847BBE62046FFF75D
:1046500025FEB7E6204600F0A9FAB3E601000010F7
:104660002001000427430008204600F09EFAA9E636
:104670002DE9F041044601688368026913434269E9
:104680001343C269134308688F4A024013430B6007
:104690002268536823F44053E1680B435360A169D7
:1046A00022688A4B9A4201D0236A1943936823F007
:1046B0006E4323F430630B4393602268D36A23F084
:1046C0000F03616A0B43D3622268814B9A4219D06F
:1046D0007E4B9A422AD010237C498A4245D0E06919
:1046E000B0F5004F00F08280013B072B00F2E6801E
:1046F000DFE813F0AC00AA00E400CE00E400E40020
:10470000E400D1004FF0B043D3F8883003F0030346
:10471000032B09D8DFE803F002041F060123DBE7BF
:104720000423D9E70823D7E71023D5E74FF0B04398
:10473000D3F8883003F44063B3F5006F0DD005D88B
:104740006BB1B3F5806F0CD10423C5E7B3F5406FAF
:1047500009D10823C0E70223BEE70223BCE70023F8
:10476000BAE71023B8E71023B6E7082B00F29680CB
:10477000DFE803F008943A943794949405004FF4DA
:10478000004004E0FEF710FD002800F08980626A16
:10479000504B33F81220B0FBF2F3656805EB45018E
:1047A00099427FD8B3EB053F7ED84FF0000892B214
:1047B00000234146FBF79CFD0F0247EA1067060203
:1047C00068082A464346301847F10001FBF790FD80
:1047D000A0F54072404B9A4268D82368D8604046A2
:1047E0004CE0FDF7A9FFCFE73C48D0E7013B072BA2
:1047F0005ED8DFE803F006045D265D5D5D0A37489C
:1048000003E0FEF7E3FC002854D0626A314B33F832
:104810001230B0FBF3F06268530803EB4000B0FBCA
:10482000F2F080B2A0F110024FF6EF739A4243D833
:1048300020F00F03C0F3420018432368D860002023
:104840001CE0FDF779FFDEE7244802E0FEF7BEFC3E
:10485000B0B3626A1F4B33F81230B0FBF3F06368F9
:1048600000EB5300B0FBF3F080B2A0F110024FF662
:10487000EF739A4226D82368D86000200123A4F859
:104880006A30A4F86830002323676367BDE8F081CD
:10489000FDF752FFDCE74FF40040DAE70120EDE7D7
:1048A0000020EBE70120E9E70120E7E70120E5E749
:1048B0000120E3E70020E1E70120DFE70120DDE759
:1048C0000020DBE70120D9E7F369FFCF008000403B
:1048D00000380140BCA90008FFFC0F000024F400D0
:1048E000836A13F0010F06D00268536823F4003383
:1048F000C16A0B435360836A13F0020F06D002684B
:10490000536823F48033016B0B435360836A13F0C5
:10491000040F06D00268536823F48023416B0B43D5
:104920005360836A13F0080F06D00268536823F4BB
:104930000043816B0B435360836A13F0100F06D062
:104940000268936823F48053C16B0B439360836ABE
:1049500013F0200F06D00268936823F40053016C13
:104960000B439360836A13F0400F0AD002685368C8
:1049700023F48013416C0B435360436CB3F5801FE9
:104980000BD0836A13F0800F06D00268536823F4BB
:104990000023C16C0B43536070470268536823F4D3
:1049A000C003816C0B435360EBE72DE9F8430546E8
:1049B0000F4616469946DDF820802C68E46937EAF0
:1049C00004030CBF01240024B44257D1B8F1FF3FC7
:1049D000F3D0FFF743FBA0EB090040452FD8B8F117
:1049E000000F2CD02B681A6812F0040FE5D0DA699A
:1049F00012F4006FE1D04FF400621A622A6852E8A4
:104A0000003F23F4D07342E800310029F6D12A6830
:104A100002F1080353E8003F23F00103083242E8A3
:104A200000310029F3D12023C5F88430C5F888303F
:104A3000C5F88C30002385F8803003201FE02A68F9
:104A400052E8003F23F4D07342E800310029F6D148
:104A50002A6802F1080353E8003F23F001030832FB
:104A600042E800310029F3D12023C5F88430C5F88D
:104A70008830002385F88030032000E00020BDE866
:104A8000F88330B583B004460023C0F88C30FFF7BC
:104A9000E5FA054623681B6813F0080F0FD1236859
:104AA0001B6813F0040F18D12023C4F88430C4F815
:104AB00088300020E06684F8800003B030BD6FF0DD
:104AC0007E430093034600224FF400112046FFF777
:104AD0006CFF0028E3D00320EFE76FF07E430093E4
:104AE0002B4600224FF480012046FFF75EFF00288E
:104AF000DAD00320E1E778B310B50446D0F884306B
:104B00000BB32423C4F884302268136823F0010314
:104B100013602046FFF7ACFD012813D0A36ABBB990
:104B20002268536823F4904353602268936823F00B
:104B30002A0393602268136843F001031360204640
:104B4000FFF79FFF10BD80F88030FCF7ADFED8E77F
:104B50002046FFF7C5FEE3E701207047436E2BB9FF
:104B60000123A0F86A30A0F86830704730B40368B9
:104B70009A68C2F342629968490F094D6B5CDB0089
:104B8000084C615C93FBF1F3A0F86A30AB5CDB008E
:104B9000A25C93FBF2F3A0F8683030BC704700BF12
:104BA000DCA90008D4A9000870477047704790F846
:104BB0008030012B18D0012380F880302423C0F8E6
:104BC000843003681A68196821F00101196022F025
:104BD00000520023436601680A602022C0F8842046
:104BE00080F88030184670470220704738B590F83A
:104BF0008030012B1DD00446012380F8803024230F
:104C0000C0F8843003681D681A6822F001021A6037
:104C10000268936823F0604319439160FFF79EFF99
:104C200023681D602023C4F88430002084F88000AD
:104C300038BD0220FCE738B590F88030012B1DD03C
:104C40000446012380F880302423C0F884300368B0
:104C50001D681A6822F001021A600268936823F046
:104C6000606319439160FFF779FF23681D6020237B
:104C7000C4F88430002084F8800038BD0220FCE7AE
:104C8000D0B110B50446437A93B10223637222680F
:104C9000136823F0200361680B43136022681368D4
:104CA00043F004031360012363720020E06010BD31
:104CB0000372FCF7B9FEE8E7012070477047000077
:104CC00010B5044603689A6812F4805F03D0DB686D
:104CD00013F4807F10D123689A6812F4005F03D028
:104CE000DB6813F4007F10D10D4B4FF40032DA6013
:104CF000012384F8213010BDFFF7E0FF2268D3685C
:104D0000DBB263F4C073D360E5E7204600F05CFBE0
:104D10002268D368DBB263F42073D360E4E700BF9A
:104D20000008005838B504460268D36823F0A00391
:104D3000D360FFF793F905462368DB6813F0200F73
:104D400007D1FFF78BF9401BB0F57A7FF4D9032028
:104D500000E0002038BD38B50368DA6812F0400F73
:104D600001D0002038BD04464FF0FF32DA60FFF773
:104D700075F905462368DB6813F0400F07D1FFF78C
:104D80006DF9431BB3F57A7FF4D90320EAE70020DD
:104D9000E8E738B5002867D0044690F82130002BAA
:104DA00045D0022384F821302368CA225A6223683E
:104DB00053225A622046FFF7CEFF054600283BD11A
:104DC0002268936823F4E00323F040039360216892
:104DD0008A68636820690343A069034313438B60B7
:104DE0002368E2681A6122681369A16843EA0143F3
:104DF00013612268D36823F08003D3602268D36CE8
:104E000023F00303D3642168CB6CE2696069024339
:104E10001343CB6423689B6813F0200F14D02368DE
:104E2000FF225A62012384F82130284638BD80F8D9
:104E30002030FCF723FEB4E72368FF225A620423E4
:104E400084F821300125F0E72046FFF76BFF0028AA
:104E5000E5D02368FF225A62042384F8213000231E
:104E600084F820300125E0E70125DEE7002309284A
:104E700003D901330A38C0B2F9E71B01DBB218438A
:104E80007047F8B590F82030012B00F0818004467F
:104E90000E46012380F82030022380F82130002ABA
:104EA00049D103689B6813F0400F01D10023CB70F8
:104EB0003078FFF7DBFF05047078FFF7D7FF45EA8E
:104EC0000025B078FFF7D2FF0543F07845EA0045AA
:104ED0002368CA225A62236853225A622046FFF787
:104EE0003AFF0746002838D1236805F07F3525F0C2
:104EF000FE451D602268936823F480239360216837
:104F00008B68F2683069024313438B602268D36870
:104F100023F08003D36023689B6813F0200F27D011
:104F20002368FF225A62012384F82130002384F889
:104F300020303846F8BD03689B6813F0400F01D15C
:104F40000023CB7035787078000240EA0540B578D0
:104F50002843F57840EA0545BAE72368FF225A62FC
:104F6000042384F82130002384F820300127E0E76F
:104F70002046FFF7D7FE0028D2D02368FF225A62CE
:104F8000042384F82130002384F820300127D0E75F
:104F90000227CEE770B590F82030012B6ED0044682
:104FA0000E46012380F82030022380F821303AB9E0
:104FB0004B7813F0100F03D003F0EF030A334B705C
:104FC000002A35D1F078FFF751FF05047078FFF71C
:104FD0004DFF45EA0025B078FFF748FF05433078DC
:104FE00045EA40352368CA225A62236853225A622E
:104FF0002046FFF7B0FE064628BB236825F07F4514
:1050000025F0C0055D602268D36823F08003D3607B
:1050100023689B6813F0200F20D02368FF225A6278
:10502000012384F82130002384F82030304670BDFD
:10503000F5787078000240EA0540B5782843357865
:1050400040EA4535CEE72368FF225A62042384F8FC
:105050002130002384F820300126E7E72046FFF7BF
:1050600061FE0028D9D02368FF225A62042384F805
:105070002130002384F820300126D7E70226D5E727
:10508000F8B590F82030012B00F0C88004460D469A
:10509000012380F82030022380F82130002A50D1EB
:1050A00003689B6813F0400F01D10023CB70EE69B9
:1050B0002878FFF7DBFE07046878FFF7D7FE47EA9A
:1050C0000027A878FFF7D2FE0743E87847EA0047B1
:1050D00095F82000FFF7CAFE47EA006737436E697C
:1050E0003E436F68AB691F432368CA225A62236834
:1050F00053225A626B6AB3F5807F3CD02268936872
:1051000023F4007393602268D368DBB263F42073E6
:10511000D360FEF7A3FF05462368DA6812F0020F9A
:105120005AD1FEF79BFF401BB0F57A7FF4D9236874
:10513000FF225A62032084F82100002384F82030E3
:105140006BE003689B6813F0400F01D10023CB7024
:10515000EE692A786B781B0243EA0243AA7813436C
:10516000EA7843EA024395F8202043EA02631E43AB
:105170006B691E43B5E72268936823F480739360DC
:105180002268D368DBB263F4C073D360FEF766FFB6
:1051900005462368DA6812F0010F0FD1FEF75EFFB3
:1051A000401BB0F57A7FF4D92368FF225A620320AE
:1051B00084F82100002384F820302EE0DE6123688B
:1051C0005F642268936843F48073936022689368F5
:1051D00043F4805393600CE01E6223689F6422684E
:1051E000936843F4007393602268936843F4005318
:1051F00093600B4BD3F8802042F40032C3F8802038
:105200001A6842F400321A602368FF225A620123AE
:1052100084F82130002084F82000F8BD0220FCE74B
:1052200000080058030903EB830300F00F0000EBB4
:105230004300C0B2704770B50C4603689B6A4B6070
:1052400003681B69C3F30E038B6003681D68C5F315
:105250000641C5F305402070C5F30626667005F0CB
:105260007F05A57001F04003E37052B9FFF7DAFF44
:1052700020703046FFF7D6FF60702846FFF7D2FF58
:10528000A070002070BD70B503685B68C3F3074071
:10529000C870C3F304264E7003F03F058D70C3F34E
:1052A00042330B705AB90C46FFF7BCFFE070304632
:1052B000FFF7B8FF60702846FFF7B4FFA07000202A
:1052C00070BD0000F8B590F82030012B77D004466F
:1052D0000E461546012380F82030022380F8213045
:1052E0000368CA225A62036853225A6203689B68A1
:1052F00013F4806F17D0FEF7B1FE07462368DB6812
:1053000013F0040F0FD0FEF7A9FEC01BB0F57A7F93
:10531000F4D92368FF225A62032084F82100002375
:1053200084F820304AE02268936823F48063936015
:105330002268D368DBB263F49063D360FEF78EFE1D
:1053400007462368DA6812F0040F0FD1FEF786FED5
:10535000C01BB0F57A7FF4D92368FF225A6203207C
:1053600084F82100002384F8203027E05E61226861
:10537000936823F007039360226893681D43956048
:10538000104BD3F8802042F40022C3F880201A6822
:1053900042F400221A602268936843F480439360C9
:1053A0002268936843F4806393602368FF225A6203
:1053B000012384F82130002084F82000F8BD022069
:1053C000FCE700BF0008005870470000164AD2F8FA
:1053D000883043F47003C2F888304FF0B0431A6845
:1053E00042F001021A604FF4E0229A601968A2F1BB
:1053F000A262A2F205120A401A60D3F8942022F0A9
:105400000502C3F89420D3F8982022F00102C3F8D3
:105410009820064ADA601A611A6822F480221A601B
:1054200000229A61704700BF00ED00E000100422E6
:1054300000B583B0084800F024FA50B901A9064825
:1054400000F04FFA054B1B690199186900F031FA19
:10545000F0E703B05DF804FB3003002000000320F8
:1054600008B5FCF75DFB08BD08B5104A104B13608A
:1054700003F12001516003F13001916003F13C011F
:10548000116203F14401516203F14C01D16003F157
:105490005401116103F17001516103F174019161D3
:1054A0008033D361FCF764FB08BD00BF000003201C
:1054B0003401032038B504460B4D284600F0DEF9D0
:1054C0000A4B5B68A2681A60E268DA60084A5A60B0
:1054D0009D60FCF76FFB2268064B1A606268064B02
:1054E0001A60002038BD00BFC00103200000032067
:1054F000480A03202C0300202803002008B5054B90
:105500005A681268012111725B68FCF75BFB00208E
:1055100008BD00BF0000032000B583B0074800F0BD
:10552000B0F940B901A9054800F0DBF9044B1B684C
:1055300001989847F2E703B05DF804FBC00103202F
:105540002C03002008B5024B1B68984708BD00BF1C
:105550002803002038B50446094D284600F08EF98E
:10556000084BDB68A2681A605D60FCF749FB2268A3
:10557000054B1A606268054B1A60002038BD00BFF9
:10558000C801032000000320380300203C03002052
:1055900008B5054BDA68126810211172DB68FCF758
:1055A00037FB002008BD00BF0000032008B5044BF6
:1055B000DA68DA68034B1B681068984708BD00BFBB
:1055C000000003203803002000B583B0074800F036
:1055D00058F940B901A9054800F083F9044B1B684C
:1055E00001989847F2E703B05DF804FBC801032077
:1055F0003C03002038B504460B4D284600F03EF928
:105600000A4800F03BF90A4B1B69A2689A60E268FD
:10561000DA601D6122681A6062685A6022695A6104
:1056200062699A6138BD00BFD001032030030020B9
:105630000000032008B50146034800F03AF903488A
:10564000FCF734FB08BD00BF3003002031540008D4
:1056500010B5054C204600F011F9044B5B691C6045
:10566000FCF73CFB10BD00BFD80103200000032065
:105670007047000000B583B0074800F002F938B960
:1056800001A9054800F02DF90198FFF7F1FFF3E7B4
:1056900003B05DF804FB00BFD801032000B585B05E
:1056A0006B4600F10C0225214FF6664001F084F8AC
:1056B0009DF80E0005B05DF804FB00B585B06B46A3
:1056C00000F10C020F214FF6684001F075F89DF8CB
:1056D0000E0005B05DF804FB00B585B002466B46D0
:1056E0000E214FF6754001F067F89DF80E0005B0E9
:1056F0005DF804FB70B41D4BDB6BC3F30D039B0023
:1057000003F1005303F540331A681168184B9942AE
:1057100026D0136954699569516892681E0E067007
:105720001E0C46701E0A8670C3F30316C67003F083
:105730000F030371230E4371230C8371230AC3717A
:10574000047245720B0E83720B0CC372090A01734B
:10575000130E4373130C8373C273002070BC704725
:1057600053699469D569D1681269D7E70040005838
:10577000B95646A930B583B0EFF3108572B60D4C1B
:105780000DF10601204600F0ECF90DF1060120466E
:1057900000F055FA40B185F31088074ABDF80610AD
:1057A000FBF7C0FB03B030BD044B01221A7085F338
:1057B0001088F7E740030020755700081C00002000
:1057C00000B583B0FBF7AAFB0223009300234FF43C
:1057D00080520349034800F090F803B05DF804FBE1
:1057E0006003002040030020F8B5EFF31085B0F10E
:1057F000FF3F20D01446013801281ED80AB91046B0
:105800001AE072B696B2012332460D4800F08EF8C7
:1058100010B10C4B1B781BB985F3108820460BE0A8
:10582000084B00221A7085F31088074A3146FBF7AF
:1058300079FB204600E00020F8BD4FF0FF30FBE789
:10584000400300201C0000207557000808B5FFF732
:10585000CBFF08BD01460748C3798B4204D0064AF6
:10586000904201D00838F7E78B4200D17047002002
:10587000FCE700BFF873FF1F0070FF1F006040606F
:105880007047EFF3108372B60268824203D00020A3
:1058900083F3108870470120FAE7EFF3108372B6A4
:1058A00002680A60486001600A68516083F31088EA
:1058B0007047EFF3108372B6086042684A60416037
:1058C0004A68116083F310887047EFF3108372B653
:1058D00042680168116002684168516083F3108872
:1058E000704710B5EFF3108472B603680B60006860
:1058F000FFF7EBFF84F3108810BD10B49DF804404F
:1059000001600021C16001614161816142600381E8
:10591000047714F0020F02D02BB9084600E00020F3
:105920005DF8044B70474FF0FF30F9E72DE9F04F79
:1059300085B0044602919A460689C6B94FF0020B1B
:105940006169B9B116BB2568236915F80380581C35
:105950006768B84201D3DB1B581C2B5C08EB03289B
:105960001FFA88F808F102081FFA88F804E04FF0DF
:10597000000BE5E74FF0000806B916462269E36818
:105980009A4205D3636842449A1A02E0B046F3E7AC
:10599000002206EB0B000AFB00F5954205D3B2FB93
:1059A000F0F300FB1323DBB200E000239B4505D29C
:1059B000227F12F0010F16D09AB200E000229B4520
:1059C00005D2237F13F0020F01D01FFA8BF2002EB5
:1059D00000F0C380294411446368994205D800232C
:1059E00001931F461DE00022E9E70020B2E0206895
:1059F0002A46029907FB0911184401F053FE636916
:105A00002B4463610BEB06081FFA88F80195A9EB9C
:105A100005050023002D40F08480A3690133A361B4
:105A20000137574580F08D80236943446268934273
:105A300000D39B1A236122898AB921685A1CCE544B
:105A40006368934200D8D21A310A2068531C8154EB
:105A500062689A4200D89B1A626902326261B1465A
:105A60006568ED1AB54228BF3546AE42BFD002D9AF
:105A7000227F002ABBD0002DCCD0227F12F0010F54
:105A800022D0228932B92068991EFF22425421680F
:105A9000013BCA5463691D4465612389002B3CD1D5
:105AA00023681E704FEA192322685370636902331A
:105AB00063614D460023019302231BFA85F81FFA08
:105AC00088F800222261A5E712F0020FF5D02289A2
:105AD000002A44D121689A1E8D54280A21685A1E32
